:020000040800F2
:10000000404E002099020008E91D00087D1C0008F0
:10001000E51D0008BD0500083525000800000000AA
:10002000000000000000000000000000D9010008EE
:10003000C10500080000000035020008051E000888
:10004000B3020008B3020008B3020008B3020008BC
:10005000B3020008B3020008B3020008B3020008AC
:10006000B3020008B3020008B3020008B30200089C
:10007000B3020008B3020008B3020008B30200088C
:10008000B3020008B302000805040008B302000828
:10009000B3020008B3020008B3020008B30200086C
:1000A000B3020008B3020008B3020008B30200085C
:1000B000B3020008B3020008B3020008B30200084C
:1000C000B3020008B3020008B3020008B30200083C
:1000D000B3020008B302000825250008B302000897
:1000E000B3020008B3020008B3020008B30200081C
:1000F000B3020008B3020008B3020008B30200080C
:10010000B3020008B3020008B3020008B3020008FB
:10011000B3020008B3020008F11E0008B302000891
:10012000B3020008B3020008B3020008B3020008DB
:10013000B30200080000000000000000B302000845
:10014000B3020008B3020008B3020008B3020008BB
:10015000B3020008B3020008B3020008B3020008AB
:10016000B3020008B3020008B3020008B30200089B
:10017000B3020008B3020008B30200080000000048
:1001800000000000B30200080000000000000000B2
:10019000B30200080000000000000000B3020008E5
:1001A000000000000000000000000000B302000892
:1001B000B3020008B3020008B3020008B30200084B
:1001C000B3020008DFF80CD000F00AF9004800473D
:1001D000A9270008404E00202C4B19680868B0E899
:1001E000F04F80F30988BFF36F8F4FF0000080F36A
:1001F000118870470000000008480068006880F31C
:1002000008884FF0000080F3148862B661B6BFF32F
:100210004F8FBFF36F8F00DF00BF00BF08ED00E01E
:10022000DFF80C00016841F470010160704700BF05
:1002300088ED00E0EFF30980BFF36F8F134B1A686E
:100240001EF0100F08BF20ED108A20E9F04F10605B
:1002500009B44FF0500080F31188BFF34F8FBFF304
:100260006F8F03F009FD4FF0000080F3118809BC87
:1002700019680868B0E8F04F1EF0100F08BFB0EC26
:10028000108A80F30988BFF36F8F70472000002029
:10029000EFF3058070470000064880470648004796
:1002A000FEE7FEE7FEE7FEE7FEE7FEE7FEE7FEE726
:1002B000FEE7FEE7D51E0008C50100082DE9F05F46
:1002C0000546002092469B468846064681464024C5
:1002D0001BE0284641464746224600F070F8534648
:1002E0005A46C01A914110D311461846224600F0D2
:1002F00057F82D1A67EB01084F46224601200021CE
:1003000000F04EF817EB00094E41201EA4F1010445
:10031000DFDC484631462A464346BDE8F09F40EAC6
:1003200001039B0703D009E008C9121F08C0042A73
:10033000FAD203E011F8013B00F8013B521EF9D25A
:100340007047D2B201E000F8012B491EFBD2704782
:100350000022F6E710B513460A4604461946FFF791
:10036000F0FF204610BD421C10F8011B0029FBD1F4
:10037000801A704730B50B46014600202022012428
:1003800009E021FA02F59D4205D303FA02F5491B63
:1003900004FA02F52844151EA2F10102F1DC30BD79
:1003A000202A04DB203A00FA02F100207047914035
:1003B000C2F1200320FA03F3194390407047202A2A
:1003C00004DB203A21FA02F00021704721FA02F3FF
:1003D000D040C2F120029140084319467047000006
:1003E000064C074D06E0E06840F0010394E8070082
:1003F00098471034AC42F6D3FFF7E8FE244B0008D0
:10040000444B000810B5024800F0D5F910BD0000BB
:10041000A400002055494A6822F440324A604A68E4
:1004200043681A434A600268526822F48072036883
:100430005A6002685368026943EA022203685A60FC
:100440000268526822F0407203685A60026852687B
:1004500083681A4303685A600268926822F4006253
:1004600003689A6002689268C3681A4303689A60D6
:100470003F4B826A9A4218D00268926822F07062FA
:1004800003689A6002689268836A1A4303689A60F4
:100490000268926822F0405203689A60026892688B
:1004A000C36A1A4303689A600BE00268926822F0FC
:1004B000706203689A600268926822F04052036892
:1004C0009A600268926822F0020203689A600268E9
:1004D0009368027E43EA420203689A602022125C1B
:1004E000A2B10268526842F4006203685A6002686E
:1004F000526822F4604203685A6002685368426A94
:10050000521E43EA423203685A6005E002685268AC
:1005100022F4006203685A600268D26A22F4700210
:100520000368DA620268D36A828B521E43EA02527F
:100530000368DA620268926822F4007203689A60C3
:100540000268936890F8302043EA422203689A6078
:100550000268926822F4806203689A600268936875
:10056000426943EA822203689A607047002301408F
:100570000100000F00BF2021034800F02BFC4FF4C6
:100580007A7002F055F9F6E70000024000BF202122
:10059000034800F01FFCFA2002F04AF9F7E70000D8
:1005A0000008024000BF4021034800F013FC40F265
:1005B000EE2002F03DF9F6E70008024000BFFEE73A
:1005C000704770477047000038B502460020009021
:1005D00000BF92F83C00012801D1022038BD012063
:1005E00082F83C0000BF0868092816D91068C06866
:1005F0000C780A3C04EB44050724AC40A043146883
:10060000E0600C780A3C04EB44048868A04014685D
:10061000E46820431468E06013E0106800690C7817
:1006200004EB44050724AC40A043146820610C7817
:1006300004EB44048868A0401468246920431468CB
:1006400020614868072817D21068406B0C79641E37
:1006500004EB84051F24AC40A04314686063088841
:1006600080B20C79641E04EB8404A0401468646BAF
:1006700020431468606331E048680D2817D2106881
:10068000006B0C79E41F04EB84051F24AC40A043ED
:1006900014682063088880B20C79E41F04EB84049A
:1006A000A0401468246B20431468206316E010688F
:1006B000C06A0C790D3C04EB84051F24AC40A043B8
:1006C0001468E062088880B20C790D3C04EB840465
:1006D000A0401468E46A20431468E0621E4B1F4C7B
:1006E0001068A0420AD10868122807D1586820F47F
:1006F00000005860586840F480005860174C10683B
:10070000A04222D1164C0868A04202D008681128E5
:100710001BD1586820F480005860586840F40000ED
:1007200058600F4C0868A0420FD10E4800680E4C6C
:10073000B0FBF4F000EB80004000009002E0009875
:10074000401E009000980028F9D100BF002082F8D8
:100750003C0000BF00BF41E70023014000200140F2
:10076000120000101C00002040420F0070B58EB037
:100770000446204600F01BF885B2204600F0F2F94E
:100780002A4607A101A801F0D7FE01A8FFF7EBFD5B
:1007900086B2324601A9044801F043FA0EB070BD9A
:1007A00025690D0A00000000EC000020704701469A
:1007B0000868C06C704770B50446002500262068A4
:1007C0000068C0F3400520684068C0F3401695B348
:1007D0008EB3206C00F0100018B9206C40F400704B
:1007E00020642068806800F04050E8B9207ED8B9C5
:1007F0002068C06A00F4700020B12068806800F4AE
:10080000806088B92068406820F020002168486036
:10081000206C20F480702064206C00F4805018B9A3
:10082000206C40F0010020642046FFF79FFF6FF02E
:1008300012002168086020680068C0F38005206805
:100840004068C0F3C016E5B3DEB3206C00F01000C2
:1008500018B9206C40F4005020642068806800F4CF
:10086000401038BB2068806B00F4401020B1206835
:10087000806800F48060E8B92068406800F4806017
:10088000C0B92068806800F0405098B9207E88B9CF
:100890002068406820F0800021684860206C20F4C7
:1008A00080502064206C00F4807018B9206C40F0F7
:1008B000010020642046FFF785FE6FF00C002168E0
:1008C00008602068006800F0010520684068C0F3F7
:1008D000801685B17EB12068006800F0010050B13B
:1008E000206C40F480302064204600F053F86FF014
:1008F00001002168086020680068C0F34015206886
:100900004068C0F380667DB176B1606C40F0020053
:1009100060646FF02000216808602046FFF746FF02
:100920006FF020002168086070BD000070B50446BB
:1009300000250CB9012070BD1549A06A884200D07D
:1009400000BF206C30B9204600F026F8002060641B
:1009500084F83C00206C00F0100088B9206C20F472
:10096000885040F0020020642046FFF753FD00202D
:100970006064206C20F0020040F00100206400E080
:10098000012500BF002084F83C0000BF2846D2E7C4
:100990000100000F7047000010B586B00446142116
:1009A00001A8FFF7D5FC1949206888422BD100BF68
:1009B000002000901648006840F4807014490860D8
:1009C0000846006800F48070009000BF00BF00BFC0
:1009D000002000900E481438006840F001000C49D7
:1009E000143908600846006800F00100009000BF5C
:1009F00000BF01200190032002900020039001A974
:100A0000044800F0EFF806B010BD000000200140DF
:100A1000443802400000024008B501460020009022
:100A200000BF91F83C00012801D1022008BD01203F
:100A300081F83C0000BF0868806800F00100A0B9A0
:100A40000868806840F001000B6898603E480068C4
:100A50003E4BB0FBF3F000EB4000009002E000984A
:100A6000401E009000980028F9D10868806800F0C6
:100A70000100002865D0086C40F20163984340F4FF
:100A8000807008640868406800F4806028B1086CD1
:100A900020F4005040F480500864086C00F480504A
:100AA000B0F5805F04D1486C20F00600486401E096
:100AB0000020486400BF002081F83C0000BF244AA9
:100AC0006FF022000B68186008684068214B1843DB
:100AD0000B685860506800F01F0018BB1E4B086878
:100AE000984213D01D4B0868984204D1101D00682D
:100AF00000F01F0050B11A4B0868984221D11448E9
:100B0000001D006800F01F0010281AD208688068D5
:100B100000F0405028B90868806840F080400B68B9
:100B200098600EE00C4B086898420AD1086880680B
:100B300000F0405028B90868806840F080400B6899
:100B40009860002072E700001C00002040420F0067
:100B5000002301402000000400200140002101404A
:100B600000220140014600BF91F83C00012801D15C
:100B700002207047012081F83C0000BF08688068AF
:100B800020F001000A6890600868806800F00100A9
:100B900058B908684068084A10400A685060086CF4
:100BA00020F4885040F00100086400BF002081F864
:100BB0003C0000BF00BFDCE7DFFFFFFB014691F810
:100BC0003500022803D080204865012070470520A9
:100BD00081F835000868006820F001000A6810609C
:100BE0000020F3E7F8B502460B460025002400205C
:100BF0000021D7E0012606FA01F51E6806EA050481
:100C0000AC4273D15E68012E08D05E68022E05D01A
:100C10005E68112E02D05E68122E13D190684F00CC
:100C20000326BE40B0434F00DE68BE4030439060B4
:100C3000506801268E40B0431E79C6F300168E40E0
:100C400030435060D0684F000326BE40B0434F0091
:100C50009E68BE403043D0605E68022E02D05E685F
:100C6000122E13D1CF0802F1200656F827004E07A6
:100C7000F70E0F26BE40B0434F07FF0E1E69BE4061
:100C80003043CF0802F1200646F8270010684F00D5
:100C90000326BE40B0431E7906F003064F00BE4057
:100CA000304310605E6806F08056B6F1805F78D100
:100CB00000BF002600963D4E366846F480463B4F06
:100CC0003E603E46366806F48046009600BF00BF90
:100CD000374E8F0856F827008E07370F0F26BE4075
:100CE000B043344EB24202D100261FE059E0324EEA
:100CF000B24201D1012619E0304EB24201D10226A2
:100D000014E02F4EB24201D103260FE02D4EB24225
:100D100001D104260AE02C4EB24201D1052605E09D
:100D20002A4EB24201D1062600E007268F073F0F68
:100D3000BE4030431E4E8F0846F82700244E3068D0
:100D4000A0435E6806F48036B6F5803F00D12043AC
:100D50001F4E3060361D3068A0435E6806F40036D2
:100D6000B6F5003F00D12043194E361D3060361DC8
:100D70003068A0435E6806F48016B6F5801F00D187
:100D80002043134E08363060361D3068A0435E683D
:100D900006F40016B6F5001F00D120430C4E0C36A9
:100DA0003060491C1029FFF425AFF8BD44380240DB
:100DB00008380140000002400004024000080240E0
:100DC000000C0240001002400014024000180240D3
:100DD000003C014042690A408A4202D10A04826111
:100DE00000E0816170470AB1816101E00B04836119
:100DF00070470000014800687047000010000020A4
:100E000003480068034909780844014908607047AD
:100E1000100000201800002010B50D48006840F4B4
:100E200000700B4908600846006840F48060086064
:100E30000846006840F480700860032000F0C8F89D
:100E4000002000F007F800F04BF8002010BD000073
:100E5000003C024070B588B0044600250026002200
:100E60002146362000F076F8362000F063F800BF07
:100E7000002001901648006840F0100014490860F6
:100E80000846006800F01000019000BF00BF02A9F2
:100E900003A800F073F900F099F905460D48B5FB79
:100EA000F0F0461E0C480D49086040F2E7310B484F
:100EB000C160466000210161816000F075FC20B9CD
:100EC000064800F08CFC08B070BD0120FBE7000074
:100ED0004038024040420F00001000402C0100202A
:100EE00008B500BF002000901148006840F4804021
:100EF0000F4908600846006800F48040009000BF79
:100F000000BF00BF00200090081F006840F0805024
:100F1000091F08600846006800F08050009000BF7C
:100F200000BF00220F21901E00F014F808BD000041
:100F30004438024001460846002809DB00F01F0340
:100F400001229A4043099B0003F1E023C3F80021EA
:100F500000BF70472DE9F05F80460D46164600271A
:100F600001F00CFB074639462A46334601F00700DC
:100F7000C0F1070ABAF1040F02D94FF0040A01E0E8
:100F8000C0F1070AD14600F1040ABAF1070F02D2F4
:100F90004FF0000A01E0A0F1030AD4464FF0010A25
:100FA0000AFA09FAAAF1010A0AEA020A0AFA0CFA8A
:100FB0004FF0010B0BFA0CFBABF1010B0BEA030B2F
:100FC0004AEA0B042146404601F0F4FABDE8F09FDE
:100FD00000BF00F00702064B19684FF6FF031940E7
:100FE000044B0B4343EA0221014B196000BF7047D9
:100FF0000CED00E00000FA0570B504460D460CB992
:10100000012070BD5848006800F00F00A84209D2C6
:1010100055490D700846006800F00F00A84201D045
:101020000120EEE7207800F0020002281DD1207890
:1010300000F00400042805D14C48006840F4E0505A
:101040004A490860207800F00800082805D1474880
:10105000006840F46040454908604448006820F05A
:10106000F000A168084341490860207800F00100C1
:10107000A8B36068012807D13C4808380068C0F36D
:101080004040B8B90120BCE76068022802D060681F
:10109000032807D1354808380068C0F3406048B9D4
:1010A0000120AEE7314808380068C0F3400008B9B5
:1010B0000120A6E72D48006820F00300616808437E
:1010C0002A490860FFF796FE064609E0FFF792FE00
:1010D000801B41F28831884202D9032091E707E062
:1010E0002248006800F00C006168B0EB810FEDD180
:1010F0001D48006800F00F00A84209D91A490D7078
:101100000846006800F00F00A84201D0012078E7EF
:10111000207800F00400042807D11448006820F467
:10112000E050E168084311490860207800F00800A9
:10113000082808D10D48006820F46040216940EA81
:10114000C1000A49086000F061F808490968C1F364
:101150000311074A515CC840064908600648006808
:10116000FFF778FE00204CE7003C024008380240C0
:10117000DC4A00081C000020140000200F2202603E
:101180000D4A126802F0030242600B4A126802F034
:10119000F0028260084A126802F4E052C260064A15
:1011A000126802F46042D2080261044A126802F036
:1011B0000F020A607047000008380240003C0240FD
:1011C00001480068704700001C00002000B5FFF7D0
:1011D000F7FF04490968C1F38221034A515CC84002
:1011E00000BD000008380240EC4A000800B5FFF7D7
:1011F000E7FF04490968C1F34231034A515CC84022
:1012000000BD000008380240EC4A00082DE9F04714
:10121000002400250026A146A2463F48006800F0B1
:101220000C0030B1042807D0082808D00C286BD156
:1012300038E0DFF8E8A06AE0DFF8E4A067E03648CD
:10124000001F006800F03F043348001F006800F4EE
:10125000800078B132483049091F0968C1F388110C
:10126000A0FB01700146224600233846FFF726F80E
:1012700005460DE029482849091F0968C1F388116E
:10128000A0FB0171224600233846FFF717F80546F8
:101290002148001F0068C0F30140401C4600B5FB18
:1012A000F6FA34E01C48001F006800F03F041A48BA
:1012B000001F006800F4800078B119481649091F22
:1012C0000968C1F38811A0FB017001462246002382
:1012D0003846FEF7F3FF05460EE010480E49091F99
:1012E0000968C1F38811A0FB017001462246002362
:1012F0003846FEF7E3FF05460748001F0068C0F3C5
:101300000279B5FBF9FA02E0DFF810A000BF00BFD8
:101310005046BDE8F0870000083802400024F40081
:1013200040787D01F8B504460025207800F00100E2
:1013300000286FD0FD48006800F00C0004281BD086
:10134000FA48006800F00C00082807D1F748001F91
:10135000006800F48000B0F5800F0DD0F3480068FD
:1013600000F00C000C2813D1F048001F006800F4B6
:101370008000B0F5800F0BD1EC4808380068C0F34E
:101380004040002859D06068002856D10120F8BD9F
:1013900000BF6068B0F5803F08D1E44808380068B5
:1013A00040F48030E149083908601EE06068B0F51B
:1013B000A02F0DD1DD480838006840F48020DB49BB
:1013C000083908600846006840F4803008600CE086
:1013D000D6480838006820F48030D44908390860BD
:1013E0000846006820F48020086000BF606890B163
:1013F000FFF700FD054606E0FFF7FCFC401B6428F4
:1014000001D90320C3E7C94808380068C0F3404049
:101410000028F1D011E0FFF7EDFC054606E0FFF7EC
:10142000E9FC401B642801D90320B0E7BF48083815
:101430000068C0F340400028F1D1207800F002009D
:1014400002286BD1B948006800F00C00B8B1B74869
:10145000006800F00C00082805D1B448001F00689F
:1014600000F4800058B1B148006800F00C000C286E
:101470001CD1AE48001F006800F48000B0B9AB4832
:1014800008380068C0F3400020B1E068012801D0AE
:1014900001207CE7A5480838006820F0F8002169A1
:1014A00040EAC100A1490839086037E0E06800B3AC
:1014B00001209F490860FFF79DFC054606E0FFF705
:1014C00099FC401B022801D9032060E7974808389F
:1014D0000068C0F340000028F1D094480838006844
:1014E00020F0F800216940EAC100904908390860FD
:1014F00014E000208E490860FFF77CFC054606E0FA
:10150000FFF778FC401B022801D903203FE78748FA
:1015100008380068C0F340000028F1D1207800F0BE
:10152000080008282CD16069A8B101208149086011
:10153000FFF760FC054606E0FFF75CFC401B022855
:1015400001D9032023E779486C300068C0F34000DC
:101550000028F1D014E0002076490860FFF74AFC2B
:10156000054606E0FFF746FC401B022801D9032090
:101570000DE76E486C300068C0F340000028F1D1E0
:10158000207800F00400042870D100266748383025
:10159000006800F0805090B900BF002000906348C0
:1015A0003830006840F080506049383108600846A3
:1015B000006800F08050009000BF00BF01265E4828
:1015C000006800F48070B0B95B48006840F4807037
:1015D00059490860FFF70EFC054606E0FFF70AFCD4
:1015E000401B022801D90320D1E65348006800F4CB
:1015F00080700028F2D000BFA068012808D14B48B5
:101600006830006840F001004849683108601DE01A
:10161000A06805280DD145486830006840F00400F6
:101620004249683108600846006840F001000860DF
:101630000CE03E486830006820F001003B4968310A
:1016400008600846006820F00400086000BFA06839
:10165000A8B1FFF7CFFB054609E0FFF7CBFB401B26
:1016600041F28831884202D9032090E626E02F48D3
:1016700068300068C0F340000028EED013E0FFF7A8
:10168000B9FB054608E0FFF7B5FB401B41F2883186
:10169000884201D903207AE6244868300068C0F304
:1016A00040000028EFD1012E07D1204838300068D3
:1016B00020F080501D493831086000BFA069E8B3B0
:1016C0001A48006800F00C00082862D0A0690228BF
:1016D0004AD1002016490866FFF78CFB054606E054
:1016E000FFF788FB401B022801D903204FE60F4873
:1016F00008380068C0F340600028F1D1D4E9070140
:101700000843616A40EA81110122A06AC2EB5000DD
:1017100041EA00412C20005D41EA00613020005D7B
:1017200041EA00700149091F086008E008380240DA
:1017300000004742800E4742007000402BE001202D
:1017400016490866FFF756FB054606E0FFF752FB11
:10175000401B022801D9032019E611480068C0F394
:1017600040600028F2D016E000200C490866FFF720
:1017700041FB054606E0FFF73DFB401B022801D96F
:10178000032004E606480068C0F340600028F2D158
:1017900001E00120FBE50020F9E5000000004742E0
:1017A000003802407047704710B504460CB901205C
:1017B00010BD94F83D0028B9002084F83C00204674
:1017C00000F00CF8022084F83D00211D206800F094
:1017D00097FB012084F83D000020E9E770470146AF
:1017E0000868C06840F001000B68D860086880682D
:1017F00000F00702062A05D00868006840F00100E2
:101800000B68186000207047704710B504462068C8
:101810000069C0F34000D8B12068C068C0F3400040
:10182000B0B16FF0020021680861012020772068C4
:10183000806900F0030018B12046FFF7E5FF05E0DE
:10184000204600F0ADF8204600F0ABF800202077ED
:1018500020680069C0F38000D8B12068C068C0F378
:101860008000B0B16FF00400216808610220207789
:101870002068806900F4407018B12046FFF7C4FF6B
:1018800005E0204600F08CF8204600F08AF80020A1
:10189000207720680069C0F3C000D8B12068C06814
:1018A000C0F3C000B0B16FF00800216808610420E7
:1018B00020772068C06900F0030018B12046FFF7C8
:1018C000A3FF05E0204600F06BF8204600F069F821
:1018D0000020207720680069C0F30010D8B120688C
:1018E000C068C0F30010B0B16FF01000216808614B
:1018F000082020772068C06900F4407018B12046A5
:10190000FFF782FF05E0204600F04AF8204600F08D
:1019100048F8002020772068006900F0010058B1E5
:101920002068C06800F0010030B16FF0010021684C
:101930000861204600F036F820680069C0F3C01046
:1019400058B12068C068C0F3C01030B16FF080009B
:10195000216808612046FFF725FF20680069C0F371
:10196000801058B12068C068C0F3801030B16FF0AB
:10197000400021680861204600F020F820680069D6
:10198000C0F3401058B12068C068C0F3401030B1B7
:101990006FF02000216808612046FFF704FF10BDAA
:1019A0007047704710B5044603492068884201D14A
:1019B000FFF726FA10BD0000001000407047704786
:1019C0002DE9F0470446206805682068C66820684D
:1019D00047694FF00008C14605F00F08B8F1000F45
:1019E0000AD105F0200038B106F0200020B12046D1
:1019F00000F01CFBBDE8F087B8F1000F72D007F0D3
:101A0000010018B906F4907000286BD005F00100B1
:101A100030B106F4807018B1E06B40F00100E06373
:101A200005F0040030B107F0010018B1E06B40F0A0
:101A30000200E06305F0020030B107F0010018B1C8
:101A4000E06B40F00400E06305F0080048B106F0E8
:101A5000200010B907F0010018B1E06B40F0080059
:101A6000E063E06B70B305F0200028B106F02000C1
:101A700010B1204600F0DAFA20684069C0F38019FE
:101A8000E06B00F0080010B9B9F1000F23D0204638
:101A900000F0ACFA2068406900F04000402816D100
:101AA0002068406920F0400021684861606B50B1B7
:101AB0001748616B0865606BFFF780F810B1606BC9
:101AC000016D88470CE02046FFF779FF08E02046CB
:101AD000FFF775FF04E02046FFF771FF0020E06389
:101AE00088E7FFE705F0800030B106F0800018B10C
:101AF000204600F0E3FC7DE705F0400030B106F041
:101B0000400018B1204600F081FA73E700BF71E78A
:101B1000D91F000810B504460CB9012010BDA069FA
:101B200000B100E000BF94F8390028B9002084F823
:101B30003800204600F028F8242084F83900206876
:101B4000C06820F400502168C860204600F0C2FA46
:101B50002068006920F4904021680861206840698D
:101B600020F02A00216848612068C06840F40050D5
:101B70002168C8600020E063202084F8390084F8E0
:101B80003A000020CAE7000010B586B004461421D0
:101B900001A8FEF7DDFB1F492068884237D100BF4E
:101BA000002000901C48006840F400301A4908608A
:101BB0000846006800F40030009000BF00BF00BF7E
:101BC0000020009014481038006840F001001249CD
:101BD000103908600846006800F00100009000BF5E
:101BE00000BF0C20019002200290002003900320EF
:101BF00004900720059001A90848FEF7F3FF002292
:101C000005212620FFF7A6F92620FFF793F906B055
:101C100010BD000000440040403802400000024077
:101C2000704710B5034693F83900202823D101B13D
:101C30000AB9012010BD00BF93F83800012801D176
:101C40000220F7E7012083F8380000BF19629A8468
:101C5000DA840020D863212083F8390000BF0020F7
:101C600083F8380000BF1868C06840F080001C6826
:101C7000E0600020DEE70220DCE7704700BFFEE7FF
:101C80001FB5002000900190029003901848194958
:101C900008600020486000211648816001610176DB
:101CA00080F82010C162144981620021C1600121C5
:101CB000C161002180F8301001214161FEF736FE3C
:101CC00008B1FEF77EFC0020009001200190052065
:101CD000029069460748FEF777FC08B1FEF771FCF1
:101CE0001921122000F052FC122000F039FC1FBD17
:101CF00000200140A40000200100000F00B587B0C3
:101D0000142102A8FEF724FB00BF00200190204808
:101D1000006840F001001E4908600846006800F0B5
:101D20000100019000BF00BF00BF002001900846E5
:101D3000006840F0040008600846006800F00400F5
:101D4000019000BF00BF002220211248FFF74BF88E
:101D500000224FF4B0711048FFF745F820200290A0
:101D60000120039000200490059002A90948FEF785
:101D700039FF4FF4B07002900120039000200490CE
:101D8000059002A90448FEF72DFF07B000BD000032
:101D900030380240000002400008024010B50F48F1
:101DA0000F4908604FF4E130486000210C48816021
:101DB000C160016108214161002181614FF400414E
:101DC000C161FFF7A7FE08B1FEF7FBFB2D2126201E
:101DD00000F0DCFB262000F0C3FB10BD00440040F7
:101DE000EC00002000BFFEE77047000000BF044881
:101DF000FEF712FE4FF47A7000F01AFDF7E70000CC
:101E0000A400002010B500BF502080F31188BFF35C
:101E10004F8FBFF36F8F00BF02F0D6FB18B14FF0AA
:101E200080500449086000BF002080F3118800BF83
:101E300010BD000004ED00E000B593B0342106A809
:101E4000FEF786FA142101A8FEF782FA00BF0020EF
:101E500000901E48006840F080501C490860084609
:101E6000006800F08050009000BF00BF00BF00205D
:101E700000901748006820F4404040F48040144926
:101E800008600846006800F44040009000BF00BFB2
:101E9000022006900120099010200A9000200C904A
:101EA00006A8FFF73FFA08B1FEF78BFB0F20019061
:101EB00000200290039004900590002101A8FFF7F4
:101EC0009BF808B1FEF77DFB13B000BD403802401F
:101ED000007000400548006840F470000349086045
:101EE0004FF00060014980390860704788ED00E0DC
:101EF00010B50248FFF789FC10BD00002C0100203E
:101F000010B50268294B98420ED0B0F1804F0BD02B
:101F1000274B984208D0274B984205D0264B984231
:101F200002D0264B984203D122F070024B681A432C
:101F30001E4B984220D0B0F1804F1DD01C4B9842D0
:101F40001AD01C4B984217D01B4B984214D01B4BF5
:101F5000984211D01A4B98420ED01A4B98420BD08F
:101F6000194B984208D0194B984205D0184B98420B
:101F700002D0184B984203D122F44072CB681A4326
:101F800022F080034C6943EA040202608B68C3625A
:101F90000B688362054B984202D0084B984201D1EE
:101FA0000B6903630123436110BD00000000014081
:101FB0000004004000080040000C00400004014004
:101FC000004001400044014000480140001800402A
:101FD000001C00400020004070B50546AC6B00209E
:101FE000E085E0842046FFF7EAFC70BD0168C9681F
:101FF00021F490710268D1600168496921F0010102
:1020000002685161202180F83A10704710B50446EB
:102010002068C06820F040002168C860202084F853
:1020200039002046FFF729FE002010BD70B5044698
:1020300094F83A0022284AD1A068B0F5805F13D105
:10204000A56A206940B920684068C0F3080028806C
:10205000A06A801CA06219E020684068C0B2288095
:10206000A06A401CA06211E0206938B9206840686D
:10207000C1B2A26A501CA062117007E020684068DB
:1020800000F07F01A26A501CA0621170E08D401E1A
:1020900080B2E085C8B92068C06820F020002168BF
:1020A000C8602068C06820F480702168C86020681B
:1020B000406920F0010021684861202084F83A003E
:1020C0002046FFF7ADFD002070BD0020FCE7022098
:1020D000FAE700002DE9F84F04462068006920F473
:1020E0004050E1680843216808612169A0680843FD
:1020F00061690843E169084300902068C06849F2BB
:102100000C618843009908432168C86020684069D1
:1021100020F44070A169084321684861E069B0F586
:10212000004F75D1E3492068884203D0E249206816
:1021300088426FD1FFF75AF8814602206168A0FB00
:1021400001510B461920A9FB00712A463846FEF7BB
:10215000B5F86421B0FBF1F04FEA001A0220616883
:10216000A0FB01510B461920A9FB00712A463846F5
:10217000FEF7A4F8074602206168A0FB01510B4658
:102180001920A9FB00B12A465846FEF797F86421AA
:10219000B0FBF1F000EBC00101EB0010A7EB8000F9
:1021A000322101EBC0006421B0FBF1F000F0F80037
:1021B0000AEB400A02206168A0FB01510B4619207E
:1021C000A9FB00712A463846FEF778F80746022038
:1021D0006168A0FB01510B461920A9FB00B12A46FA
:1021E0005846FEF76BF86421B0FBF1F000EBC0013C
:1021F00001EB0010A7EB8000322101EBC00064214D
:10220000B0FBF1F000F007005044216888604FE116
:102210006EE0FFE7FEF7DAFF814602206168A0FB6F
:1022200001510B461920A9FB00712A463846FEF7DA
:1022300045F86421B0FBF1F04FEA001A0220616812
:10224000A0FB01510B461920A9FB00712A46384614
:10225000FEF734F8074602206168A0FB01510B46E7
:102260001920A9FB00B12A465846FEF727F8642139
:10227000B0FBF1F000EBC00101EB0010A7EB800018
:10228000322101EBC0006421B0FBF1F000F0F80056
:102290000AEB400A02206168A0FB01510B4619209D
:1022A000A9FB00712A463846FEF708F807460220C7
:1022B0006168A0FB015003461920A9FB00B12A4622
:1022C0005846FDF7FBFF6421B0FBF1F000EBC001C5
:1022D00001EB0010A7EB8000322101EBC00064216C
:1022E000B0FBF1F000F00700504421688860DFE0A7
:1022F00070492068884203D06F49206888426BD1BA
:10230000FEF774FF814604206168A0FB01510B4673
:102310001920A9FB00712A463846FDF7CFFF8246F7
:1023200004206168A0FB01510B461920A9FB007134
:102330002A463846FDF7C2FF6421B0FBF1F000EBFE
:10234000C00101EB0010AAEB8000322101EB00106C
:102350006421B0FBF1F000F0F00A04206168A0FBFA
:10236000015003461920A9FB00712A463846FDF7A3
:10237000A5FF6421B0FBF1F00AEB001A04206168AC
:10238000A0FB01510B461920A9FB00712A463846D3
:10239000FDF794FF074604206168A0FB0150034647
:1023A0001920A9FB00B12A465846FDF787FF642192
:1023B000B0FBF1F000EBC00101EB0010A7EB8000D7
:1023C000322101EB00106421B0FBF1F000F00F00AE
:1023D0005044216888606BE0FEF7F8FE81460420D7
:1023E0006168A0FB015003461920A9FB00712A4631
:1023F0003846FDF763FF824604206168A0FB015068
:1024000003461920A9FB00712A463846FDF756FFFE
:102410006421B0FBF1F000EBC00101EB0010AAEB6E
:102420008000322101EB00106421B0FBF1F000F0DC
:10243000F00A04206168A0FB015003461920A9FBA3
:1024400000712A463846FDF739FF6421B0FBF1F0F0
:102450000AEB001A04206168A0FB017003461920F2
:10246000A9FB005001463A462846FDF727FF0746DC
:1024700004206168A0FB015003461920A9FB00B1AC
:102480002A465846FDF71AFF6421B0FBF1F000EB35
:10249000C00101EB0010A7EB8000322101EB00101E
:1024A0006421B0FBF1F000F00F0050442168886017
:1024B000BDE8F88F0010014000140140014691F87A
:1024C000390021282CD18868B0F5805F0FD10A6AC5
:1024D0001088C0F308000B685860086918B9086ACA
:1024E000801C086209E0086A401C086205E00B6A6B
:1024F000581C086218780B685860C88C401E80B25F
:10250000C88458B90868C06820F080000B68D8609B
:102510000868C06840F040000B68D8600020704731
:102520000220FCE710B50248FFF74AFA10BD000090
:10253000EC00002000BFFEE70FB4084B10B504A963
:1025400002AA039800F062F8044602A9002000F0F5
:1025500007F9204610BC5DF814FB00006127000855
:10256000002809DB00F01F0201219140420992007E
:1025700002F1E022C2F80011704700000248006832
:10258000C0F30220704700000CED00E010B50028F9
:1025900004DB0A07130E054A135406E00A07140E5B
:1025A000034A00F00F031B1FD45410BD00E400E0E9
:1025B00018ED00E010B5002804DB0A07130E054AE9
:1025C000135406E00A07140E034A00F00F031B1F02
:1025D000D45410BD00E400E018ED00E0EFF31180EA
:1025E0007047EFF305807047EFF31080704702E00B
:1025F00008C8121F08C1002AFAD17047704700208E
:1026000001E001C1121F002AFBD170472DE9FF4FE5
:1026100089B09B460446002506E025280BD05A4683
:102620000B999047641C6D1C20780028F5D10DB0E3
:102630002846BDE8F08F0027B8460122474900E050
:10264000074314F8013F203B02FA03F00842F7D198
:1026500020782E2819D114F8010F47F004072A28F2
:102660000ED06FF02F022078A0F1300109290CD88C
:1026700008EB880102EB410100EB0108641CF2E762
:102680000A98641C50F8048B0A9020780028CED059
:10269000642808D0692806D075281ED05A460B99A0
:1026A00090476D1C58E00A994FF00A0901C90A9138
:1026B000002802DA40422D2102E0390504D52B2101
:1026C0008DF82010012103E0F90704D02021F7E75D
:1026D0008A4608AE0DE00021FAE70A994FF00A0990
:1026E00001C90A91F7E74946FDF744FE303106F883
:1026F000011D0028F7D1ADEB060000F12009780795
:1027000001D44FF00108C84502DDA8EB090000E044
:1027100000208046002706E008A85A46C05D0B99B5
:1027200090476D1C7F1C5745F6DB04E030205A466D
:102730000B9990476D1CB8F10001A8F10108F5DC78
:1027400005E016F8010B5A460B9990476D1CB9F13C
:102750000001A9F10109F4DC641C65E70928010006
:102760000A68531C0B6010707047000001210120A3
:10277000094A12680AB100200CE0084A12680AB13E
:10278000002007E0064A1368064A1268521E934268
:1027900000D10220704700003406002044000020D1
:1027A0005C06002030000020FEF736FBFFF744FBFC
:1027B000FFF7A4FAFFF7F2FAFFF762FA00F054F815
:1027C0000F4A00210F4800F093F80F4908600F4AA4
:1027D00000210F4800F08CF80E4908600E4A0021D5
:1027E0000E4800F085F80E4908600E4A00210E4898
:1027F00000F07EF80D49086000F056F800BFFEE7D3
:102800004C4A00087505000800000020704A0008C6
:102810008D05000804000020944A0008A505000862
:1028200008000020B84A0008ED1D00080C00002038
:1028300070B50546FFF7D5FE48B9FFF7D5FE10B9CC
:10284000FFF7CCFE30B107480068022802D16FF0D4
:10285000050404E0002415B1284601F00DF92046D6
:1028600070BD00007000002010B5FFF7BAFE48B937
:10287000FFF7BAFE10B9FFF7B1FE30B109480068A2
:10288000022802D16FF0050409E00648006820B96B
:10289000012004490860002401E04FF0FF34204685
:1028A00010BD00007000002010B5FFF79AFE48B977
:1028B000FFF79AFE10B9FFF791FE30B10B480068A0
:1028C000022802D16FF005040EE0084800680128D4
:1028D00008D100BF00BF02200449086001F048F998
:1028E000002401E04FF0FF34204610BD70000020AE
:1028F0002DE9FF4780468946144600200390FFF7E4
:1029000070FE00285AD1FFF76FFE10B9FFF766FE80
:1029100018B12B480068022850D0B8F1000F4DD0F4
:10292000802618254FF0000A4FF0FF3744B3206887
:1029300008B1D4F800A0A06900B1A5692DB1382D67
:1029400003D8207900F0010018B1002004B0BDE8E0
:10295000F087606908B160698608A06840B1E068E6
:102960005C2805D3206918B1606908B1012708E027
:10297000A06830B9E06820B9206910B9002700E0EC
:102980000027012F0CD12169A0684B463246CDE9C2
:10299000005102905146404601F0A2FD03900DE027
:1029A00067B903A8B2B24B465146CDE90050404644
:1029B00001F064FD012801D0002003900398C5E7D1
:1029C000700000202DE9F04105460E4616480768C4
:1029D00016480068001D00F009FE681C38B936B1C1
:1029E00012480168091D124800F056FE1AE07C19D1
:1029F0000E4800684460BC4207D20C480168091DBB
:102A00000C48006800F02EFE0CE008480168091D23
:102A10000948006800F026FE08480068844201D298
:102A200006480460BDE8F08134000020200000204A
:102A30005C06002028000020240000205000002018
:102A400010B5044600F034FE24480068401C2349B9
:102A500008602348006840B92148046008460068BF
:102A600001280DD100F04AFA0AE01E48006838B982
:102A70001B480068C06AE16A884201D818480460AF
:102A800019480068401C18490860084600686064DE
:102A90001649E06A0968884202D91449E06A086068
:102AA000E16A01EB8101124A02EB8100211D00F075
:102AB000F3FD00F027FE0B48006868B10848006885
:102AC000C06AE16A884207D24FF080500949086025
:102AD000BFF34F8FBFF36F8F10BD00003000002099
:102AE000200000203C0000204C0000203800002086
:102AF000AC01002004ED00E008B500F0D9FD12485B
:102B00000068E8B9114800F09DFD114800F09AFDF9
:102B10000E48104908600E480F49086000200F4B0E
:102B20000F4A102100900A2001F0A2F9064908601E
:102B30000846006820B10BA10348006800F060FF60
:102B400000F0E0FD08BD00006400002070060020D9
:102B5000840600205C000020600000209806002011
:102B6000E8060020546D72510000000010B516E018
:102B700000F09EFD0C48C068C468201D00F036FDC2
:102B80000A480068401E0949086009480068401E5C
:102B90000749086000F0B6FD204600F05FF80448E1
:102BA00000680028E4D110BD480600203000002055
:102BB0002C00002070B504460D46206C70B1216CCD
:102BC000E0680144E160D4E90210884201D3216841
:102BD000E1602846226CE168FDF7A1FB70BD2DE99C
:102BE000F04104460F4615464FF00008A66B206CD6
:102BF00048B9206800282CD1A06801F087FD8046E4
:102C00000020A06025E07DB93946226C6068FDF7A0
:102C100086FB216C606808446060D4E90101884249
:102C200017D32068606014E03946226CE068FDF735
:102C300076FB216CE068411AE1602168E068884217
:102C400003D2216CA068411AE160022D01D106B1C6
:102C5000761E701CA0634046BDE8F08110B50446A6
:102C600094F8590030B9206B00F06AFD204600F05E
:102C700067FD1AE094F85900012803D1204600F0BE
:102C80005FFD12E094F85900022801D1012000E014
:102C9000002050B900BF502080F31188BFF34F8F40
:102CA000BFF36F8F00BF00BFFEE710BD00210C4ACD
:102CB000126802B101210B4A1268D26A0AB10020DF
:102CC0000DE0094A1268012A01D9002007E009B184
:102CD000002004E0054A1268054B1B68D01A7047B3
:102CE0003800002020000020AC010020500000200F
:102CF000340000200146084A126812680AB901220D
:102D000000E000220A600A6822B9034A1268D26809
:102D1000106800E0002070475C00002030B54FF4E0
:102D20007053174800F007042CB1C01D20F00700B5
:102D3000134C041B1B1B0246124C22600024114D35
:102D40006C60D018083820F007000F4C2060002479
:102D50000D4D2D686C600C4D2D682C601146441A89
:102D60004C60094C24680C60084D4C682C60084D80
:102D70004C682C604FF00044064D2C6030BD0000C4
:102D8000400E0020740000207C0000208400002001
:102D9000800000208800002000BFFFF7E7FE1948F0
:102DA0000068012807D94FF0805017490860BFF329
:102DB0004F8FBFF36F8FFFF779FF0446022C20D3AC
:102DC00000F052FF1148006811490968884201D398
:102DD000012000E0002050B900BF502080F311888E
:102DE000BFF34F8FBFF36F8F00BF00BFFEE7FFF74A
:102DF0005DFF0446022C02D3204600F01FFD01F0C7
:102E000025FDCAE7AC01002004ED00E050000020E1
:102E1000340000202DE9F04106460D46174698463D
:102E2000069C0DB9246000E02760E663256401215B
:102E3000204601F08DF884F84C80BDE8F0812DE942
:102E4000F05F82460E4690469B460A9F0C9C4FEAD6
:102E50008801A522206BFDF774FAA8F10100216B0F
:102E600001EB800929F0070909F0070008B90120E2
:102E700000E0002050B900BF502080F31188BFF35C
:102E80004F8FBFF36F8F00BF00BFFEE786B10025F5
:102E900007E0715D04F134004155705D00B902E056
:102EA0006D1C102DF5D300BF00214320015502E019
:102EB000002084F83400382F00D33727E762E76416
:102EC00000202065201D00F0CAFB04F1180000F06E
:102ED000C6FB2461C7F13800A06164620020606510
:102EE00084F858005A465146484600F069FB206075
:102EF0000B9808B10B980460BDE8F09F10B5002452
:102F000007E004EB84010F4A02EB810000F09AFB1A
:102F1000641C382CF5D30C4800F094FB0B4800F0EF
:102F200091FB0B4800F08EFB0A4800F08BFB0A482F
:102F300000F088FB04480949086004480849086013
:102F400010BD0000AC0100200C060020200600206F
:102F500034060020480600205C06002024000020E3
:102F60002800002010B50146164800E000680368FC
:102F70008B42FBD30246436813448B4204D143681F
:102F80004C682344436001460A464B681344046876
:102F9000A34211D10C4C03682468A34208D04B68AB
:102FA0000468646823444B6003681B680B6005E099
:102FB000054B1B680B6001E003680B60884200D082
:102FC000016010BD740000207C0000202DE9F0415C
:102FD00004460D4616461F464FF000086560246102
:102FE000B5420CD8F01BA169884202D34FF001080A
:102FF00011E0211D0948006800F034FB0BE0BE42DF
:1030000004D2BD4202D34FF0010804E0211D044860
:10301000006800F027FB4046BDE8F081600000201A
:103020005C00002070B5054600F042FBA86B08B9B3
:10303000012400E0002400F065FB204670BD70B55F
:10304000054600F035FBA86BE96B884201D10124ED
:1030500000E0002400F056FB204670BDF8B50546A0
:103060000F461A480068C068C468201D00F0BEFA08
:1030700094F8280000F00400E8B1A06941192B463B
:103080003A462046FFF7A2FFD8B1002003462A4661
:1030900001460090204601F097FC064656B900BF55
:1030A000502080F31188BFF34F8FBFF36F8F00BFA5
:1030B00000BFFEE705E094F8280020F0010084F846
:1030C00028002046216A8847F8BD00005C000020E7
:1030D000F0B587B0A0E00398002811DA04AE56B925
:1030E00000BF502080F31188BFF34F8FBFF36F8F65
:1030F00000BF00BFFEE7D6E90020B168904700BFDF
:1031000003980028E6DB059C606908B9012000E00F
:10311000002010B9201D00F069FA02A800F0DEF8C6
:10312000054603980A2875D2DFE800F0090507393B
:10313000416306083A4200BF00BF00BF00BF94F8D9
:10314000280040F0010084F828000498A269811842
:1031500003462A462046FFF739FFF8B12046216A88
:10316000884794F8280000F00400B8B100200090CF
:103170000498A169421800231946204601F024FC56
:10318000074657B900BF502080F31188BFF34F8F17
:10319000BFF36F8F00BF00BFFEE700BF3BE000BF83
:1031A00094F8280020F0010084F8280033E000BFE4
:1031B00094F8280040F0010084F828000498A061E9
:1031C000A06908B1012000E0002050B900BF5020E4
:1031D00080F31188BFF34F8FBFF36F8F00BF00BF25
:1031E000FEE7A06941192B462A462046FFF7EEFE6E
:1031F00011E094F8280000F0020018B9204600F011
:103200009FFA05E094F8280020F0010084F82800D7
:1032100001E0FFE700BF00BF002203A904480068E7
:1032200001F032F800287FF456AF07B0F0BD00007F
:1032300064000020F8B505460C4600F015FD684610
:1032400000F04CF80646009820BB44B9B54206D8B9
:1032500001F0FCFA31462846FFF700FF1CE03CB1C4
:103260000E480068006808B9012000E0002004460C
:10327000A91B22460A48006800F0D8FB01F0E6FAD4
:1032800050B94FF0805007490860BFF34F8FBFF32C
:103290006F8F01E001F0DAFAF8BD00006000002055
:1032A0006400002004ED00E00A490968096809B9D2
:1032B000012100E0002121B14FF0FF31064A1160E9
:1032C00006E004490968C968C868034A4168116092
:1032D00070470000240000205000002070B5044614
:1032E00001F06CF9054607480068854204D200F0F9
:1032F0000BF80120206001E00020206001480560FB
:10330000284670BD6C0000202DE9F84334E02548C4
:103310000068C068056823480068C068C468201D4C
:1033200000F064F92046216A884794F8280000F0EC
:10333000040008B3A0694619AE4207D9666024614B
:10334000211D1848006800F08DF915E000200346A3
:103350002A4601460090204601F036FB074657B941
:1033600000BF502080F31188BFF34F8FBFF36F8FE2
:1033700000BF00BFFEE700BF0A480068006808B948
:10338000012000E000200028C1D00648D0F80080CD
:1033900005480068034908600348C0F80080BDE89C
:1033A000F88300005C000020600000200E480068E8
:1033B000401C08B9012000E0002050B900BF502097
:1033C00080F31188BFF34F8FBFF36F8F00BF00BF33
:1033D000FEE700BF502080F31188BFF34F8FBFF38B
:1033E0006F8F00BF00BFFEE78C00002008B500BF54
:1033F0006846FFF77FFC044620460099FFF71AFF56
:10340000FFF766FEF4E770B5044600F051F994F951
:10341000455010E0606A08B9012000E0002038B98A
:1034200004F1240001F0C4F918B100F05FFB00E0E2
:1034300003E0681E45B2002DECDC00BFFF2084F8DD
:10344000450000F05FF900F033F994F9445010E0C2
:10345000206908B9012000E0002048B904F11000FB
:1034600001F0A6F908B100F041FB681E45B200E08A
:1034700001E0002DECDC00BFFF2084F8440000F0E8
:1034800041F970BD2DE9F04104464FF0000800F00D
:10349000EBFB4648006808B9FFF740FC4448006869
:1034A000204000286BD1D4B1083404F00700B0B13B
:1034B00004F00700C0F10800044404F0070008B954
:1034C000012000E0002050B900BF502080F3118897
:1034D000BFF34F8FBFF36F8F00BF00BFFEE7002C1D
:1034E0004DD034480068844249D8334E3046056890
:1034F00001E02E462D686868A04202D228680028A4
:10350000F7D12A480068854239D0306800F10808B0
:10351000286830606868001B102819D92F1907F037
:10352000070008B9012000E0002050B900BF50207A
:1035300080F31188BFF34F8FBFF36F8F00BF00BFC1
:10354000FEE76868001B78606C603846FFF70AFD8C
:10355000184968680968081A16490860084600682A
:1035600016490968884203D2124800681349086066
:103570000F4968680968084368600020286001F006
:1035800065F908F0070008B9012000E0002050B9F3
:1035900000BF502080F31188BFF34F8FBFF36F8FB0
:1035A00000BF00BFFEE74046BDE8F0817C00002080
:1035B000880000208000002074000020840000208B
:1035C000001F4FF080730360001F21F001030360B0
:1035D000001F054B036014380260001F6FF00203E8
:1035E0000360203870470000AD33000801460A69C7
:1035F000D1E901309860D1E90103586050688842F0
:1036000001D188685060002008611068401E106079
:1036100010687047034B0360034B0B6080231360FB
:103620007047000088070020E4070020034B036078
:10363000034B0B604FF4807313607047E409002064
:10364000400A002000F1080141604FF0FF31816025
:1036500000F10801C1600161002101607047002193
:103660000161704710B502460B685C1C0CB910690B
:1036700007E002F1080000E04068446824689C42CA
:10368000FAD944684C604C68A160886041600A6166
:103690001468641C146010BD42684A6093688B60B3
:1036A000936859609160086103685B1C0360704710
:1036B00000BF502080F31188BFF34F8FBFF36F8F8F
:1036C00000BF0E480068401C0C49086008460068AE
:1036D000012812D10A480068C0B208B9012000E0F0
:1036E000002050B900BF502080F31188BFF34F8FE6
:1036F000BFF36F8F00BF00BFFEE770478C00002054
:1037000004ED00E00D48006850B900BF502080F380
:103710001188BFF34F8FBFF36F8F00BF00BFFEE76D
:1037200006480068401E054908600846006820B940
:10373000002080F3118800BF00BF70478C0000207C
:1037400070B506463546002E3FD0083D2C461F4931
:1037500060680968084008B1012000E0002050B905
:1037600000BF502080F31188BFF34F8FBFF36F8FDE
:1037700000BF00BFFEE7206808B9012000E000207C
:1037800050B900BF502080F31188BFF34F8FBFF3B3
:103790006F8F00BF00BFFEE70C49606809680840F2
:1037A00098B1206888B909496068096888436060F1
:1037B00000F05AFA0649606809680844044908603C
:1037C0002046FFF7CFFB01F041F870BD88000020D4
:1037D00080000020154800684FF47A71B0FBF1F0CA
:1037E00013490860084600686FF07F41B1FBF0F0B4
:1037F000104908600D480068B0FBF0F02D21B1FBC6
:10380000F0F00D49086000204FF0E0210861886168
:10381000064800684FF47A71B0FBF1F0401E4FF09B
:10382000E021486107200861704700001C0000206B
:103830009000002094000020980000202DE9F04125
:1038400004464E480068844201D94C4804684FF051
:10385000E020006920F001004FF0E02108610846F7
:103860008169601E464A126802FB001545480068DF
:10387000854202D9434800682D1A72B6BFF34F8FB4
:10388000BFF36F8FFEF772FF80B94FF0E0208069C1
:103890004FF0E02148610846006940F001000861EE
:1038A00037480068401E486162B665E04FF0E0208E
:1038B000456100204FF0E02188610846006940F032
:1038C00001000861A046B8F1000F04D0BFF34F8F8C
:1038D00030BFBFF36F8F62B6BFF34F8FBFF36F8FF1
:1038E00072B6BFF34F8FBFF36F8F06204FF0E0210A
:1038F00008610846006900F48030B8B120490968C1
:10390000491E4FF0E0229269AA1A881A1D490968D7
:10391000884203D31A490968884202D918490968BC
:10392000481E4FF0E0214861661E12E0144800680E
:1039300060434FF0E0218969471A11480068B7FBDE
:10394000F0F6701C0E4909684843C01B4FF0E02197
:10395000486100204FF0E02188610846006940F08E
:1039600001000861304600F05FF905480068401E1C
:103970004FF0E021486162B6BDE8F081940000207C
:10398000900000209800002070B5FCF781FC0446F0
:10399000102C16D304F1E02090F8F053154800786D
:1039A000854201DB012000E0002050B900BF50201B
:1039B00080F31188BFF34F8FBFF36F8F00BF00BF3D
:1039C000FEE70D48006800F4E0600C490968884291
:1039D00001D8012000E0002050B900BF502080F342
:1039E0001188BFF34F8FBFF36F8F00BF00BFFEE79B
:1039F00070BD00009C0000200CED00E0A000002045
:103A0000024600200BE0084B53F8303033B9064B28
:103A100043F8301003EBC0035A6002E0401C082852
:103A2000F1D300BF704700006C0100202DE9F04188
:103A300005460E4617462C46FFF73AFE94F9440019
:103A4000401C10B9002084F8440094F94500401C43
:103A500010B9002084F84500FFF754FEA06B28B988
:103A60003A46314604F1240000F062F82046FFF7A0
:103A7000CAFCBDE8F081000070B504460025D4B151
:103A80001248006808B9012000E0002050B900BFCA
:103A9000502080F31188BFF34F8FBFF36F8F00BFAB
:103AA00000BFFEE700F0E0F800212046FEF78AFFA5
:103AB00000F0CCFE05463DB94FF080500449086047
:103AC000BFF34F8FBFF36F8F70BD00005800002011
:103AD00004ED00E003490968016003490968416099
:103AE00070470000480000203400002001200149F8
:103AF000086070474400002070B504460D4654B974
:103B000000BF502080F31188BFF34F8FBFF36F8F3A
:103B100000BF00BFFEE70548016818312046FFF7E7
:103B2000A1FD01212846FEF74DFF70BD20000020B9
:103B300070B505460E46144655B900BF502080F3B7
:103B40001188BFF34F8FBFF36F8F00BF00BFFEE739
:103B50000648016818312846FFF79EFD0CB14FF06A
:103B6000FF3621463046FEF72DFF70BD20000020B5
:103B700010B586B000200590049003AA04A905A8FA
:103B8000FFF748FD0022DDE904101346CDE90021CE
:103B900002901EA11F48039A00F0A2FC1E49086073
:103BA0000846006808B1012400E00024012C02D17D
:103BB00000F0CEFE0446012C15D100BF502080F34A
:103BC0001188BFF34F8FBFF36F8F00BF4FF0FF30EF
:103BD000124908600120124908600020114908605C
:103BE00000F092F810E0601C08B1012000E0002015
:103BF00050B900BF502080F31188BFF34F8FBFF33F
:103C00006F8F00BF00BFFEE706B010BD49444C45B2
:103C100000000000992D00085400002050000020F2
:103C20003C000020340000200D49096801440D4A81
:103C30001268914201D8012100E0002151B900BF72
:103C4000502181F31188BFF34F8FBFF36F8F00BFF7
:103C500000BFFEE7024909680144014A116070474C
:103C6000340000205000002002480068401C014938
:103C700008607047580000201E48006818B10120F5
:103C80001D49086034E000201B4908601B4801689A
:103C90000CE051B900BF502080F31188BFF34F8F63
:103CA000BFF36F8F00BF00BFFEE7491E01EB81002D
:103CB000134A52F8200008B9012000E00020002833
:103CC000E7D101EB81020E4B03EB820042685268A0
:103CD000426000F108024368934202D14268526890
:103CE00042604268D268074B1A600448016000BF16
:103CF00070470000580000204400002038000020D9
:103D0000AC010020200000201CB552480068524938
:103D1000884201D0012000E0002050B900BF5020AF
:103D200080F31188BFF34F8FBFF36F8F00BF00BFC9
:103D3000FEE7484800684849491E884201D00120F2
:103D400000E0002050B900BF502080F31188BFF37D
:103D50004F8FBFF36F8F00BF00BFFEE73F4908469C
:103D600000780190FF200A46107008460078009005
:103D70009DF8000000F0F0009DF80020904201D175
:103D8000012000E0002050B900BF502080F31188CE
:103D9000BFF34F8FBFF36F8F00BF00BFFEE79DF8EB
:103DA000000000F050002E4A107007202D4A1060CD
:103DB00009E02C480068401E2A4A10609DF8000067
:103DC0004006000E00909DF8000000F08000802862
:103DD000EFD024480068C0F10700042801D1012079
:103DE00000E0002050B900BF502080F31188BFF3DD
:103DF0004F8FBFF36F8F00BF00BFFEE71948006809
:103E00000002184A10601046008800F4E06010605C
:103E1000124A019810700F482030006840F470007A
:103E20000C49203108600846006840F07040086086
:103E3000FFF7D0FC00200C490860FCF7F1F90B48B3
:103E4000006840F0404009490860FCF7D5F90020BF
:103E50001CBD000000ED00E071C20F4100E400E075
:103E60009C000020A00000208C00002034EF00E027
:103E70002DE9F84380460E4617461D46DDF8209092
:103E8000B8F1000F01D0012000E0002050B900BFC0
:103E9000502080F31188BFF34F8FBFF36F8F00BFA7
:103EA00000BFFEE70DB1012000E0002050B900BFC7
:103EB000502080F31188BFF34F8FBFF36F8F00BF87
:103EC00000BFFEE707B10EB1012000E0002050B9AD
:103ED00000BF502080F31188BFF34F8FBFF36F8F67
:103EE00000BF00BFFEE707B90EB9012000E00020C7
:103EF00050B900BF502080F31188BFF34F8FBFF33C
:103F00006F8F00BF00BFFEE7502000900098502840
:103F100001D1012000E0002050B900BF502080F303
:103F20001188BFF34F8FBFF36F8F00BF00BFFEE755
:103F300000BF2C464CB1012084F846004B463A465F
:103F4000314640460094FEF765FF2046BDE8F88301
:103F500070B505460E462C4654B900BF502080F37C
:103F60001188BFF34F8FBFF36F8F00BF00BFFEE715
:103F7000FFF79EFBD4E90F12206801FB0200A0604E
:103F80000020A06320686060E06B401E226C216806
:103F900000FB0211E160FF2084F8440084F8450032
:103FA0009EB9206908B9012000E00020A8B904F1F9
:103FB000100000F0FDFB80B14FF08050094908600F
:103FC000BFF34F8FBFF36F8F07E004F11000FFF7CF
:103FD00039FB04F12400FFF735FBFFF793FB0120C9
:103FE00070BD000004ED00E02DE9FF4383B00646FC
:103FF00088461D464FF00009344654B900BF502092
:1040000080F31188BFF34F8FBFF36F8F00BF00BFE6
:10401000FEE7B8F1000F01D1206C08B9012000E0E3
:10402000002050B900BF502080F31188BFF34F8F9C
:10403000BFF36F8F00BF00BFFEE7022D02D1E06B20
:10404000012801D1012000E0002050B900BF50201C
:1040500080F31188BFF34F8FBFF36F8F00BF00BF96
:10406000FEE700F09BFA08B9059808B9012000E0C6
:10407000002050B900BF502080F31188BFF34F8F4C
:10408000BFF36F8F00BF00BFFEE700BFFFF710FB5D
:10409000A06BE16B884201D3022D28D12A4641460C
:1040A0002046FEF79CFD0746606A08B9012000E043
:1040B000002068B904F1240000F07AFB88B14FF0C9
:1040C000805032490860BFF34F8FBFF36F8F08E015
:1040D0003FB14FF080502D490860BFF34F8FBFF3C1
:1040E0006F8FFFF70FFB012007B0BDE8F083059845
:1040F00018B9FFF707FB0020F6E7B9F1000F04D16C
:1041000001A8FFF7E7FC4FF00109FFF7FBFAFFF703
:10411000ABFDFFF7CDFA94F94400401C10B9002024
:1041200084F8440094F94500401C10B9002084F83C
:104130004500FFF7E7FA05A901A800F059F9F0B921
:104140002046FEF77CFFA0B104F110000599FFF7AF
:10415000D3FC2046FFF757F900F078FB002895D1F3
:104160004FF0805009490860BFF34F8FBFF36F8F46
:104170008CE72046FFF747F900F068FB86E720460A
:10418000FFF741F900F062FB0020ADE704ED00E02D
:104190002DE9F05F07468A4690461E463C4654B9D4
:1041A00000BF502080F31188BFF34F8FBFF36F8F94
:1041B00000BF00BFFEE7BAF1000F01D1206C08B9C3
:1041C000012000E0002050B900BF502080F311888A
:1041D000BFF34F8FBFF36F8F00BF00BFFEE7022E0C
:1041E00002D1E06B012801D1012000E0002050B98C
:1041F00000BF502080F31188BFF34F8FBFF36F8F44
:1042000000BF00BFFEE7FFF7BFFB00BF5021EFF389
:10421000118081F31188BFF34F8FBFF36F8F00BF01
:104220000546A06BE16B884201D3022E23D194F99D
:1042300045B0324651462046FEF7D1FC0BF1010055
:1042400088B9606A08B9012000E0002080B904F153
:10425000240000F0ADFA58B1B8F1000F08D00120E9
:10426000C8F8000004E00BF1010040B284F84500FA
:104270004FF0010901E04FF0000900BF85F31188FC
:1042800000BF4846BDE8F09F2DE9F74183B00546E1
:104290000E464FF000082C4654B900BF502080F362
:1042A0001188BFF34F8FBFF36F8F00BF00BFFEE7D2
:1042B0000EB9206C08B9012000E0002050B900BF01
:1042C000502080F31188BFF34F8FBFF36F8F00BF73
:1042D00000BFFEE700F062F908B9059808B90120AF
:1042E00000E0002050B900BF502080F31188BFF3D8
:1042F0004F8FBFF36F8F00BF00BFFEE700BFFFF718
:10430000D7F9A76BF7B131462046FEF753FC781E6C
:10431000A063206908B9012000E0002060B904F121
:10432000100000F045FA38B14FF080502F49086076
:10433000BFF34F8FBFF36F8FFFF7E4F9012006B093
:10434000BDE8F081059818B9FFF7DCF90020F6E721
:10435000B8F1000F04D101A8FFF7BCFB4FF0010832
:10436000FFF7D0F9FFF780FCFFF7A2F994F94400BA
:10437000401C10B9002084F8440094F94500401C0A
:1043800010B9002084F84500FFF7BCF905A901A881
:1043900000F02EF8F0B92046FEF744FEA0B104F17B
:1043A00024000599FFF7A8FB2046FFF72CF800F042
:1043B0004DFA0028A3D14FF080500C490860BFF39C
:1043C0004F8FBFF36F8F9AE72046FFF71CF800F07E
:1043D0003DFA94E72046FFF716F800F037FA20463A
:1043E000FEF720FE00288AD00020A8E704ED00E0B8
:1043F00070B505460C4655B900BF502080F31188B2
:10440000BFF34F8FBFF36F8F00BF00BFFEE754B9FC
:1044100000BF502080F31188BFF34F8FBFF36F8F21
:1044200000BF00BFFEE7FFF743F912480268686863
:10443000131A2068401C08B9002617E00E492868A6
:104440000968884204D06868904201D801260DE0CE
:104450002068984207D92068C01A20602846FFF7D4
:1044600039FB002602E0002020600126FFF74AF910
:10447000304670BD34000020480000202DE9FF4F79
:1044800085B0804689461746DDE912ABB800FEF7D5
:10449000F9FF064656B15C20FEF7F4FF04460CB166
:1044A000266304E03046FFF74BF900E000248CB1AE
:1044B000002084F85900CDE900ABCDE902403A462E
:1044C00049464046089BFEF7BAFC2046FEF7B8FA7C
:1044D000012501E04FF0FF35284609B0BDE8F08F17
:1044E0002DE9F04F85B00746884691469A46DDE9AA
:1044F0000EB6109C0EB1012000E0002050B900BFA4
:10450000502080F31188BFF34F8FBFF36F8F00BF30
:1045100000BFFEE70CB1012000E0002050B900BF51
:10452000502080F31188BFF34F8FBFF36F8F00BF10
:1045300000BFFEE75C20039003985C2801D10120B6
:1045400000E0002050B900BF502080F31188BFF375
:104550004F8FBFF36F8F00BF00BFFEE700BFB4B146
:10456000AEB125462C462E63022085F85900002066
:1045700004A953464A46CDE900B1CDE9025041466F
:104580003846FEF75CFC2846FEF75AFA01E00020A8
:104590000490049805B0BDE8F08F00000549096853
:1045A00009B9012005E00449096809B9022000E0C1
:1045B000002070473C000020580000200149086896
:1045C00070470000340000202DE9F0414FF0000852
:1045D00043480068002876D142480068451C41489D
:1045E000056015BB40480068006808B9012000E07C
:1045F000002050B900BF502080F31188BFF34F8FC7
:10460000BFF36F8F00BF00BFFEE73748076837482A
:104610000068354908603548076035480068401C27
:1046200033490860FEF740FE00BF3248006885420B
:104630003BD300BF2C480068006808B9012000E0A7
:10464000002020B14FF0FF302A4908602CE02648B6
:104650000068C068C4686668B54202D22548066032
:1046600022E0201DFEF7C2FFA06A18B104F1180075
:10467000FEF7BCFF2049E06A0968884202D91E495A
:10468000E06A0860E16A01EB81011C4A02EB8100EB
:10469000211DFFF701F81A49E06A0968C96A8842D2
:1046A000C8D34FF00108C5E700BF15480068C06ACD
:1046B00000EB8000114951F82000012801D94FF08A
:1046C000010805E0FFE70F480068401C0D4908603D
:1046D0000D48006808B14FF001084046BDE8F08180
:1046E0005800002034000020240000202800002072
:1046F000480000205000002038000020AC010020BD
:1047000020000020400000204400002070B5054635
:104710002C460026002D43D022480068844201D157
:10472000012000E0002050B900BF502080F3118824
:10473000BFF34F8FBFF36F8F00BF00BFFEE7206D49
:1047400050B900BF502080F31188BFF34F8FBFF3E3
:104750006F8F00BF00BFFEE7206D401E2065E16C3B
:10476000E06A88421CD0206DD0B9201DFEF73EFFC4
:10477000E06CE062E06AC0F13800A0610A49E06ADA
:104780000968884202D90849E06A0860E16A01EBD9
:104790008101064A02EB8100211DFEF77DFF012603
:1047A000304670BD2000002038000020AC01002001
:1047B00070B50646F068C46854B900BF502080F355
:1047C0001188BFF34F8FBFF36F8F00BF00BFFEE7AD
:1047D00004F11800FEF70AFF16480068B0B9201D62
:1047E000FEF704FF1449E06A0968884202D91249B9
:1047F000E06A0860E16A01EB8101104A02EB810086
:10480000211DFEF749FFFEF74FFD04E004F11801FA
:104810000B48FEF741FF0B49E06A0968C96A884204
:1048200004D9012501200849086000E00025284638
:1048300070BD00005800002038000020AC010020AE
:1048400034060020200000204400002070B5002421
:1048500000263648006850B900BF502080F3118808
:10486000BFF34F8FBFF36F8F00BF00BFFEE7FEF7B0
:104870001FFF2E480068401E2C490860084600684B
:1048800000284ED12A48006800284AD023E0294851
:10489000C068C46804F11800FEF7A8FE201DFEF7EA
:1048A000A5FE2549E06A0968884202D92249E06AE2
:1048B0000860E16A01EB8101204A02EB8100211DC1
:1048C000FEF7EAFE1E49E06A0968C96A884202D317
:1048D00001201C4908601748006808B9012000E061
:1048E00000200028D3D00CB1FEF7DEFC1648056886
:1048F00065B100BFFFF768FE10B1012011490860E3
:104900006D1E002DF6D100200F4908600D4800688B
:1049100038B1012630070D490860BFF34F8FBFF350
:104920006F8FFEF7EFFE304670BD0000580000208C
:10493000300000203406002038000020AC010020A8
:1049400020000020440000204000002004ED00E092
:1049500010B586B00024FEF7CFF816480068D0B135
:1049600000200590049003AA04A905A8FEF75EFEA6
:104970000222DDE904100023CDE9002102900EA1FE
:104980000F48039AFFF7ACFD0E490860084600681F
:1049900000B1012400BF54B900BF502080F311883A
:1049A000BFF34F8FBFF36F8F00BF00BFFEE72046FE
:1049B00006B010BD64000020546D72205376630071
:1049C000ED330008680000202DE9FF4704460D463E
:1049D00016461F46DDF830804FF0000954B900BF7D
:1049E000502080F31188BFF34F8FBFF36F8F00BF4C
:1049F00000BFFEE71448006810B3009501960294CA
:104A0000062D15DAFFF7CAFD022808D10023424619
:104A100069460D480068FFF7E7FA814610E0002379
:104A20001A46694608480068FFF7DEFA814607E043
:104A300000233A46694604480068FFF7A9FB81460F
:104A4000484604B0BDE8F08764000020F44A00083E
:104A50000000000000000000000000000000000056
:104A6000000200001800000000000000000000002C
:104A7000004B0008000000000000000000000000E3
:104A8000000000000002000017000000000000000D
:104A9000000000000C4B00080000000000000000B7
:104AA00000000000000000000002000016000000EE
:104AB0000000000000000000184B0008000000008B
:104AC00000000000000000000000000000020000E4
:104AD00021000000000000000000000000000000B5
:104AE000000000000102030406070809000000009E
:104AF00001020304426C696E6B4C45445F30310027
:104B0000426C696E6B4C45445F303200426C696E9A
:104B10006B4C45445F3033004144435F52656164F0
:104B200000000000444B000800000020A40000002A
:104B3000EE250008E84B0008A40000209C4D000072
:104B4000FE2500080000000000000000000000003A
:104B50000000000000000000100000000100000044
:104B60000024F4000000000000000000000000002D
:104B70000000000000000000000000000000000035
:104B80000000000000000000000000000000000025
:104B90000000000000000000000000000000000015
:104BA0000000000000000000000000000000000005
:104BB00000000000000000000000000000000000F5
:104BC00000000000000000000000000000000000E5
:104BD000AAAAAAAA0000000000000000000000002D
:084BE0000000000000000000CD
:04000005080001C529
:00000001FF
