:020000040800F2
:100000004052002099020008DD3F0008B12F00088F
:10001000D93F00080D060008F94D00080000000057
:10002000000000000000000000000000D9010008EE
:10003000C70800080000000035020008A5460008B7
:10004000B3020008B3020008B3020008B3020008BC
:10005000B3020008B3020008B3020008B3020008AC
:10006000B3020008B3020008B3020008B30200089C
:10007000B3020008B3020008B3020008110600082A
:10008000B3020008B3020008B3020008B30200087C
:10009000B3020008B3020008B3020008B30200086C
:1000A000B3020008B3020008B3020008B30200085C
:1000B000B3020008B3020008B3020008C52F00080D
:1000C000B52F0008B3020008B3020008B30200080D
:1000D000D5400008B3020008E94D0008B30200084B
:1000E000C9080008B3020008B3020008B302000800
:1000F000B3020008B3020008B3020008B30200080C
:10010000B3020008B3020008B3020008B3020008FB
:10011000B3020008B3020008B5470008B3020008A4
:1001200025070008B3020008B3020008B302000864
:10013000B30200080000000000000000B302000845
:10014000B3020008B3020008B3020008B3020008BB
:10015000B3020008B3020008B3020008B3020008AB
:10016000B3020008B3020008B3020008B30200089B
:10017000B3020008B3020008B30200080000000048
:1001800000000000B30200080000000000000000B2
:10019000B30200080000000000000000B3020008E5
:1001A000000000000000000000000000B302000892
:1001B000B3020008B3020008B3020008B30200084B
:1001C000B3020008DFF80CD000F00AF9004800473D
:1001D000DD4F0008405200202C4B19680868B0E839
:1001E000F04F80F30988BFF36F8F4FF0000080F36A
:1001F000118870470000000008480068006880F31C
:1002000008884FF0000080F3148862B661B6BFF32F
:100210004F8FBFF36F8F00DF00BF00BF08ED00E01E
:10022000DFF80C00016841F470010160704700BF05
:1002300088ED00E0EFF30980BFF36F8F134B1A686E
:100240001EF0100F08BF20ED108A20E9F04F10605B
:1002500009B44FF0500080F31188BFF34F8FBFF304
:100260006F8F06F071F84FF0000080F3118809BC21
:1002700019680868B0E8F04F1EF0100F08BFB0EC26
:10028000108A80F30988BFF36F8F70474800002001
:10029000EFF3058070470000064880470648004796
:1002A000FEE7FEE7FEE7FEE7FEE7FEE7FEE7FEE726
:1002B000FEE7FEE799470008C50100082DE9F05F59
:1002C0000546002092469B468846064681464024C5
:1002D0001BE0284641464746224600F070F8534648
:1002E0005A46C01A914110D311461846224600F0D2
:1002F00057F82D1A67EB01084F46224601200021CE
:1003000000F04EF817EB00094E41201EA4F1010445
:10031000DFDC484631462A464346BDE8F09F40EAC6
:1003200001039B0703D009E008C9121F08C0042A73
:10033000FAD203E011F8013B00F8013B521EF9D25A
:100340007047D2B201E000F8012B491EFBD2704782
:100350000022F6E710B513460A4604461946FFF791
:10036000F0FF204610BD421C10F8011B0029FBD1F4
:10037000801A704730B50B46014600202022012428
:1003800009E021FA02F59D4205D303FA02F5491B63
:1003900004FA02F52844151EA2F10102F1DC30BD79
:1003A000202A04DB203A00FA02F100207047914035
:1003B000C2F1200320FA03F3194390407047202A2A
:1003C00004DB203A21FA02F00021704721FA02F3FF
:1003D000D040C2F120029140084319467047000006
:1003E000064C074D06E0E06840F0010394E8070082
:1003F00098471034AC42F6D3FFF7E8FE689E000839
:10040000889E000870B50546AC6B206C00F050006B
:1004100050BB206C40F4007020642068806800F0BD
:100420004050E8B9207ED8B92068C06A00F4700056
:1004300020B12068806800F4806088B92068406836
:1004400020F0200021684860206C20F48070206437
:10045000206C00F4805018B9206C40F0010020643A
:10046000204600F017FB0BE0206C00F0100018B1E4
:10047000204600F036FB03E0A06BC16C284688479D
:1004800070BD70B50546AC6B40202064606C40F0D8
:1004900004006064204600F024FB70BD70B5044683
:1004A000A56B284600F01CFB70BD000055494A684A
:1004B00022F440324A604A6843681A434A6002683C
:1004C000526822F4807203685A60026853680269B5
:1004D00043EA022203685A600268526822F04072BE
:1004E00003685A600268526883681A4303685A6056
:1004F0000268926822F4006203689A600268926857
:10050000C3681A4303689A603F4B826A9A4218D0C4
:100510000268926822F0706203689A6002689268CA
:10052000836A1A4303689A600268926822F0405214
:1005300003689A6002689268C36A1A4303689A6003
:100540000BE00268926822F0706203689A600268A9
:10055000926822F0405203689A600268926822F022
:10056000020203689A6002689368027E43EA4202CC
:1005700003689A602022125CA2B10268526842F4B9
:10058000006203685A600268526822F4604203689D
:100590005A6002685368426A521E43EA4232036854
:1005A0005A6005E00268526822F4006203685A60EB
:1005B0000268D26A22F470020368DA620268D36ABF
:1005C000828B521E43EA02520368DA620268926822
:1005D00022F4007203689A600268936890F83020F1
:1005E00043EA422203689A600268926822F48062B9
:1005F00003689A6002689368426943EA822203684A
:100600009A607047002301400100000F00BFFEE721
:1006100010B5024800F0BEFB10BD000068020020CB
:1006200008B500BF002000901A48006840F4001090
:10063000184908600846006800F40010009000BFE8
:1006400000BF154815490860002048604021134844
:1006500081600021C161C1604FF4806101610021AE
:10066000C16201634162816141614FF440310162C5
:100670000B480A498863084600F0ACFC08B100F05A
:1006800035F9002205210F2001F00CFB0F2001F0AD
:10069000F9FA08BD3038024070600240680200205C
:1006A0007001002008B500BF002000901A480068C3
:1006B00040F40010184908600846006800F4001073
:1006C000009000BF00BF1548154908604FF000704A
:1006D00048604021124881600021C161C1604FF42F
:1006E000806101610021C162016341624FF40051E8
:1006F000816141614FF44031016200F06BFC08B14F
:1007000000F0F4F800220521112001F0CBFA1120AD
:1007100001F0B8FA08BD000030380240A060024085
:10072000C802002010B5024800F034FB10BD0000E4
:100730000802002008B500BF002000901B48006898
:1007400040F48000194908600846006800F4800001
:10075000009000BF00BF164816490860002048609E
:10076000002114488160C161C1604FF48061016162
:100770000021C162016341624FF40051816189101F
:100780004161490101620C480A498863084600F04A
:1007900021FC08B100F0AAF800220521382001F060
:1007A00081FA382001F06EFA08BD000030380240AE
:1007B0001064024008020020D4000020014608789E
:1007C00010381823B0FBF3F20848805CC865032A90
:1007D00005D908686FF30900001D886503E0086803
:1007E0006FF309008865886D704700003476000853
:1007F000014600208A6A8B69CBB932B1012A0DD03B
:10080000022A03D0032A10D10EE000BFCB6A03F006
:100810008073B3F1807F00D1012007E0CB6AB3F190
:10082000C07F00D1012001E000E000BF34E08B690F
:10083000B3F5005F1AD132B1012A07D0022A03D0E2
:10084000032A11D10AE000BF01200EE0CB6A03F0B9
:100850008073B3F1807F00D1012006E0CB6AB3F151
:10086000C07F00D1012000E000BF15E032B1012AB5
:1008700005D0022A04D0032A0CD103E000BF00BF38
:10088000012008E0CB6A03F08073B3F1807F00D1D0
:10089000012000E000BF00BF704730B50468246845
:1008A00024F4802405682C60046863608468402C0C
:1008B00004D10468A2600468E16003E00468A160F8
:1008C0000468E26030BD704710B5C82000F042FCFB
:1008D0000548006800F4005008B103F0B5FE4FF47D
:1008E000005000F04DFC10BD143C0140704700006A
:1008F00038B502460020009000BF92F83C00012865
:1009000001D1022038BD012082F83C0000BF0868F8
:10091000092816D91068C0680C780A3C04EB440515
:100920000724AC40A0431468E0600C780A3C04EB58
:1009300044048868A0401468E46820431468E060B8
:1009400013E0106800690C7804EB44050724AC4000
:10095000A043146820610C7804EB44048868A0402C
:10096000146824692043146820614868072817D256
:100970001068406B0C79641E04EB84051F24AC40A6
:10098000A04314686063088880B20C79641E04EB8D
:100990008404A0401468646B20431468606331E0F1
:1009A00048680D2817D21068006B0C79E41F04EB1F
:1009B00084051F24AC40A04314682063088880B2DB
:1009C0000C79E41F04EB8404A0401468246B2043DA
:1009D0001468206316E01068C06A0C790D3C04EBC3
:1009E00084051F24AC40A0431468E062088880B2EC
:1009F0000C790D3C04EB8404A0401468E46A2043A5
:100A00001468E0621E4B1F4C1068A0420AD10868AF
:100A1000122807D1586820F400005860586840F444
:100A200080005860174C1068A04222D1164C08680C
:100A3000A04202D0086811281BD1586820F4800019
:100A40005860586840F4000058600F4C0868A04295
:100A50000FD10E4800680E4CB0FBF4F000EB8000A4
:100A60004000009002E00098401E0090009800288E
:100A7000F9D100BF002082F83C0000BF00BF41E771
:100A8000002301400020014012000010440000201B
:100A900040420F0030B599B005460B4843880288A4
:100AA0000AA1684604F0AAF900210B48006805F085
:100AB00083FF6846FFF757FC84B222466946074821
:100AC00002F049FA19B030BD000000205B25695DD5
:100AD0005B25695D0A0000002C000020C801002091
:100AE0007047704770B5044600250CB9012070BDF1
:100AF0001549A06A884200D000BF206C30B920465A
:100B000000F024F80020606484F83C00206C00F0C1
:100B1000100088B9206C20F4885040F00200206456
:100B20002046FFF7C3FC00206064206C20F0020028
:100B300040F00100206400E0012500BF002084F89F
:100B40003C0000BF2846D2E70100000F10B586B078
:100B50000446142101A8FFF7FBFB1E4920688842C8
:100B600035D100BF002000901B48006840F4807021
:100B7000194908600846006800F48070009000BFC2
:100B800000BF00BF0020009013481438006840F0F8
:100B900001001149143908600846006800F001009E
:100BA000009000BF00BF01200190032002900020B0
:100BB000039001A9094800F0F1FA022001900320F6
:100BC00002900020039001A9044800F0E7FA06B063
:100BD00010BD0000002001404438024000000240E7
:100BE000F8B504460D4616460020009000BF94F864
:100BF0003C00012801D10220F8BD012084F83C000E
:100C000000BF2068806800F00100A0B920688068FB
:100C100040F0010021688860494800684949B0FBFC
:100C2000F1F000EB4000009002E00098401E0090C0
:100C300000980028F9D12068806800F001000028A1
:100C40007CD0206C40F20161884340F480702064C5
:100C50002068406800F4806028B1206C20F40050C7
:100C600040F480502064206C00F48050B0F5805F28
:100C700004D1606C20F00600606401E00020606434
:100C800000BF002084F83C0000BF2F4F2F48A16B0D
:100C9000C8632F48A16B08642E48A16BC8646FF02D
:100CA0002200216808602068406840F08060216868
:100CB00048602068806840F48070216888602268FD
:100CC00002F14C0133462A46A06B00F0F9F978682E
:100CD00000F01F0018BB20492068884213D01F492C
:100CE0002068884204D1381D006800F01F0050B110
:100CF0001B492068884221D11348001D006800F07C
:100D00001F0010281AD22068806800F0405028B9CF
:100D10002068806840F08040216888600EE00E49BD
:100D2000206888420AD12068806800F0405028B9C5
:100D30002068806840F080402168886000205BE780
:100D40004400002040420F00002301400504000839
:100D50009D04000883040008002001400021014098
:100D600000220140014691F83500022803D080207E
:100D7000486501207047052081F835000868006843
:100D800020F001000A6810600020F3E7014691F8A6
:100D900035007047F8B50446002000908C48006884
:100DA0004FF41651B0FBF1F7A56D2E6894F85C1066
:100DB00008208840304098B12068006800F00400A6
:100DC00070B12068006820F004002168086094F881
:100DD0005C1008208840A860606D40F001006065EC
:100DE00094F85C1001208840304068B12068406968
:100DF00000F0800040B194F85C1001208840A860A9
:100E0000606D40F00200606594F85C10042088403A
:100E1000304068B12068006800F0020040B194F8EA
:100E20005C1004208840A860606D40F0040060659C
:100E300094F85C1010208840304078B32068006837
:100E400000F0080050B394F85C1010208840A860AF
:100E50002068006800F4802080B12068006800F4F9
:100E6000002028B9206CC8B12046216C884715E0C5
:100E7000A06C98B12046A16C88470FE020680068FC
:100E800000F4807028B92068006820F0080021680C
:100E90000860206C10B12046216C884794F85C10E3
:100EA000202088403040002865D02068006800F08D
:100EB000100000285FD094F85C1020208840A860C3
:100EC00094F83500052828D12068006820F0160025
:100ED000216808602068406920F08000216848612E
:100EE000206C08B9A06C28B12068006820F00800C8
:100EF0002168086094F85C103F208840A86000BF1B
:100F0000002084F8340000BF012084F83500206DF3
:100F100010B12046216D8847F8BD2068006800F4B4
:100F2000802080B12068006800F4002028B9606C3F
:100F300010B12046616C88471DE0E06BD8B12046B7
:100F4000E16B884717E02068006800F4807068B99A
:100F50002068006820F010002168086000BF0020B1
:100F600084F8340000BF012084F83500E06B10B134
:100F70002046E16B8847606D38B3606D00F001007A
:100F8000F0B1052084F835002068006820F00100E9
:100F90002168086000BF0098401C0090B84200D94A
:100FA00005E02068006800F001000028F3D100BFD0
:100FB00000BF002084F8340000BF012084F8350011
:100FC000E06C10B12046E16C884700BFA4E7000048
:100FD000440000202DE9F0410446002500F0DCF932
:100FE000074614B90120BDE8F081606A00B100BF76
:100FF00000BF002084F8340000BF022084F83500D0
:101000002068006820F00100216808600AE000F014
:10101000C3F9C01B052805D920206065032084F88A
:101020003500E0E72068006800F001000028EED1FC
:101030002068056821480540D4E901010843E168BA
:1010400008432169084361690843A1690843E169CC
:101050000843216A08430543606A042803D1D4E9A0
:101060000B0108430543206805602068456925F0A9
:101070000705606A0543606A04280DD1A06A05432C
:10108000E06A48B12046FFF7B3FB28B14020606515
:10109000012084F83500A6E7206845612046FFF767
:1010A0008DFB064694F85C103F208840B06000201D
:1010B0006065012084F83500002094E73F8010F03F
:1010C0002DE9F04704460D4616461F464FF000082E
:1010D000D4F8589000BF94F83400012802D10220BF
:1010E000BDE8F087012084F8340000BF94F8350093
:1010F000012825D1022084F83500002060653B4698
:10110000324629462046FFF7C8FB94F85C103F2082
:101110008840C9F808002068006840F0160021687F
:101120000860206C28B12068006840F00800216841
:1011300008602068006840F001002168086006E04F
:1011400000BF002084F8340000BF4FF00208404682
:10115000C6E7000070B5044600F01EF906462546B5
:10116000681C10B104480078054400BF00F014F971
:10117000801BA842FAD370BD4000002070470000D9
:1011800010B5044604480068204020B102480460BD
:101190002046FFF7F3FF10BD143C0140F8B50246AE
:1011A0000B460025002400200021D7E0012606FA86
:1011B00001F51E6806EA0504AC4273D15E68012E93
:1011C00008D05E68022E05D05E68112E02D05E68DF
:1011D000122E13D190684F000326BE40B0434F003B
:1011E000DE68BE4030439060506801268E40B043B8
:1011F0001E79C6F300168E4030435060D0684F0011
:101200000326BE40B0434F009E68BE403043D060CE
:101210005E68022E02D05E68122E13D1CF0802F152
:10122000200656F827004E07F70E0F26BE40B043A3
:101230004F07FF0E1E69BE403043CF0802F1200663
:1012400046F8270010684F000326BE40B0431E79C1
:1012500006F003064F00BE40304310605E6806F0A3
:101260008056B6F1805F78D100BF002600963D4ED3
:10127000366846F480463B4F3E603E46366806F48C
:101280008046009600BF00BF374E8F0856F82700F3
:101290008E07370F0F26BE40B043344EB24202D104
:1012A00000261FE059E0324EB24201D1012619E07A
:1012B000304EB24201D1022614E02F4EB24201D18B
:1012C00003260FE02D4EB24201D104260AE02C4E37
:1012D000B24201D1052605E02A4EB24201D10626CE
:1012E00000E007268F073F0FBE4030431E4E8F0899
:1012F00046F82700244E3068A0435E6806F4803626
:10130000B6F5803F00D120431F4E3060361D306857
:10131000A0435E6806F40036B6F5003F00D12043D6
:10132000194E361D3060361D3068A0435E6806F4E5
:101330008016B6F5801F00D12043134E083630606A
:10134000361D3068A0435E6806F40016B6F5001F2F
:1013500000D120430C4E0C363060491C1029FFF49C
:1013600025AFF8BD44380240083801400000024073
:101370000004024000080240000C0240001002403D
:101380000014024000180240003C01400AB1816193
:1013900001E00B048361704701480068704700005A
:1013A00038000020704770472DE9F84F0446206848
:1013B00047692068D0F80480002594F83E90C7F370
:1013C000002040B1C8F3002028B145F001056FF4BA
:1013D000807021684861C7F3402040B1C8F3002005
:1013E00028B145F002056FF4007021684861C7F329
:1013F000802070B3C8F3002058B3CA46B4F82AB0AE
:1014000094F83D60206B0090BAF1200F0FD1BBF132
:10141000000F0CD1212E06D0292E04D0282E06D163
:101420000098212803D1204602F03CFB11E06FF424
:1014300080602168486145F00405B9F1100F02D0C1
:10144000B9F1400F05D12068006840F400702168B0
:101450000860C7F3C02040B1C8F3002028B145F0B0
:1014600008056FF40060216848612DB1206C2843A5
:101470002064204601F012FEBDE8F88F2DE9F04708
:101480000546002728684668D5F82C8095F83E90D8
:1014900095F83DA0B9F1100F02D0B9F1400F78D105
:1014A000286887692868446904F0010060B9B8F5C4
:1014B0002A0F02D0B8F12A4F01D1012000E000200C
:1014C000012801D1BDE8F08704F0010048B1C6F35E
:1014D000402030B1284601F07DFD284602F0C1F9D8
:1014E000ACE0C4F3C00030B1C6F3402018B12846C8
:1014F00002F06EF8A2E0C4F3400030B1C6F3402021
:1015000018B1284602F079F898E0C7F38000F8B1E6
:101510002868406800F40060B0F5006FE0D0C4F3C4
:10152000C01048B1C6F3802030B1C4F3800018B9B0
:10153000284601F0E1FF81E0C4F3800000287DD05F
:10154000C6F34020002879D0284601F07DFF75E0E1
:101550002868406800F40060B0F5006F6ED0C4F3F6
:10156000801048B1C6F3802030B1C4F3800018B9B0
:10157000284601F017FF61E0C4F3800000285DD029
:10158000C6F34020002859D0284601F078FE55E0E7
:10159000FFE7286C10B12868446903E02868876970
:1015A00028684469C4F3400058B1C6F3402040B1F4
:1015B000286C08B1286887693946284602F03EFA47
:1015C0003CE0C4F3001030B1C6F3402018B1284607
:1015D00002F0B8FA32E0BAF1210F02D0BAF1290FC5
:1015E00016D1C4F3C01048B1C6F3802030B1C4F3A3
:1015F000800018B9284602F0FEF91FE0C4F380000D
:10160000E0B1C6F34020C8B1284602F0E7F915E082
:10161000C4F3801048B1C6F3802030B1C4F3800019
:1016200018B9284602F0B7F908E0C4F3800028B1E1
:10163000C6F3402010B1284602F0A0F900BF41E7F0
:101640007047000070B504460CB9012070BD94F8D5
:101650003D0028B9002084F83C00204600F0E0F866
:10166000242084F83D002068006820F001002168F3
:1016700008602068006840F4004021680860206825
:10168000006820F400402168086000F08DFC0546E9
:101690005C496068884206D85B48854201D20120D7
:1016A00007E0002005E05948854201D2012000E012
:1016B0000020012800D1C9E75548B5FBF0F62068A5
:1016C000406820F03F003043216848604D49606821
:1016D000884201D8701C07E04FF4967070434FF4B5
:1016E0007A71B0FBF1F0401C2168096A21F03F01DA
:1016F00008432168086243496068884214D8681E1C
:1017000061684900B0FBF1F0401CC0F30B000428F5
:1017100001D204203DE0681E61684900B0FBF1F091
:10172000401CC0F30B0034E0A06838B9681E616843
:1017300001EB4101B0FBF1F0401C0AE0681E61685A
:1017400001EBC10202EB0111B0FBF1F0401C40F4CF
:101750008040C0F30B0008B901201AE0A06848B926
:10176000681E616801EB4101B0FBF1F0401CC0F361
:101770000B000CE0681E616801EBC10202EB011175
:10178000B0FBF1F0401CC0F30B0040F4804040F48B
:1017900000402168C9694CF6FF72914308432168F3
:1017A000C861D4E9070108432168096821F0C00134
:1017B000084321680860D4E9031008432168896858
:1017C00048F2FF329143084321688860D4E905015B
:1017D00008432168C96821F0FF0108432168C860F7
:1017E0002068006840F00100216808600020206443
:1017F000202084F83D000020206384F83E0000BFD4
:1018000024E70000A086010080841E0000093D003E
:1018100040420F00704770477047704770470000A4
:1018200010B586B00446142101A8FEF791FD2349A6
:101830002068884240D100BF002000902048006806
:1018400040F002001E4908600846006800F00200EF
:10185000009000BF00BF4FF4407001901220029032
:1018600001200390032004900420059001A915484D
:10187000FFF794FC00BF0020009011481030006872
:1018800040F400100E49103108600846006800F46A
:101890000010009000BF00BF002205211F2000F0B3
:1018A00001FA1F2000F0EEF900220521202000F0AF
:1018B000F9F9202000F0E6F906B010BD0054004010
:1018C000303802400004024038B50446124800781F
:1018D00051280CD11148FEF746FDC0B200904FF4DC
:1018E000FA6301226946204600F068F80EE00A48D3
:1018F000007852280AD10948FEF735FD85B24FF429
:10190000FA632A460549204600F058F801220249A8
:10191000204600F007F838BD08000020090000202C
:101920007047000010B5034693F83D00202840D1D1
:1019300001B10AB9012010BD00BF93F83C00012895
:1019400001D10220F7E7012083F83C0000BF1868AE
:10195000006800F0010028B91868006840F0010034
:101960001C6820601868006820F400601C68206013
:10197000222083F83D00202083F83E0000201864D8
:1019800059625A85588D18850B48D86218680068C6
:1019900040F480601C68206000BF002083F83C0099
:1019A00000BF1868406840F4E0601C686060002078
:1019B000C1E70220BFE700000000FFFF2DE9F84368
:1019C00004460E4617469846FFF7E6FC054694F88F
:1019D0003D00202871D106B117B90120BDE8F88378
:1019E00000BF94F83C00012801D10220F6E7012055
:1019F00084F83C0000BF2068006800F0010028B9AE
:101A00002068006840F001002168086020680068D4
:101A100020F4006021680860212084F83D00202027
:101A200084F83E000020206466626785608D208512
:101A30004548E0622068006840F4806021680860E2
:101A40004346002241492046009502F041F908B181
:101A50000120C3E700BF002000902068406900908B
:101A600020688069009000BF00BF2069B0F5404F3A
:101A700014D14346002235492046009502F028F94A
:101A800008B10120AAE700BF00200090206840694B
:101A9000009020688069009000BF00BF2FE02A46B8
:101AA0004146204602F057F940B12068006820F412
:101AB000806021680860012090E743E0606A007858
:101AC00021680861606A401C6062608D401E60850C
:101AD000208D401E208520684069C0F3800070B1D1
:101AE000208D60B1606A007821680861606A401CDE
:101AF0006062608D401E6085208D401E2085208D97
:101B00000028CCD1434600224FF482312046009574
:101B100002F0DEF808B1012060E76FF48060216810
:101B200048612068006820F48060216808602020F7
:101B300084F83D00002084F83E0000BF84F83C009B
:101B400000BF4BE7022049E70000FFFF0200010051
:101B50000348006803490978084401490860704750
:101B6000380000204000002010B50D48006840F407
:101B700000700B4908600846006840F48060086007
:101B80000846006840F480700860032000F0C8F840
:101B9000002000F007F800F04BF8002010BD000016
:101BA000003C024070B588B00446002500260022A3
:101BB0002146362000F076F8362000F063F800BFAA
:101BC000002001901648006840F010001449086099
:101BD0000846006800F01000019000BF00BF02A995
:101BE00003A800F0B9F900F0DFF945000D48B5FB96
:101BF000F0F0461E0C480D49086040F2E7310B48F2
:101C0000C160466000210161816000F066FF20B97B
:101C1000064800F07DFF08B070BD0120FBE7000022
:101C20004038024040420F000010004028030020CE
:101C300008B500BF002000901148006840F48040C3
:101C40000F4908600846006800F48040009000BF1B
:101C500000BF00BF00200090081F006840F08050C7
:101C6000091F08600846006800F08050009000BF1F
:101C700000BF00220F21901E00F014F808BD0000E4
:101C80004438024001460846002809DB00F01F03E3
:101C900001229A4043099B0003F1E023C3F800218D
:101CA00000BF70472DE9F05F80460D4616460027BD
:101CB00003F0B8F8074639462A46334601F00700D4
:101CC000C0F1070ABAF1040F02D94FF0040A01E08B
:101CD000C0F1070AD14600F1040ABAF1070F02D297
:101CE0004FF0000A01E0A0F1030AD4464FF0010AC8
:101CF0000AFA09FAAAF1010A0AEA020A0AFA0CFA2D
:101D00004FF0010B0BFA0CFBABF1010B0BEA030BD1
:101D10004AEA0B042146404603F08CF8BDE8F09FE8
:101D200000BF00F00702064B19684FF6FF03194089
:101D3000044B0B4343EA0221014B196000BF70477B
:101D40000CED00E00000FA0538B5002400BF0020CB
:101D500000901D48006840F080501B49086008460C
:101D6000006800F08050009000BF00BF01201749BC
:101D70000864FFF711FB044607E0FFF70DFB001BAB
:101D8000B0F57A7F01D9032038BD1148406800F4CE
:101D90008030B0F5803FF0D101200C494864FFF756
:101DA000FBFA044607E0FFF7F7FA001BB0F57A7F6D
:101DB00001D90320E8E70648406800F40030B0F598
:101DC000003FF0D10020DFE74038024000000E4223
:101DD0000070004070B504460D460CB9012070BD7E
:101DE0005848006800F00F00A84209D255490D700C
:101DF0000846006800F00F00A84201D00120EEE77D
:101E0000207800F0020002281DD1207800F00400A4
:101E1000042805D14C48006840F4E0504A49086065
:101E2000207800F00800082805D14748006840F4F1
:101E30006040454908604448006820F0F000A1680F
:101E4000084341490860207800F00100A8B36068A9
:101E5000012807D13C4808380068C0F34040B8B9B1
:101E60000120BCE76068022802D06068032807D11F
:101E7000354808380068C0F3406048B90120AEE733
:101E8000314808380068C0F3400008B90120A6E7CF
:101E90002D48006820F00300616808432A49086063
:101EA000FFF77AFA064609E0FFF776FA801B41F25F
:101EB0008831884202D9032091E707E02248006870
:101EC00000F00C006168B0EB810FEDD11D48006897
:101ED00000F00F00A84209D91A490D7008460068A1
:101EE00000F00F00A84201D0012078E7207800F030
:101EF0000400042807D11448006820F4E050E16889
:101F0000084311490860207800F00800082808D12B
:101F10000D48006820F46040216940EAC1000A4988
:101F2000086000F061F808490968C1F30311074A25
:101F3000515CC8400649086006480068FFF732FE59
:101F400000204CE7003C0240083802403C76000884
:101F5000440000203C0000200F2202600D4A12685D
:101F600002F0030242600B4A126802F0F002826043
:101F7000084A126802F4E052C260064A126802F48B
:101F80006042D2080261044A126802F00F020A603D
:101F90007047000008380240003C024001480068D9
:101FA000704700004400002000B5FFF7F7FF044928
:101FB0000968C1F38221034A515CC84000BD00009A
:101FC000083802404C76000800B5FFF7E7FF0449E7
:101FD0000968C1F34231034A515CC84000BD0000AA
:101FE000083802404C7600082DE9F047002400250F
:101FF0000026A146A2463F48006800F00C0030B120
:10200000042807D0082808D00C286BD138E0DFF866
:10201000E8A06AE0DFF8E4A067E03648001F006847
:1020200000F03F043348001F006800F4800078B1DE
:1020300032483049091F0968C1F38811A0FB0170BB
:102040000146224600233846FEF738F905460DE0E2
:1020500029482849091F0968C1F38811A0FB0171AB
:10206000224600233846FEF729F905462148001F7D
:102070000068C0F30140401C4600B5FBF6FA34E0AE
:102080001C48001F006800F03F041A48001F006849
:1020900000F4800078B119481649091F0968C1F396
:1020A0008811A0FB01700146224600233846FEF746
:1020B00005F905460EE010480E49091F0968C1F3ED
:1020C0008811A0FB01700146224600233846FEF726
:1020D000F5F805460748001F0068C0F30279B5FB14
:1020E000F9FA02E0DFF810A000BF00BF5046BDE8DB
:1020F000F0870000083802400024F40040787D0199
:10210000F8B504460025207800F0010000286FD0C3
:10211000FD48006800F00C0004281BD0FA48006855
:1021200000F00C00082807D1F748001F006800F4F1
:102130008000B0F5800F0DD0F348006800F00C006F
:102140000C2813D1F048001F006800F48000B0F59F
:10215000800F0BD1EC4808380068C0F340400028DD
:1021600059D06068002856D10120F8BD00BF6068D2
:10217000B0F5803F08D1E4480838006840F480306A
:10218000E149083908601EE06068B0F5A02F0DD164
:10219000DD480838006840F48020DB4908390860D1
:1021A0000846006840F4803008600CE0D6480838E3
:1021B000006820F48030D449083908600846006877
:1021C00020F48020086000BF606890B1FFF7E4F859
:1021D000054606E0FFF7E0F8401B642801D903201C
:1021E000C3E7C94808380068C0F340400028F1D070
:1021F00011E0FFF7D1F8054606E0FFF7CDF8401BE8
:10220000642801D90320B0E7BF4808380068C0F34C
:1022100040400028F1D1207800F0020002286BD164
:10222000B948006800F00C00B8B1B748006800F089
:102230000C00082805D1B448001F006800F4800095
:1022400058B1B148006800F00C000C281CD1AE4811
:10225000001F006800F48000B0B9AB48083800687F
:10226000C0F3400020B1E068012801D001207CE7E4
:10227000A5480838006820F0F800216940EAC1004C
:10228000A1490839086037E0E06800B301209F49A0
:102290000860FFF781F8054606E0FFF77DF8401B70
:1022A000022801D9032060E7974808380068C0F386
:1022B00040000028F1D094480838006820F0F80069
:1022C000216940EAC10090490839086014E0002003
:1022D0008E490860FFF760F8054606E0FFF75CF8F6
:1022E000401B022801D903203FE7874808380068CF
:1022F000C0F340000028F1D1207800F00800082841
:102300002CD16069A8B1012081490860FFF744F829
:10231000054606E0FFF740F8401B022801D90320DC
:1023200023E779486C300068C0F340000028F1D002
:1023300014E0002076490860FFF72EF8054606E015
:10234000FFF72AF8401B022801D903200DE76E4849
:102350006C300068C0F340000028F1D1207800F014
:102360000400042870D1002667483830006800F067
:10237000805090B900BF002000906348383000685A
:1023800040F080506049383108600846006800F02D
:102390008050009000BF00BF01265E48006800F436
:1023A0008070B0B95B48006840F48070594908609B
:1023B000FEF7F2FF054606E0FEF7EEFF401B02289F
:1023C00001D90320D1E65348006800F4807000284A
:1023D000F2D000BFA068012808D14B4868300068DF
:1023E00040F001004849683108601DE0A0680528F8
:1023F0000DD145486830006840F00400424968311A
:1024000008600846006840F0010008600CE03E48A3
:102410006830006820F001003B49683108600846D8
:10242000006820F00400086000BFA068A8B1FEF7B3
:10243000B3FF054609E0FEF7AFFF401B41F28831CC
:10244000884202D9032090E626E02F4868300068D1
:10245000C0F340000028EED013E0FEF79DFF0546D4
:1024600008E0FEF799FF401B41F28831884201D90C
:1024700003207AE6244868300068C0F34000002852
:10248000EFD1012E07D120483830006820F080506D
:102490001D493831086000BFA069E8B31A480068D8
:1024A00000F00C00082862D0A06902284AD1002060
:1024B00016490866FEF770FF054606E0FEF76CFF5A
:1024C000401B022801D903204FE60F480838006856
:1024D000C0F340600028F1D1D4E907010843616AE4
:1024E00040EA81110122A06AC2EB500041EA00419A
:1024F0002C20005D41EA00613020005D41EA00705F
:102500000149091F086008E00838024000004742FE
:10251000800E4742007000402BE0012016490866FB
:10252000FEF73AFF054606E0FEF736FF401B02289D
:1025300001D9032019E611480068C0F34060002863
:10254000F2D016E000200C490866FEF725FF05468C
:1025500006E0FEF721FF401B022801D9032004E614
:1025600006480068C0F340600028F2D101E0012075
:10257000FBE50020F9E5000000004742003802407A
:102580007047014691F8510070470000F8B50446C5
:102590002068466820688568C5F3801048B905F052
:1025A000010030B1C6F3801018B12046216C884775
:1025B000F8BDC5F3400030B1C6F3C01018B12046D5
:1025C000616C8847F4E7C5F3401030B9C5F380105B
:1025D00018B9C5F3002000287CD0C6F340100028AD
:1025E0007DD0C5F38010F0B194F8510003280ED0CF
:1025F000606D40F00400606500BF0020009020681E
:10260000C068009020688068009000BF0BE000BFA9
:10261000002000902068C0680090206880680090CA
:1026200000BF00BFC4E7C5F3401088B1606D40F043
:102630000100606500BF0020009020688068009065
:102640002068006820F040002168086000BF00BFDB
:10265000C5F3002058B1606D40F00800606500BF10
:102660000020009020688068009000BF00BF606D6F
:1026700078B32068406820F0E000216848600120BD
:1026800084F8510006F00200022802D006F0010092
:1026900008B32068406820F0030021684860E06CBF
:1026A00050B11048E16C0865E06CFEF75BFB18B1B7
:1026B000606D40F040006065A06C50B10948A16CAD
:1026C0000865A06CFEF74EFB18B1606D40F040004D
:1026D000606503E003E02046FFF752FF68E700BFB4
:1026E00066E70000E540000810B504460CB901207B
:1026F00010BD606A00B900BF0021A16294F85100CA
:1027000028B9002084F85000204600F033F8022059
:1027100084F851002068006820F0400021680860BB
:10272000D4E901010843E16808432169084361696C
:102730000843218B01F400710843E1690843216AD1
:102740000843A16A0843216808600421A06901EADE
:102750001040616A0843216848602068C06920F41D
:1027600000602168C86100206065012084F8510084
:102770000020BDE710B586B00446142101A8FDF77E
:10278000E7FD24492068884241D100BF0020009025
:102790002148006840F480401F49086008460068EE
:1027A00000F48040009000BF00BF00BF00200090F8
:1027B00019481038006840F00200174910390860C5
:1027C0000846006800F00200009000BF00BF4FF410
:1027D00060400190022002900020039003200490AA
:1027E0000520059001A90D48FEF7D8FC4FF4805054
:1027F00001900120039001A90848FEF7CFFC0022B8
:1028000005212420FFF74EFA2420FFF73BFA06B0FB
:1028100010BD000000380040403802400004024073
:102820002DE9F84F0446884616461D464FF0000A2B
:1028300000BF94F85000012802D10220BDE8F88FB3
:10284000012084F8500000BFFEF7A6FD0746B14600
:1028500094F85100012802D04FF0020AA7E0B8F125
:10286000000F00D016B94FF0010AA0E0032084F851
:10287000510000206065C4F83080A686E686A0631B
:10288000A087E08760642064A068B0F5004F05D1A0
:102890002068006840F48040216808602068006873
:1028A00000F04000402805D02068006840F040005B
:1028B00021680860E068B0F5006F2FD1606810B142
:1028C000B9F1010F09D1206B00882168C860206B25
:1028D000801C2063E08E401EE0861BE0206880683C
:1028E00000F0020002280AD1206B00882168C8602D
:1028F000206B801C2063E08E401EE0860AE0FEF71D
:102900004BFDC01BA84201D3681C00B915B94FF09C
:10291000030A4CE0E08E0028E0D12EE0606810B1A0
:10292000B9F1010F09D1206B007821680873206B81
:10293000401C2063E08E401EE0861BE0206880681B
:1029400000F0020002280AD1206B00782168087389
:10295000206B401C2063E08E401EE0860AE0FEF7FC
:102960001BFDC01BA84201D3681C00B915B94FF06C
:10297000030A1CE0E08E0028E0D13A4629462046B2
:1029800001F016FC08B120206065A06850B900BFB6
:10299000002000902068C068009020688068009047
:1029A00000BF00BF606D08B14FF0010A00BF0120F9
:1029B00084F8510000BF002084F8500000BF50464A
:1029C0003CE700002DE9F04104460E46154600277D
:1029D00000BF94F85000012802D10220BDE8F08128
:1029E000012084F8500000BF94F85100012801D064
:1029F000022752E006B10DB901274EE0032084F80A
:102A00005100002060652663A586E586A0636064AA
:102A10002064A087E087A068B0F5004F05D120684A
:102A2000006840F48040216808601F48A16C086479
:102A30001E48A16CC8631E48A16CC8640020A16C2C
:102A40000865E38ED4F800C00CF10C02216BA06C79
:102A5000FEF736FB40B1606D40F010006065012765
:102A6000012084F8510018E02068006800F0400060
:102A7000402805D02068006840F0400021680860C8
:102A80002068406840F02000216848602068406865
:102A900040F002002168486000BF00BF002084F8B9
:102AA000500000BF384699E7214100082F41000837
:102AB000F940000810B5044600200449887100213F
:102AC0000348006803F078FF10BD000020000020DC
:102AD0002800002070477047704710B504460CB9B5
:102AE000012010BD94F83D0028B9002084F83C0076
:102AF000204600F00CF8022084F83D00211D2068DB
:102B000001F060FE012084F83D000020E9E77047F5
:102B100001460868C06840F001000B68D86008688A
:102B2000806800F00702062A05D00868006840F0B7
:102B300001000B68186000207047704710B504460C
:102B400020680069C0F34000D8B12068C068C0F3B5
:102B50004000B0B16FF002002168086101202077C9
:102B60002068806900F0030018B12046FFF7E5FFF8
:102B700005E0204600F0ADF8204600F0ABF800205C
:102B8000207720680069C0F38000D8B12068C06851
:102B9000C0F38000B0B16FF004002168086102202A
:102BA00020772068806900F4407018B12046FFF754
:102BB000C4FF05E0204600F08CF8204600F08AF8BB
:102BC0000020207720680069C0F3C000D8B12068D9
:102BD000C068C0F3C000B0B16FF0080021680861A0
:102BE000042020772068C06900F0030018B1204657
:102BF000FFF7A3FF05E0204600F06BF8204600F049
:102C000069F80020207720680069C0F30010D8B16F
:102C10002068C068C0F30010B0B16FF010002168E8
:102C20000861082020772068C06900F4407018B15E
:102C30002046FFF782FF05E0204600F04AF82046D4
:102C400000F048F8002020772068006900F00100BB
:102C500058B12068C06800F0010030B16FF0010089
:102C600021680861204600F037F820680069C0F349
:102C7000C01058B12068C068C0F3C01030B16FF008
:102C80008000216808612046FFF725FF2068006961
:102C9000C0F3801058B12068C068C0F3801030B114
:102CA0006FF0400021680861204600F021F820689C
:102CB0000069C0F3401058B12068C068C0F34010EC
:102CC00030B16FF02000216808612046FFF704FF53
:102CD00010BD70477047000010B5044603492068D6
:102CE000884201D1FEF734FF10BD00000010004003
:102CF000704770472DE9F047044620680568206852
:102D0000C668206847694FF00008C14605F00F0803
:102D1000B8F1000F0AD105F0200038B106F020000C
:102D200020B1204601F0E4FDBDE8F087B8F1000FC6
:102D300072D007F0010018B906F4907000286BD02B
:102D400005F0010030B106F4807018B1E06B40F07E
:102D50000100E06305F0040030B107F0010018B194
:102D6000E06B40F00200E06305F0020030B107F0D4
:102D7000010018B1E06B40F00400E06305F00800CA
:102D800048B106F0200010B907F0010018B1E06B5F
:102D900040F00800E063E06B70B305F0200028B15C
:102DA00006F0200010B1204601F0A2FD2068406925
:102DB000C0F38019E06B00F0080010B9B9F1000F02
:102DC00023D0204601F074FD2068406900F04000E7
:102DD000402816D12068406920F0400021684861F1
:102DE000606B50B11748616B0865606BFDF7BAFF07
:102DF00010B1606B016D88470CE02046FFF779FF4A
:102E000008E02046FFF775FF04E02046FFF771FF5A
:102E10000020E06388E7FFE705F0800030B106F0AE
:102E2000800018B1204601F0ABFF7DE705F04000BF
:102E300030B106F0400018B1204601F049FD73E7BB
:102E400000BF71E79D48000810B504460CB9012089
:102E500010BDA06900B100E000BF94F8390028B9A6
:102E6000002084F83800204600F028F8242084F858
:102E700039002068C06820F400502168C8602046EE
:102E800001F08AFD2068006920F490402168086103
:102E90002068406920F02A00216848612068C068E5
:102EA00040F400502168C8600020E063202084F8CE
:102EB000390084F83A000020CAE7000010B586B057
:102EC0000446142101A8FDF743FA1F4920688842EF
:102ED00037D100BF002000901C48006840F400304B
:102EE0001A4908600846006800F40030009000BFEE
:102EF00000BF00BF0020009014481038006840F068
:102F000001001249103908600846006800F001000D
:102F1000009000BF00BF0C20019002200290002012
:102F20000390032004900720059001A90848FEF7AC
:102F300035F9002205212620FEF7B4FE2620FEF7F3
:102F4000A1FE06B010BD0000004400404038024021
:102F500000000240704710B5034693F8390020285E
:102F600023D101B10AB9012010BD00BF93F8380088
:102F7000012801D10220F7E7012083F8380000BFC3
:102F800019629A84DA840020D863212083F83900FA
:102F900000BF002083F8380000BF1868C06840F008
:102FA00080001C68E0600020DEE70220DCE770475C
:102FB00000BFFEE710B50248FEF7F6F910BD0000AD
:102FC0001C01002010B50248FEF758FA10BD0000A1
:102FD0001C010020C16AB1F52A0F02D10121C16292
:102FE00005E0C16AB1F12A4F01D10821C1627047E1
:102FF00070B50546AC6B94F83D60606B10B1002075
:10300000616BC863A06B10B10020A16BC86320681E
:10301000006820F480602168086000206085606B93
:1030200010B10020616B0865A06B10B10020A16B8E
:1030300008652068006820F001002168086094F8A5
:103040003D0060280AD1202084F83D00002084F84B
:103050003E0020642046FEF7A5F91EE006F0280099
:10306000282811D12068006840F00100216808601C
:103070002068006840F480602168086000202063B8
:10308000282084F83D0005E0202084F83D00002041
:1030900084F83E002046FEF7D3FA70BD70B50446B2
:1030A00094F83D6094F83E00102807D1222E05D1F7
:1030B0002068006820F400602168086006F028009D
:1030C000282805D100202063282084F83D000FE047
:1030D0002068406800F40060B0F5006F04D0602EF6
:1030E00002D0202084F83D000020206384F83E00B8
:1030F0002068406800F40060B0F5006F40D120689F
:10310000406820F4006021684860606B90F83500EA
:10311000012814D04848616B0865606BFDF722FEFA
:1031200000285BD02068006820F00100216808605A
:10313000202084F83D00606B016D88474EE03E48DA
:10314000A16B0865A06BFDF70DFE002846D0206836
:103150004069C0F3801030B120680069616A08706E
:10316000606A401C60622068006820F001002168ED
:103170000860202084F83D00A06B016D88472DE099
:1031800094F83D0060281AD1202084F83D000020EA
:10319000206420684069C0F3801030B12068006965
:1031A000616A0870606A401C60622068006820F0F4
:1031B0000100216808602046FEF7F4F80EE0206860
:1031C0004069C0F3801030B120680069616A0870FE
:1031D000606A401C60622046FEF732FA256C05F0FA
:1031E000010058B905F00200022807D005F00400DC
:1031F000042803D005F00800082805D1206840689D
:1032000020F4E0602168486094F83D60206C00F094
:10321000040004280ED1282E0CD10848E0620020BA
:103220002063202084F83D00002084F83E002046E2
:10323000FEF7F0FA70BD0000F12F00080000FFFF5C
:10324000014608684069C0F38020B0B16FF4806027
:103250000A68506100200863202081F83D000020AA
:1032600081F83E00086C40F00400086400BF0020B4
:1032700081F83C0000BF012070470020FCE770B5DA
:103280000446E56A608D042810D12068406820F467
:1032900080602168486020680069616A0870606A1F
:1032A000401C6062608D401E60857AE0608D03285E
:1032B0001AD12068406820F4806021684860042D9D
:1032C00007D0022D05D02068006820F480602168B6
:1032D000086020680069616A0870606A401C60626A
:1032E000608D401E60855CE0608D02284FD1012D0D
:1032F00001D0102D06D12068006820F4806021687C
:10330000086012E0042D01D0022D06D1206800686B
:1033100040F480602168086007E0102D05D0206827
:10332000006840F400702168086020680069616AE4
:103330000870606A401C6062608D401E6085206875
:103340000069616A0870606A401C6062608D401E9E
:1033500060852068406820F4407021684860202023
:1033600084F83D0094F83E00402807D1002084F8FE
:103370003E0020632046FEF750FA12E0002084F859
:103380003E00122020632046FEF745FA09E020683F
:103390000069616A0870606A401C6062608D401E4E
:1033A000608570BD70B5044694F83D0022284AD16E
:1033B000658D032D13D920680069616A0870606A01
:1033C000401C6062608D401E6085608D032839D18D
:1033D0002068406820F480602168486032E0E06A3C
:1033E00002282FD0012D00D01DBB2068006820F4DA
:1033F0008060216808602068406820F4E0602168EF
:10340000486020680069616A0870606A401C6062F8
:10341000608D401E6085202084F83D0094F83E00B9
:10342000402807D1002084F83E0020632046FEF7A4
:10343000F4F907E0002084F83E00122020632046C3
:10344000FEF7E9F900BF70BD70B50446E56A94F86F
:103450003D00212848D1608D50B1606A0078216814
:103460000861606A401C6062608D401E608542E0B9
:10347000082D16D0202D14D015F5803F11D02068CE
:10348000406820F4E060216848601120206300203B
:1034900084F83E00202084F83D002046FEF7BCF969
:1034A00029E02068406820F4E060216848602068D6
:1034B000006840F40070216808600020206320202C
:1034C00084F83D0094F83E00402806D1002084F89E
:1034D0003E002046FEF7A2F90DE0002084F83E00F1
:1034E0002046FEF799F906E094F83E00402802D104
:1034F000204600F005FA70BD2DE9F041044694F82D
:103500003D5094F83E70E66A208DB0BB212D3CD131
:10351000082E16D0202E14D016F5803F11D020682A
:10352000406820F4E060216848601120206300209A
:1035300084F83E00202084F83D002046FEF76CF918
:1035400044E02068406820F4E0602168486020681A
:10355000006840F40070216808600020206320208B
:1035600084F83D0094F83E00402807D1002084F8FC
:103570003E002046FEF752F928E006E0002084F8DD
:103580003E002046FEF748F920E0212D03D0402FD1
:103590001CD1222D1AD1608D30B92068406820F4EA
:1035A00080602168486011E094F83E00402803D113
:1035B000204600F0A5F909E0606A007821680861FA
:1035C000606A401C6062608D401E6085BDE8F081CD
:1035D000416CC9B202681161416B09B9816B59B183
:1035E000416BC96B11B9816BC96B29B1016849681D
:1035F00041F4006102685160704738B590F83E2090
:10360000C16A036B90F83D40222C73D1046D64B9FC
:10361000402A0AD100BF0024009404686469009421
:103620000468A469009400BF1AE1046DC4B9046978
:10363000B4F5404F14D100BF0024009404686469BD
:1036400000940468A469009400BF00BF0468246863
:1036500044F4807405682C60046D641C0465FFE00C
:10366000448D8CB900BF0024009404686469009400
:103670000468A469009400BF00BF0468246844F48F
:10368000007405682C60DDE0448D012C72D111F5C9
:10369000803F30D10468246824F4806405682C607D
:1036A0000468646804F40064B4F5006F10D1046821
:1036B000246824F4806405682C6000BF0024009412
:1036C0000468646900940468A469009400BFB9E0C8
:1036D00000BF002400940468646900940468A4692D
:1036E000009400BF00BF0468246844F400740568B7
:1036F0002C60A7E0A9E0082923D0202921D0122B93
:1037000001D101291DD104290AD0022908D010298C
:1037100006D00468246824F4806405682C6005E001
:103720000468246844F4806405682C6000BF0024A9
:1037300000940468646900940468A469009400BF5C
:1037400080E00468246824F4806405682C6000BF6D
:10375000002400940468646900940468A4690094D7
:1037600000BF00BF0468246844F4007405682C603E
:1037700068E0FFE7448D022C3BD1042910D00229D8
:103780000ED010290CD00468246824F480640568E5
:103790002C600468246844F4006405682C6005E02B
:1037A0000468246844F4806405682C6004686468D4
:1037B00004F40064B4F5006F10D111F5803F07D018
:1037C000012905D0082903D0102901D0202905D1CD
:1037D0000468646844F4805405686C6000BF002489
:1037E00000940468646900940468A469009400BFAC
:1037F00028E00468246844F4806405682C60046848
:10380000646804F40064B4F5006F10D111F5803FD2
:1038100007D0012905D0082903D0102901D020297B
:1038200005D10468646844F4805405686C6000BF86
:10383000002400940468646900940468A4690094F6
:1038400000BF00BF002404650AE000BF002400940C
:103850000468646900940468A469009400BF00BF10
:1038600038BD90F83E1040290ED1016D29B9416C48
:1038700001F0FE010268116141E0416CC9B241F002
:103880000101026811613AE00169B1F5804F20D170
:1038900090F83D10212905D1416C01F0FE0102682C
:1038A000116105E0416CC9B241F00101026811618A
:1038B000416B11B1416BC96B21B9816BF9B1816B5E
:1038C000C96BE1B10168496841F400610268516067
:1038D00015E0016D41B9416C01F44071F02242EAFA
:1038E000E111026811610AE0016D012907D1416C03
:1038F00001F44071F12242EAE1110268116170475E
:10390000016D99B9C16C012907D1816CC9B20268F6
:103910001161016D891C01652FE0816CC1F30721E4
:1039200002681161016D491C016526E0016D0129E4
:1039300007D1816CC9B202681161016D491C016532
:103940001BE0016D022918D190F83D10222906D103
:103950000168096841F48071026811600DE090F817
:103960003D10212909D1416A097802681161416A33
:10397000491C4162418D491E41857047418D49B1C5
:1039800001680969426A1170416A491C4162418DAE
:10399000491E4185704770B5044694F83D50608DCE
:1039A000D8B120680069616A0870606A401C606272
:1039B000608D401E6085608D78B92A2D0DD12068FC
:1039C000406820F48060216848602220206328201D
:1039D00084F83D002046FDF777FF70BD418D49B169
:1039E000416A097802681161416A491C4162418D4E
:1039F000491E4185704770B5044694F83D50608D6E
:103A0000D8B1606A007821680861606A401C606211
:103A1000608D401E6085608D78B9292D0DD120689C
:103A2000406820F4806021684860212020632820BD
:103A300084F83D002046FDF773FF70BD2DE9F0418D
:103A400004460D46002794F83D0000F02800282881
:103A50001CD12068406820F4806021684860C5F36C
:103A6000800000B90127C5F3C01010B9A08986B243
:103A700001E0208B86B200BF002084F83C0000BF2C
:103A8000324639462046FDF78EFC08E06FF0020012
:103A90002168486100BF002084F83C0000BFBDE8F9
:103AA000F081000070B5044694F83D50E66A082E97
:103AB00001D0202E1FD1282D1DD12148E062206881
:103AC000406820F4E060216848606FF480602168FD
:103AD00048612068006820F4806021680860002048
:103AE0002063202084F83D00002084F83E0020461A
:103AF000FDF790FE23E0212D1DD11148E062212029
:103B00002063202084F83D00002084F83E002068D7
:103B1000406820F4E060216848606FF480602168AC
:103B200048612068006820F48060216808602046B1
:103B3000FDF7F6FE03E06FF480602168486170BD18
:103B40000000FFFF38B5044694F83D5020684068F7
:103B500020F4E0602168486000BF002000902068E9
:103B6000406900902068006840F00100216808600A
:103B700000BF00BF2068006820F4806021680860F2
:103B80002068406800F40060B0F5006F42D1222D3B
:103B900001D02A2D1FD1A06B006840686085608D20
:103BA00018B1206C40F0040020642068406820F4C4
:103BB000006021684860A06BFDF7E8F8012829D073
:103BC0004148A16B0865A06BFDF7CCF810B3A06B62
:103BD000016D88471EE0606B006840686085608DFD
:103BE00018B1206C40F0040020642068406820F484
:103BF000006021684860606BFDF7C8F8012809D0B3
:103C00003148616B0865606BFDF7ACF810B1606B13
:103C1000016D8847608D18B320684069C0F380004B
:103C200048B120680069616A0870606A401C60627F
:103C3000608D401E608520684069C0F3801048B1E7
:103C400020680069616A0870606A401C6062608D6B
:103C5000401E6085608D18B1206C40F00400206427
:103C6000206C18B12046FFF719FA2BE02A2D07D156
:103C700000202063282084F83D002046FDF724FE24
:103C800094F83D0028280DD11048E0620020206300
:103C9000202084F83D00002084F83E002046FDF7F7
:103CA000B9FD0FE0206B222801D0222D0AD100207F
:103CB0002063202084F83D00002084F83E00204648
:103CC000FDF702FE38BD0000F12F00080000FFFFE5
:103CD0002DE9F04104460D4617461E46DDF81880D2
:103CE0001CE0701CD0B1FDF757FBA0EB0800B04200
:103CF00000D89EB900202063202084F83D000020D9
:103D000084F83E00206C40F02000206400BF0020BA
:103D100084F83C0000BF0120BDE8F081C5F30740F6
:103D200001280AD120684069A9B20840A9B2884296
:103D300001D101200BE0002009E020688069A9B2D0
:103D40000840A9B2884201D1012000E00020B84219
:103D5000C7D00020E0E770B504460D46164620E0C7
:103D60002046FFF76DFA08B1012070BD681CC0B194
:103D7000FDF712FB801BA84200D895B900202063F4
:103D8000202084F83D00002084F83E00206C40F0A4
:103D90002000206400BF002084F83C0000BF012008
:103DA000E3E720684069C0F3C0100028D8D00020A5
:103DB000DBE700001FB50020009001900290039007
:103DC0001E481F4908604FF48030486000211C489D
:103DD0008160012101610021017680F82010C1621B
:103DE000184981620021C1600221C161012180F86E
:103DF000301041611448124988630846FCF772FE8E
:103E000008B1FCF773FD002000900120019005200F
:103E1000029069460A48FCF76BFD08B1FCF766FDA5
:103E2000012000900220019005200290694604487C
:103E3000FCF75EFD08B1FCF759FD1FBD00200140F5
:103E4000D40000200100000F0802002000B587B058
:103E5000142102A8FCF77CFA00BF00200190294839
:103E6000006840F00100274908600846006800F03B
:103E70000100019000BF00BF00BF00200190084674
:103E8000006840F0040008600846006800F0040084
:103E9000019000BF00BF00BF0020019008460068ED
:103EA00040F0020008600846006800F0020001903F
:103EB00000BF00BF00224FF4F0711348FDF766FA0F
:103EC0004FF4F070029001200390002004900590C0
:103ED00002A90D48FDF762F94FF4005002900B481B
:103EE000039000200490059002A90748FDF756F9B9
:103EF000002205212820FDF7D5FE2820FDF7C2FE6F
:103F000007B000BD30380240000802400000211018
:103F100010B50C480C4908600C48486000210A485C
:103F20008160D021C1604FF4804101610021416175
:103F30008161C1610162FDF785FB08B1FCF7D6FC28
:103F400010BD0000005400401C010020A0860100AC
:103F500010B51048104908604FF4827048604FF463
:103F600000410D4881600021C160016141614FF451
:103F7000802181611021C161002101624162816261
:103F80000648054988640846FEF7AEFB08B1FCF711
:103F9000ADFC10BD00380040700100206802002018
:103FA00010B50B480B4908604FF461504860002180
:103FB00008488160C160016108214161002181617F
:103FC000C161FEF741FF08B1FCF790FC10BD000095
:103FD00000440040C801002000BFFEE77047000019
:103FE00000BF00210448006802F00AFE00F038FB20
:103FF000642002F061F8F4E7280000201CB500BF3F
:104000000A212448006802F0FBFD01283ED100206F
:1040100000F014FA01202021CDE900101E4800789C
:1040200008B11E4800E01E48024620230021084631
:1040300000F076F90A211B48007800F00FFA0122FF
:1040400019491AA000F0D8FA164908780978491CCD
:10405000144B1970152100F001FA0122124915A024
:1040600000F0CAFA0C48007880F001000A49087094
:104070000C4800785A2802D132200A4908700023DF
:104080001A4619460348006802F046FBC82002F0B1
:1040900013F8B5E72800002035000020347500082B
:1040A000B475000834000020BC00002048656C6C2A
:1040B0006F000000526168756C00000000BF4FF493
:1040C0007A7001F0F9FFFAE700BF4FF47A7001F05F
:1040D000F3FFFAE710B50248FEF758FA10BD0000EA
:1040E0007001002070B50546AC6B0020E087E086CB
:1040F0002046FEF745FA70BD70B50546AC6B2068EA
:10410000406820F0030021684860606D40F01000B6
:104110006065012084F851002046FEF731FA70BD39
:1041200070B50446A56B2846FEF7D4FC70BDF8B503
:104130000546AC6BFDF730F906462868006800F4C8
:104140008070B0F5807F2DD02068406820F020007E
:10415000216848602068406820F0020021684860BB
:1041600032466421204600F023F818B1606D40F01B
:1041700020006065A06850B900BF00200090206852
:10418000C068009020688068009000BF00BF0020D9
:10419000E086012084F85100606D18B12046FEF7DA
:1041A000EFF9F8BD2046FEF785FC00BFF9E70000F7
:1041B0007CB504460D461646164800681821B0FB2B
:1041C000F1F01549B0FBF1F04FF47A7148430190DA
:1041D0006068B0F5827F0DD12B46002280212046F9
:1041E000009600F01BF898B1606D40F0200060650B
:1041F00003207CBD00BF019800B908E00198401E73
:10420000019020688068C0F3C0100028F3D100BF7F
:104210000020EEE74400002040420F002DE9F0416D
:1042200004460E4617461D46DDF818803EE0681C21
:10423000D8B3FDF7B1F8A0EB0800A84200D2A5BBA7
:104240002068406820F0E000216848606068B0F5B0
:10425000827F0DD1A068B0F5004F03D0A068B0F503
:10426000806F05D12068006820F040002168086058
:10427000A06AB0F5005F0DD100BF2068006820F48F
:104280000050216808602068006840F400502168F0
:10429000086000BF012084F8510000BF002084F8AE
:1042A000500000BF0320BDE8F081FFE72068806870
:1042B0003040B04201D1012000E00020B842B6D128
:1042C0000020F0E710B5002000F0B8F800F0C8F9C1
:1042D00010BD000010B51048407908B9002010BD8D
:1042E00000224FF480710D48FDF750F8AE2001F028
:1042F00031FD012240210948FDF748F86420FCF710
:1043000029FF012220210548FDF740F8002002493D
:1043100048710120E3E7000020000020000802406F
:104320002DE9F84F80460D4691461E46DDF828B02F
:10433000F01DC11700EB5171C91009B200914FF087
:10434000000A002725E000241DE004F0070020B14A
:104350004FEA4A604FEA106A09E02046E11704EB91
:104360005171CA10009907FB012119F801A00AF048
:10437000800030B1A9B208EB040290B20B9A00F0B1
:104380000DF8601C04B2B442DFDB781C07B2681C75
:1043900005B25F45D7DBBDE8F88F0000F0B50346F6
:1043A0001446802B01DA202900DBF0BD214800797A
:1043B00020B10CB9012000E000200446012C1CD1E2
:1043C000CD1701EB5575ED1003EBC5151A4E755D54
:1043D0000A46CE1701EB5676F610A1EBC60701266A
:1043E000BE403543EEB20846CD1701EB5575ED10D2
:1043F00003EBC515104F7E551AE0CD1701EB55752F
:10440000ED1003EBC5150C4E755D0A46CE1701EB9A
:104410005676F610A1EBC6070126BE40B543084606
:10442000CE1701EB5676F61003EBC616024FBD55BC
:1044300000BFBAE7200000203C4C002010B5044625
:104440000CB9002000E0FF2002464FF40071024842
:10445000FBF777FF10BD00003C4C0020014A1080A4
:10446000518070472000002010B53648FEF789F8CB
:10447000012801D0002010BD00224FF48071324885
:10448000FCF784FF002220212F48FCF77FFF0A2041
:10449000FCF760FEAE2001F05DFC00F0C3F88D205B
:1044A00001F058FC142001F055FCD92001F052FC19
:1044B000F12001F04FFCFFF705FF002240212248C8
:1044C000FCF764FF6420FCF745FED52001F042FCB8
:1044D000F02001F03FFC812001F03CFC0F2001F0B6
:1044E00039FCA82001F036FC3F2001F033FC2020ED
:1044F00001F030FC002001F02DFCA12001F02AFC8D
:10450000C82001F027FCDA2001F024FC202001F073
:1045100021FCA62001F01EFC2E2001F01BFCAF2088
:1045200001F018FC002009490880488001204871EA
:104530000020887100BF054880790028FBD1012048
:1045400099E70000700100200008024020000020D0
:104550002DE9F04307460C4690462648008821780E
:104560000844802805DA23484088617808442028D8
:1045700002DB0020BDE8F083002530E0A7F1200039
:10458000617800FB0150616831F81090002622E04C
:1045900009FA06F000F4004058B1164A52882A443D
:1045A00091B2144A1288324490B24246FFF7F6FEA6
:1045B00010E0B8F1000F01D1012300E000231A46FA
:1045C0000C4B5B882B4499B20A4B1B88334498B23E
:1045D000FFF7E4FE761C2078B042D9D86D1C6078D5
:1045E000A842CBD8034800882178084401490880B4
:1045F0003846BFE72000002070B504460D46164639
:104600000AE0207832462946FFF7A2FF2178884247
:1046100001D0207870BD641C20780028F1D120786A
:10462000F8E7000010B5002240210648FCF7AEFE76
:104630000120FCF78FFD012280210248FCF7A6FE35
:1046400010BD00000008024010B50448407910B1C8
:10465000FFF740FE01E0FFF707FF10BD200000203C
:1046600010B500BF024801F089FB0028FAD110BD47
:104670003C4C002000BF0A210748006802F0C0FA45
:10468000012804D1022205490548FCF7A9FA4FF494
:104690007A7001F011FDEEE72C00002000000020F0
:1046A000D400002010B500BF502080F31188BFF364
:1046B0004F8FBFF36F8F00BF02F06AFC18B14FF04D
:1046C00080500449086000BF002080F3118800BFBB
:1046D00010BD000004ED00E000B593B0342106A841
:1046E000FBF736FE142101A8FBF732FE00BF0020C5
:1046F00000902748006840F080502549086008462F
:10470000006800F08050009000BF00BF00BF002094
:1047100000902048006840F440401E490860084668
:10472000006800F44040009000BF00BF02200690E7
:104730000120099010200A9002200C9000210D9178
:1047400008210E91B4210F91022110911191129123
:1047500006A8FDF7D5FC08B1FCF7C8F8FDF7F4FA98
:1047600008B1FCF7C3F80F2001900320029000204D
:1047700003904FF4A05004904FF480500590052111
:1047800001A8FDF727FB08B1FCF7B0F813B000BD96
:1047900040380240007000400548006840F4700056
:1047A000034908604FF00060014980390860704794
:1047B00088ED00E010B50248FEF7C0F910BD00001A
:1047C0002803002010B50268294B98420ED0B0F1A2
:1047D000804F0BD0274B984208D0274B984205D0EA
:1047E000264B984202D0264B984203D122F0700209
:1047F0004B681A431E4B984220D0B0F1804F1DD019
:104800001C4B98421AD01C4B984217D01B4B984215
:1048100014D01B4B984211D01A4B98420ED01A4B11
:1048200098420BD0194B984208D0194B984205D0AA
:10483000184B984202D0184B984203D122F4407290
:10484000CB681A4322F080034C6943EA04020260F9
:104850008B68C3620B688362054B984202D0084B99
:10486000984201D10B6903630123436110BD00002D
:10487000000001400004004000080040000C00401F
:104880000004014000400140004401400048014054
:1048900000180040001C00400020004070B5054694
:1048A000AC6B0020E085E0842046FEF722FA70BD64
:1048B0000168C96821F490710268D1600168496992
:1048C00021F0010102685161202180F83A107047FF
:1048D00010B504462068C06820F040002168C86018
:1048E000202084F839002046FEF761FB002010BD2F
:1048F00070B5044694F83A0022284AD1A068B0F571
:10490000805F13D1A56A206940B920684068C0F370
:1049100008002880A06A801CA06219E02068406816
:10492000C0B22880A06A401CA06211E0206938B99A
:1049300020684068C1B2A26A501CA062117007E0F2
:104940002068406800F07F01A26A501CA0621170CC
:10495000E08D401E80B2E085C8B92068C06820F0B4
:1049600020002168C8602068C06820F48070216839
:10497000C8602068406920F001002168486120205B
:1049800084F83A002046FEF7E5FA002070BD0020CA
:10499000FCE70220FAE700002DE9F84F0446206802
:1049A000006920F44050E1680843216808612169EA
:1049B000A068084361690843E169084300902068E2
:1049C000C06849F20C618843009908432168C860B7
:1049D0002068406920F44070A1690843216848615B
:1049E000E069B0F5004F75D1E3492068884203D0F3
:1049F000E249206888426FD1FDF7E6FA814602203D
:104A00006168A0FB01510B461920A9FB00712A46E1
:104A10003846FBF753FC6421B0FBF1F04FEA001A73
:104A200002206168A0FB01510B461920A9FB00710F
:104A30002A463846FBF742FC074602206168A0FB85
:104A400001510B461920A9FB00B12A465846FBF735
:104A500035FC6421B0FBF1F000EBC00101EB00106C
:104A6000A7EB8000322101EBC0006421B0FBF1F024
:104A700000F0F8000AEB400A02206168A0FB015137
:104A80000B461920A9FB00712A463846FBF716FC95
:104A9000074602206168A0FB01510B461920A9FBC3
:104AA00000B12A465846FBF709FC6421B0FBF1F03F
:104AB00000EBC00101EB0010A7EB8000322101EBFD
:104AC000C0006421B0FBF1F000F007005044216801
:104AD00088604FE16EE0FFE7FDF766FA814602204D
:104AE0006168A0FB01510B461920A9FB00712A4601
:104AF0003846FBF7E3FB6421B0FBF1F04FEA001A04
:104B000002206168A0FB01510B461920A9FB00712E
:104B10002A463846FBF7D2FB074602206168A0FB15
:104B200001510B461920A9FB00B12A465846FBF754
:104B3000C5FB6421B0FBF1F000EBC00101EB0010FC
:104B4000A7EB8000322101EBC0006421B0FBF1F043
:104B500000F0F8000AEB400A02206168A0FB015156
:104B60000B461920A9FB00712A463846FBF7A6FB25
:104B7000074602206168A0FB015003461920A9FBEB
:104B800000B12A465846FBF799FB6421B0FBF1F0CF
:104B900000EBC00101EB0010A7EB8000322101EB1C
:104BA000C0006421B0FBF1F000F007005044216820
:104BB0008860DFE070492068884203D06F49206830
:104BC00088426BD1FDF700FA814604206168A0FBA2
:104BD00001510B461920A9FB00712A463846FBF704
:104BE0006DFB824604206168A0FB01510B46192031
:104BF000A9FB00712A463846FBF760FB6421B0FB35
:104C0000F1F000EBC00101EB0010AAEB80003221B3
:104C100001EB00106421B0FBF1F000F0F00A042079
:104C20006168A0FB015003461920A9FB00712A46C8
:104C30003846FBF743FB6421B0FBF1F00AEB001AA6
:104C400004206168A0FB01510B461920A9FB0071EB
:104C50002A463846FBF732FB074604206168A0FB72
:104C6000015003461920A9FB00B12A465846FBF71C
:104C700025FB6421B0FBF1F000EBC00101EB00105B
:104C8000A7EB8000322101EB00106421B0FBF1F0B2
:104C900000F00F005044216888606BE0FDF784F954
:104CA000814604206168A0FB015003461920A9FB3E
:104CB00000712A463846FBF701FB824604206168F2
:104CC000A0FB015003461920A9FB00712A46384673
:104CD000FBF7F4FA6421B0FBF1F000EBC00101EB4B
:104CE0000010AAEB8000322101EB00106421B0FB20
:104CF000F1F000F0F00A04206168A0FB01500346C7
:104D00001920A9FB00712A463846FBF7D7FA64211F
:104D1000B0FBF1F00AEB001A04206168A0FB0170FF
:104D200003461920A9FB005001463A462846FBF7E6
:104D3000C5FA074604206168A0FB0150034619200C
:104D4000A9FB00B12A465846FBF7B8FA6421B0FB2C
:104D5000F1F000EBC00101EB0010A7EB8000322165
:104D600001EB00106421B0FBF1F000F00F005044A3
:104D700021688860BDE8F88F0010014000140140F0
:104D8000014691F8390021282CD18868B0F5805F60
:104D90000FD10A6A1088C0F308000B6858600869D0
:104DA00018B9086A801C086209E0086A401C086299
:104DB00005E00B6A581C086218780B685860C88CAC
:104DC000401E80B2C88458B90868C06820F08000CE
:104DD0000B68D8600868C06840F040000B68D86075
:104DE000002070470220FCE710B50248FDF782FF63
:104DF00010BD0000C801002000BFFEE70FB4084B43
:104E000010B504A902AA039800F038F8044602A9D4
:104E1000002000F0DDF8204610BC5DF814FB000017
:104E2000D14F000802480068C0F30220704700001C
:104E30000CED00E010B5002804DB0A07130E054A4C
:104E4000135406E00A07140E034A00F00F031B1F59
:104E5000D45410BD00E400E018ED00E002E008C802
:104E6000121F08C1002AFAD170477047002001E0E4
:104E700001C1121F002AFBD1704700002DE9FF4F2E
:104E800089B09B460446002506E025280BD05A46EB
:104E90000B999047641C6D1C20780028F5D10DB04B
:104EA0002846BDE8F08F0027B8460122474900E0B8
:104EB000074314F8013F203B02FA03F00842F7D100
:104EC00020782E2819D114F8010F47F004072A285A
:104ED0000ED06FF02F022078A0F1300109290CD8F4
:104EE00008EB880102EB410100EB0108641CF2E7CA
:104EF0000A98641C50F8048B0A9020780028CED0C1
:104F0000642808D0692806D075281ED05A460B9907
:104F100090476D1C58E00A994FF00A0901C90A919F
:104F2000002802DA40422D2102E0390504D52B2168
:104F30008DF82010012103E0F90704D02021F7E7C4
:104F40008A4608AE0DE00021FAE70A994FF00A09F7
:104F500001C90A91F7E74946FBF70CFA303106F828
:104F6000011D0028F7D1ADEB060000F120097807FC
:104F700001D44FF00108C84502DDA8EB090000E0AC
:104F800000208046002706E008A85A46C05D0B991D
:104F900090476D1C7F1C5745F6DB04E030205A46D5
:104FA0000B9990476D1CB8F10001A8F10108F5DCE0
:104FB00005E016F8010B5A460B9990476D1CB9F1A4
:104FC0000001A9F10109F4DC641C65E7092801006E
:104FD0000A68531C0B6010707047000088B0FCF723
:104FE000C3FDFFF779FBFEF731FFFEF7D9FFFEF7B0
:104FF000E1FEFEF7ADFFFEF78BFFFBF711FBFBF7C2
:1050000051FBFBF797FB03220021012001F098FAE6
:105010003E49086003220021012001F091FA3C4939
:10502000086003220021012001F08AFA3949086052
:105030003648006838B13648006820B10846006834
:1050400008B1012000E0002050B900BF502080F3DB
:105050001188BFF34F8FBFF36F8F00BF00BFFEE714
:1050600000231A4619462948006801F055FB002321
:105070001A4619462648006801F04EFB00231A46DE
:1050800019462448006801F047FBFFF7EDF90128B5
:1050900001D0FBF72BFC01221F492048FCF742FC02
:1050A00007A8012100232022CDE900101CA12148DE
:1050B00001F0C8FE06A8022100232022CDE900103D
:1050C0001DA1214801F0BEFE05A8032100232022D6
:1050D000CDE900101DA1224801F0B4FE04A804216E
:1050E00000232022CDE900101EA1234801F0AAFED2
:1050F00003A8052100232022CDE900101FA1244888
:1051000001F0A0FE01F0BCF800BFFEE72C0000207B
:105110003000002028000020080000201C01002092
:105120004F4C45445F5570646174655F44697370AA
:1051300000000000E13F00084F4C45445F57726992
:1051400074655F5461736B00FD3F000857617465BF
:10515000725F506C616E745F5461736B000000008D
:10516000C940000853656E736F725F526561645F7A
:105170005461736B0000000075460008506C616E4E
:10518000745F57617465725F5461736B0000000057
:10519000BD4000082DE9F04105460E461648076857
:1051A00016480068001D00F007FE681C38B936B1CB
:1051B00012480168091D124800F054FE1AE07C19DB
:1051C0000E4800684460BC4207D20C480168091DC3
:1051D0000C48006800F02CFE0CE008480168091D2E
:1051E0000948006800F024FE08480068844201D2A3
:1051F00006480460BDE8F0815C0000204800002003
:1052000058080020500000204C00002078000020AA
:1052100010B5044600F032FE24480068401C2349C3
:1052200008602348006840B92148046008460068C7
:1052300001280DD100F006FA0AE01E48006838B9CE
:105240001B480068C06AE16A884201D818480460B7
:1052500019480068401C18490860084600686064E6
:105260001649E06A0968884202D91449E06A086070
:10527000E16A01EB8101124A02EB8100211D00F07D
:10528000F1FD00F025FE0B48006868B10848006891
:10529000C06AE16A884207D24FF08050094908602D
:1052A000BFF34F8FBFF36F8F10BD00005800002079
:1052B00048000020640000207400002060000020EE
:1052C000A803002004ED00E008B500F0D7FD124867
:1052D0000068E8B9114800F09BFD114800F098FD06
:1052E0000E48104908600E480F49086000200F4B17
:1052F0000F4A102100900A2001F052F90649086077
:105300000846006820B10BA10348006800F098FE31
:1053100000F0DEFD08BD00008C0000206C080020BD
:1053200080080020840000208800002094080020CD
:10533000E4080020546D72510000000010B516E022
:1053400000F09CFD0C48C068C468201D00F034FDCE
:105350000A480068401E0949086009480068401E64
:105360000749086000F0B4FD204600F05FF80448EB
:1053700000680028E4D110BD440800205800002037
:105380005400002070B504460D46206C70B1216CAD
:10539000E0680144E160D4E90210884201D3216849
:1053A000E1602846226CE168FAF7B9FF70BD2DE98B
:1053B000F04104460F4615464FF00008A66B206CDE
:1053C00048B9206800282CD1A06801F083FE8046EF
:1053D0000020A06025E07DB93946226C6068FAF7AC
:1053E0009EFF216C606808446060D4E90101884236
:1053F00017D32068606014E03946226CE068FAF741
:105400008EFF216CE068411AE1602168E068884203
:1054100003D2216CA068411AE160022D01D106B1CE
:10542000761E701CA0634046BDE8F08110B50446AE
:1054300094F8590030B9206B00F068FD204600F068
:1054400065FD1AE094F85900012803D1204600F0C8
:105450005DFD12E094F85900022801D1012000E01E
:10546000002050B900BF502080F31188BFF34F8F48
:10547000BFF36F8F00BF00BFFEE710BD01464A6A51
:1054800022B10A6B1268C2F1380000E000207047B8
:105490000146084A126812680AB9012200E0002297
:1054A0000A600A6822B9034A1268D268106800E0EC
:1054B000002070478400002030B54FF47053174827
:1054C00000F007042CB1C01D20F00700134C041B92
:1054D0001B1B0246124C22600024114D6C60D01838
:1054E000083820F007000F4C206000240D4D2D6877
:1054F0006C600C4D2D682C601146441A4C60094CB0
:1055000024680C60084D4C682C60084D4C682C6079
:105510004FF00044064D2C6030BD00003C100020D0
:1055200098000020A0000020A8000020A400002077
:10553000AC00002000BFFFF701FF0648006801280B
:10554000F9D94FF0805004490860BFF34F8FBFF383
:105550006F8FF0E7A803002004ED00E02DE9F04193
:1055600006460D4617469846069C0DB9246000E095
:105570002760E66325640121204601F081F884F864
:105580004C80BDE8F0812DE9F05F82460E469046E2
:105590009B460A9F0C9C4FEA8801A522206BFAF7D4
:1055A000D0FEA8F10100216B01EB800929F0070969
:1055B00009F0070008B9012000E0002050B900BF41
:1055C000502080F31188BFF34F8FBFF36F8F00BF60
:1055D00000BFFEE786B1002507E0715D04F13400ED
:1055E0004155705D00B902E06D1C102DF5D300BF70
:1055F00000214320015502E0002084F83400382FB8
:1056000000D33727E762E76400202065201D00F003
:105610000CFC04F1180000F008FC2461C7F138000C
:10562000A06164620020606584F858005A465146C3
:10563000484600F079FB20600B9808B10B98046095
:10564000BDE8F09F10B5002407E004EB84010F4A89
:1056500002EB810000F0DCFB641C382CF5D30C4815
:1056600000F0D6FB0B4800F0D3FB0B4800F0D0FB5A
:105670000A4800F0CDFB0A4800F0CAFB044809497B
:10568000086004480849086010BD0000A803002015
:10569000080800201C0800203008002044080020D2
:1056A000580800204C0000205000002010B5014692
:1056B000164800E0006803688B42FBD3024643684B
:1056C00013448B4204D143684C6823444360014631
:1056D0000A464B6813440468A34211D10C4C03687A
:1056E0002468A34208D04B680468646823444B6074
:1056F00003681B680B6005E0054B1B680B6001E04D
:1057000003680B60884200D0016010BD9800002043
:10571000A00000202DE9F04104460D4616461F4624
:105720004FF0000865602461B5420CD8F01BA169F8
:10573000884202D34FF0010811E0211D094800689A
:1057400000F076FB0BE0BE4204D2BD4202D34FF024
:10575000010804E0211D0448006800F069FB404690
:10576000BDE8F081880000208400002070B5054667
:1057700000F084FBA86B08B9012400E0002400F0CD
:10578000A7FB204670BD70B5054600F077FBA86BFF
:10579000E96B884201D1012400E0002400F098FB6D
:1057A000204670BDF8B505460F461A480068C06827
:1057B000C468201D00F000FB94F8280000F00400ED
:1057C000E8B1A06941192B463A462046FFF7A2FFEF
:1057D000D8B1002003462A4601460090204601F039
:1057E00027FE064656B900BF502080F31188BFF34C
:1057F0004F8FBFF36F8F00BF00BFFEE705E094F847
:10580000280020F0010084F828002046216A8847FB
:10581000F8BD000084000020F0B587B0A0E0039838
:10582000002811DA04AE56B900BF502080F3118869
:10583000BFF34F8FBFF36F8F00BF00BFFEE7D6E906
:105840000020B168904700BF03980028E6DB059C64
:10585000606908B9012000E0002010B9201D00F0A7
:10586000ABFA02A800F0DEF8054603980A2875D2C4
:10587000DFE800F009050739416306083A4200BF36
:1058800000BF00BF00BF94F8280040F0010084F87A
:1058900028000498A269811803462A462046FFF78B
:1058A00039FFF8B12046216A884794F8280000F0B3
:1058B0000400B8B1002000900498A16942180023A8
:1058C0001946204601F0B4FD074657B900BF5020E5
:1058D00080F31188BFF34F8FBFF36F8F00BF00BFFE
:1058E000FEE700BF3BE000BF94F8280020F0010075
:1058F00084F8280033E000BF94F8280040F001004D
:1059000084F828000498A061A06908B1012000E093
:10591000002050B900BF502080F31188BFF34F8F93
:10592000BFF36F8F00BF00BFFEE7A06941192B4690
:105930002A462046FFF7EEFE11E094F8280000F01A
:10594000020018B9204600F0E1FA05E094F82800BA
:1059500020F0010084F8280001E0FFE700BF00BF4D
:10596000002203A90448006801F096F800287FF49B
:1059700056AF07B0F0BD00008C000020F8B505461A
:105980000C4600F0D9FC684600F04CF8064600983A
:1059900020BB44B9B54206D801F08CFC31462846FC
:1059A000FFF700FF1CE03CB10E480068006808B932
:1059B000012000E000200446A91B22460A48006896
:1059C00000F054FB01F076FC50B94FF080500749CD
:1059D0000860BFF34F8FBFF36F8F01E001F06AFCE7
:1059E000F8BD0000880000208C00002004ED00E0DD
:1059F0000A490968096809B9012100E0002121B1BB
:105A00004FF0FF31064A116006E004490968C96891
:105A1000C868034A41681160704700004C000020CC
:105A20007800002070B5044601F0ACFA054607483E
:105A30000068854204D200F00BF80120206001E0EC
:105A40000020206001480560284670BD94000020B9
:105A50002DE9F84334E025480068C068056823480C
:105A60000068C068C468201D00F0A6F92046216ABD
:105A7000884794F8280000F0040008B3A06946198C
:105A8000AE4207D966602461211D1848006800F005
:105A9000CFF915E0002003462A4601460090204633
:105AA00001F0C6FC074657B900BF502080F31188AB
:105AB000BFF34F8FBFF36F8F00BF00BFFEE700BF84
:105AC0000A480068006808B9012000E000200028AA
:105AD000C1D00648D0F80080054800680349086036
