:020000040800F2
:10000000B04F002099020008593B0008AD2C0008B1
:10001000553B000885060008C545000800000000A3
:10002000000000000000000000000000D9010008EE
:10003000FB0800080000000035020008713E0008BF
:10004000B3020008B3020008B3020008B3020008BC
:10005000B3020008B3020008B3020008B3020008AC
:10006000B3020008B3020008B3020008B30200089C
:10007000B3020008B3020008B30200080D0700082D
:10008000B3020008B3020008B3020008B30200087C
:10009000B3020008B3020008B3020008B30200086C
:1000A000B3020008B3020008B3020008B30200085C
:1000B000B3020008B3020008B3020008C12C000814
:1000C000B12C0008B3020008B3020008B302000814
:1000D000653B0008B3020008B5450008B3020008FC
:1000E000B3020008B3020008B3020008B30200081C
:1000F000B3020008B3020008B3020008B30200080C
:10010000B3020008B3020008B3020008B3020008FB
:10011000B3020008B3020008813F0008B3020008E0
:10012000E1070008B3020008B3020008B3020008A8
:10013000B30200080000000000000000B302000845
:10014000B3020008B3020008B3020008B3020008BB
:10015000B3020008B3020008B3020008B3020008AB
:10016000B3020008B3020008B3020008B30200089B
:10017000B3020008B3020008B30200080000000048
:1001800000000000B30200080000000000000000B2
:10019000B30200080000000000000000B3020008E5
:1001A000000000000000000000000000B302000892
:1001B000B3020008B3020008B3020008B30200084B
:1001C000B3020008DFF80CD000F00AF9004800473D
:1001D000B9470008B04F00202C4B19680868B0E8F8
:1001E000F04F80F30988BFF36F8F4FF0000080F36A
:1001F000118870470000000008480068006880F31C
:1002000008884FF0000080F3148862B661B6BFF32F
:100210004F8FBFF36F8F00DF00BF00BF08ED00E01E
:10022000DFF80C00016841F470010160704700BF05
:1002300088ED00E0EFF30980BFF36F8F134B1A686E
:100240001EF0100F08BF20ED108A20E9F04F10605B
:1002500009B44FF0500080F31188BFF34F8FBFF304
:100260006F8F05F0E5FB4FF0000080F3118809BCAB
:1002700019680868B0E8F04F1EF0100F08BFB0EC26
:10028000108A80F30988BFF36F8F70472C0000201D
:10029000EFF3058070470000064880470648004796
:1002A000FEE7FEE7FEE7FEE7FEE7FEE7FEE7FEE726
:1002B000FEE7FEE7653F0008C50100082DE9F05F95
:1002C0000546002092469B468846064681464024C5
:1002D0001BE0284641464746224600F070F8534648
:1002E0005A46C01A914110D311461846224600F0D2
:1002F00057F82D1A67EB01084F46224601200021CE
:1003000000F04EF817EB00094E41201EA4F1010445
:10031000DFDC484631462A464346BDE8F09F40EAC6
:1003200001039B0703D009E008C9121F08C0042A73
:10033000FAD203E011F8013B00F8013B521EF9D25A
:100340007047D2B201E000F8012B491EFBD2704782
:100350000022F6E710B513460A4604461946FFF791
:10036000F0FF204610BD421C10F8011B0029FBD1F4
:10037000801A704730B50B46014600202022012428
:1003800009E021FA02F59D4205D303FA02F5491B63
:1003900004FA02F52844151EA2F10102F1DC30BD79
:1003A000202A04DB203A00FA02F100207047914035
:1003B000C2F1200320FA03F3194390407047202A2A
:1003C00004DB203A21FA02F00021704721FA02F3FF
:1003D000D040C2F120029140084319467047000006
:1003E000064C074D06E0E06840F0010394E8070082
:1003F00098471034AC42F6D3FFF7E8FEE4680008F3
:100400000469000870B50546AC6B206C00F0500024
:1004100050BB206C40F4007020642068806800F0BD
:100420004050E8B9207ED8B92068C06A00F4700056
:1004300020B12068806800F4806088B92068406836
:1004400020F0200021684860206C20F48070206437
:10045000206C00F4805018B9206C40F0010020643A
:10046000204600F01FFB0BE0206C00F0100018B1DC
:10047000204600F019FB03E0A06BC16C28468847BA
:1004800070BD70B50546AC6B40202064606C40F0D8
:1004900004006064204600F007FB70BD70B50446A0
:1004A000A56B284600F0FFFA70BD000055494A6868
:1004B00022F440324A604A6843681A434A6002683C
:1004C000526822F4807203685A60026853680269B5
:1004D00043EA022203685A600268526822F04072BE
:1004E00003685A600268526883681A4303685A6056
:1004F0000268926822F4006203689A600268926857
:10050000C3681A4303689A603F4B826A9A4218D0C4
:100510000268926822F0706203689A6002689268CA
:10052000836A1A4303689A600268926822F0405214
:1005300003689A6002689268C36A1A4303689A6003
:100540000BE00268926822F0706203689A600268A9
:10055000926822F0405203689A600268926822F022
:10056000020203689A6002689368027E43EA4202CC
:1005700003689A602022125CA2B10268526842F4B9
:10058000006203685A600268526822F4604203689D
:100590005A6002685368426A521E43EA4232036854
:1005A0005A6005E00268526822F4006203685A60EB
:1005B0000268D26A22F470020368DA620268D36ABF
:1005C000828B521E43EA02520368DA620268926822
:1005D00022F4007203689A600268936890F83020F1
:1005E00043EA422203689A600268926822F48062B9
:1005F00003689A6002689368426943EA822203684A
:100600009A607047002301400100000F00BF2021C5
:10061000034800F0FDFEFA2004F01AF9F7E70000A5
:100620000008024086B000BF11A30FCBCDE9042320
:10063000CDE9020102A8FFF796FEC0B2019000BF0B
:10064000012201A90E4802F069F80028F8D100BF84
:1006500002A8FFF788FE84B2224602A9084801F0EA
:10066000E5FF0028F4D14FF47A7004F0F1F8DBE7ED
:10067000576861747320757020627275760000008F
:100680004001002000BFFEE708B500BF0020009039
:100690001A48006840F400101849086008460068CD
:1006A00000F40010009000BF00BF15481549086015
:1006B000002048604021134881600021C161C16071
:1006C0004FF4806101610021C16201634162816177
:1006D00041614FF4403101620B480A498863084682
:1006E00000F0DEFC08B100F009F9002205210F201E
:1006F00001F0E2F90F2001F0CFF908BD30380240D7
:1007000070600240380200204001002010B502480D
:1007100000F0A6FB10BD00003802002030B58DB0FF
:1007200005460A4800F0F8FA0948028809A1684617
:1007300003F04AFF6846FFF716FE84B22246694678
:10074000064802F086FA0DB030BD0000A40000207B
:100750000000002025690D0A00000000980100201B
:1007600008B500BF002000901948006840F48000E0
:10077000174908600846006800F48000009000BF38
:1007800000BF144814490860002048600021124846
:100790008160C161C1600161C162016341624FF466
:1007A0000051816189104161490101620B480A4988
:1007B000C863084600F074FC08B100F09FF80022FE
:1007C0000521382001F078F9382001F065F908BDDD
:1007D0003038024010640240D80100201D07000894
:1007E00010B5024800F03CFB10BD0000D80100200D
:1007F0000146087810381823B0FBF3F20848805CF3
:10080000C865032A05D908686FF30900001D8865CB
:1008100003E008686FF309008865886D7047000081
:1008200090680008014600208A6A8B69CBB932B112
:10083000012A0DD0022A03D0032A10D10EE000BFF6
:10084000CB6A03F08073B3F1807F00D1012007E011
:10085000CB6AB3F1C07F00D1012001E000E000BF0E
:1008600034E08B69B3F5005F1AD132B1012A07D0A9
:10087000022A03D0032A11D10AE000BF01200EE0B2
:10088000CB6A03F08073B3F1807F00D1012006E0D2
:10089000CB6AB3F1C07F00D1012000E000BF15E0BA
:1008A00032B1012A05D0022A04D0032A0CD103E078
:1008B00000BF00BF012008E0CB6A03F08073B3F1F2
:1008C000807F00D1012000E000BF00BF704730B53D
:1008D0000468246824F4802405682C60046863603C
:1008E0008468402C04D10468A2600468E16003E0DD
:1008F0000468A1600468E26030BD70477047000082
:1009000038B502460020009000BF92F83C00012854
:1009100001D1022038BD012082F83C0000BF0868E8
:10092000092816D91068C0680C780A3C04EB440505
:100930000724AC40A0431468E0600C780A3C04EB48
:1009400044048868A0401468E46820431468E060A8
:1009500013E0106800690C7804EB44050724AC40F0
:10096000A043146820610C7804EB44048868A0401C
:10097000146824692043146820614868072817D246
:100980001068406B0C79641E04EB84051F24AC4096
:10099000A04314686063088880B20C79641E04EB7D
:1009A0008404A0401468646B20431468606331E0E1
:1009B00048680D2817D21068006B0C79E41F04EB0F
:1009C00084051F24AC40A04314682063088880B2CB
:1009D0000C79E41F04EB8404A0401468246B2043CA
:1009E0001468206316E01068C06A0C790D3C04EBB3
:1009F00084051F24AC40A0431468E062088880B2DC
:100A00000C790D3C04EB8404A0401468E46A204394
:100A10001468E0621E4B1F4C1068A0420AD108689F
:100A2000122807D1586820F400005860586840F434
:100A300080005860174C1068A04222D1164C0868FC
:100A4000A04202D0086811281BD1586820F4800009
:100A50005860586840F4000058600F4C0868A04285
:100A60000FD10E4800680E4CB0FBF4F000EB800094
:100A70004000009002E00098401E0090009800287E
:100A8000F9D100BF002082F83C0000BF00BF41E761
:100A90000023014000200140120000102800002027
:100AA00040420F00704770477047000070B5044621
:100AB00000250CB9012070BD1549A06A884200D0FC
:100AC00000BF206C30B9204600F024F8002060649C
:100AD00084F83C00206C00F0100088B9206C20F4F1
:100AE000885040F0020020642046FFF7DFFC002021
:100AF0006064206C20F0020040F00100206400E0FF
:100B0000012500BF002084F83C0000BF2846D2E742
:100B10000100000F10B586B00446142101A8FFF7AC
:100B200017FC1949206888422BD100BF0020009093
:100B30001648006840F48070144908600846006850
:100B400000F48070009000BF00BF00BF0020009044
:100B50000E481438006840F001000C491439086050
:100B60000846006800F00100009000BF00BF0120AF
:100B70000190032002900020039001A9044800F096
:100B80004FFB06B010BD0000002001404438024079
:100B900000000240F8B504460D46164600200090BD
:100BA00000BF94F83C00012801D10220F8BD0120CB
:100BB00084F83C0000BF2068806800F00100A0B904
:100BC0002068806840F0010021688860494800681A
:100BD0004949B0FBF1F000EB4000009002E00098C2
:100BE000401E009000980028F9D12068806800F02D
:100BF000010000287CD0206C40F20161884340F461
:100C0000807020642068406800F4806028B1206C07
:100C100020F4005040F480502064206C00F4805098
:100C2000B0F5805F04D1606C20F00600606401E0E4
:100C30000020606400BF002084F83C0000BF2F4FFC
:100C40002F48A16BC8632F48A16B08642E48A16B85
:100C5000C8646FF02200216808602068406840F096
:100C60008060216848602068806840F48070216856
:100C70008860226802F14C0133462A46A06B00F0DE
:100C800085FA786800F01F0018BB20492068884268
:100C900013D01F492068884204D1381D006800F035
:100CA0001F0050B11B492068884221D11348001D04
:100CB000006800F01F0010281AD22068806800F039
:100CC000405028B92068806840F0804021688860E2
:100CD0000EE00E49206888420AD12068806800F042
:100CE000405028B92068806840F0804021688860C2
:100CF00000205BE72800002040420F000023014055
:100D0000050400089D040008830400080020014039
:100D1000002101400022014070B50446002500BFBB
:100D200094F83C00012801D1022070BD012084F814
:100D30003C0000BF2068806820F0010021688860C6
:100D40002068806800F00100A8B92068806820F45D
:100D5000807021688860A06B00F014F80546206858
:100D6000406820F0806021684860206C20F4885042
:100D700040F00100206400BF002084F83C0000BF68
:100D80002846D2E770B50446A56D00F051FB064633
:100D900094F83500022808D08020606500BF00204C
:100DA00084F8340000BF012070BD2068006820F086
:100DB0001600216808602068406920F080002168E2
:100DC0004861206C08B9A06C28B12068006820F048
:100DD0000800216808602068006820F00100216890
:100DE00008600FE000F024FB801B05280AD92020B2
:100DF000606500BF002084F8340000BF032084F841
:100E00003500D1E72068006800F001000028E9D132
:100E100094F85C103F208840A86000BF002084F850
:100E2000340000BF012084F835000020BCE70146F3
:100E300091F83500022803D08020486501207047D2
:100E4000052081F835000868006820F001000A6874
:100E500010600020F3E7014691F83500704700006C
:100E6000F8B50446002000908C4800684FF41651F5
:100E7000B0FBF1F7A56D2E6894F85C10082088404F
:100E8000304098B12068006800F0040070B120681C
:100E9000006820F004002168086094F85C100820C5
:100EA0008840A860606D40F00100606594F85C10B7
:100EB00001208840304068B12068406900F080001F
:100EC00040B194F85C1001208840A860606D40F04B
:100ED0000200606594F85C1004208840304068B1DE
:100EE0002068006800F0020040B194F85C10042013
:100EF0008840A860606D40F00400606594F85C1064
:100F000010208840304078B32068006800F0080066
:100F100050B394F85C1010208840A86020680068E6
:100F200000F4802080B12068006800F4002028B917
:100F3000206CC8B12046216C884715E0A06C98B1A0
:100F40002046A16C88470FE02068006800F480709C
:100F500028B92068006820F0080021680860206C2B
:100F600010B12046216C884794F85C1020208840FE
:100F70003040002865D02068006800F0100000288C
:100F80005FD094F85C1020208840A86094F8350069
:100F9000052828D12068006820F016002168086024
:100FA0002068406920F0800021684861206C08B901
:100FB000A06C28B12068006820F008002168086053
:100FC00094F85C103F208840A86000BF002084F89F
:100FD000340000BF012084F83500206D10B1204698
:100FE000216D8847F8BD2068006800F4802080B13A
:100FF0002068006800F4002028B9606C10B1204619
:10100000616C88471DE0E06BD8B12046E16B8847F2
:1010100017E02068006800F4807068B920680068F4
:1010200020F010002168086000BF002084F8340020
:1010300000BF012084F83500E06B10B12046E16B61
:101040008847606D38B3606D00F00100F0B1052095
:1010500084F835002068006820F0010021680860ED
:1010600000BF0098401C0090B84200D905E02068FD
:10107000006800F001000028F3D100BF00BF00208D
:1010800084F8340000BF012084F83500E06C10B112
:101090002046E16C884700BFA4E70000280000203C
:1010A0002DE9F0410446002500F0C2F9074614B9C5
:1010B0000120BDE8F081606A00B100BF00BF0020E0
:1010C00084F8340000BF022084F8350020680068EE
:1010D00020F00100216808600AE000F0A9F9C01BB7
:1010E000052805D920206065032084F83500E0E755
:1010F0002068006800F001000028EED12068056833
:1011000021480540D4E901010843E1680843216909
:10111000084361690843A1690843E1690843216AFA
:1011200008430543606A042803D1D4E90B0108434E
:101130000543206805602068456925F00705606A59
:101140000543606A04280DD1A06A0543E06A48B1EE
:101150002046FFF767FB28B140206065012084F836
:101160003500A6E7206845612046FFF741FB0646AB
:1011700094F85C103F208840B0600020606501203A
:1011800084F83500002094E73F8010F02DE9F04707
:1011900004460D4616461F464FF00008D4F85890F6
:1011A00000BF94F83400012802D10220BDE8F08786
:1011B000012084F8340000BF94F83500012825D1BF
:1011C000022084F83500002060653B4632462946FF
:1011D0002046FFF77CFB94F85C103F208840C9F85C
:1011E00008002068006840F0160021680860206C44
:1011F00028B12068006840F0080021680860206875
:10120000006840F001002168086006E000BF00208F
:1012100084F8340000BF4FF002084046C6E70000E3
:10122000F8B502460B460025002400200021D7E037
:10123000012606FA01F51E6806EA0504AC4273D1E0
:101240005E68012E08D05E68022E05D05E68112E01
:1012500002D05E68122E13D190684F000326BE4064
:10126000B0434F00DE68BE403043906050680126B6
:101270008E40B0431E79C6F300168E403043506056
:10128000D0684F000326BE40B0434F009E68BE406A
:101290003043D0605E68022E02D05E68122E13D1F9
:1012A000CF0802F1200656F827004E07F70E0F264A
:1012B000BE40B0434F07FF0E1E69BE403043CF080B
:1012C00002F1200646F8270010684F000326BE40B2
:1012D000B0431E7906F003064F00BE403043106055
:1012E0005E6806F08056B6F1805F78D100BF0026B8
:1012F00000963D4E366846F480463B4F3E603E4683
:10130000366806F48046009600BF00BF374E8F084F
:1013100056F827008E07370F0F26BE40B043344ED5
:10132000B24202D100261FE059E0324EB24201D152
:10133000012619E0304EB24201D1022614E02F4EB0
:10134000B24201D103260FE02D4EB24201D1042654
:101350000AE02C4EB24201D1052605E02A4EB242E7
:1013600001D1062600E007268F073F0FBE4030431D
:101370001E4E8F0846F82700244E3068A0435E6852
:1013800006F48036B6F5803F00D120431F4E306012
:10139000361D3068A0435E6806F40036B6F5003F9F
:1013A00000D12043194E361D3060361D3068A043F1
:1013B0005E6806F48016B6F5801F00D12043134EF8
:1013C00008363060361D3068A0435E6806F40016AB
:1013D000B6F5001F00D120430C4E0C363060491C7E
:1013E0001029FFF425AFF8BD443802400838014009
:1013F000000002400004024000080240000C0240CD
:10140000001002400014024000180240003C01405D
:1014100042690A408A4202D10A04826100E0816185
:1014200070470AB1816101E00B04836170470000DD
:1014300001480068704700001C000020704770479A
:101440002DE9F84F0446206847692068D0F80480E9
:10145000002594F83E90C7F3002040B1C8F3002067
:1014600028B145F001056FF4807021684861C7F329
:10147000402040B1C8F3002028B145F002056FF4C8
:10148000007021684861C7F3802070B3C8F3002062
:1014900058B3CA46B4F82AB094F83D60206B009067
:1014A000BAF1200F0FD1BBF1000F0CD1212E06D0C5
:1014B000292E04D0282E06D10098212803D12046B9
:1014C00002F04EF911E06FF480602168486145F048
:1014D0000405B9F1100F02D0B9F1400F05D1206811
:1014E000006840F4007021680860C7F3C02040B174
:1014F000C8F3002028B145F008056FF400602168AA
:1015000048612DB1206C28432064204601F044FC42
:10151000BDE8F88F2DE9F0470546002728684668A2
:10152000D5F82C8095F83E9095F83DA0B9F1100FB4
:1015300002D0B9F1400F78D12868876928684469DA
:1015400004F0010060B9B8F52A0F02D0B8F12A4FB3
:1015500001D1012000E00020012801D1BDE8F08781
:1015600004F0010048B1C6F3402030B1284601F034
:10157000AFFB284601F0D4FFACE0C4F3C00030B1AB
:10158000C6F3402018B1284601F081FEA2E0C4F362
:10159000400030B1C6F3402018B1284601F08CFE5F
:1015A00098E0C7F38000F8B12868406800F4006054
:1015B000B0F5006FE0D0C4F3C01048B1C6F380208E
:1015C00030B1C4F3800018B9284601F0F4FD81E081
:1015D000C4F3800000287DD0C6F34020002879D0D5
:1015E000284601F090FD75E02868406800F400602E
:1015F000B0F5006F6ED0C4F3801048B1C6F3802000
:1016000030B1C4F3800018B9284601F02AFD61E02A
:10161000C4F3800000285DD0C6F34020002859D0D4
:10162000284601F08BFC55E0FFE7286C10B12868D4
:10163000446903E02868876928684469C4F3400066
:1016400058B1C6F3402040B1286C08B128688769BA
:101650003946284602F051F83CE0C4F3001030B19E
:10166000C6F3402018B1284602F0CAF832E0BAF1B9
:10167000210F02D0BAF1290F16D1C4F3C01048B11E
:10168000C6F3802030B1C4F3800018B9284602F0B8
:1016900011F81FE0C4F38000E0B1C6F34020C8B1E8
:1016A000284601F0FAFF15E0C4F3801048B1C6F3F4
:1016B000802030B1C4F3800018B9284601F0CAFF79
:1016C00008E0C4F3800028B1C6F3402010B12846DA
:1016D00001F0B3FF00BF41E77047000070B504465A
:1016E0000CB9012070BD94F83D0028B9002084F8A1
:1016F0003C00204600F0E0F8242084F83D002068FB
:10170000006820F00100216808602068006840F44B
:101710000040216808602068006820F400402168CB
:10172000086000F04BFB05465C496068884206D8BB
:101730005B48854201D2012007E0002005E05948BE
:10174000854201D2012000E00020012800D1C9E734
:101750005548B5FBF0F62068406820F03F00304364
:10176000216848604D496068884201D8701C07E0D4
:101770004FF4967070434FF47A71B0FBF1F0401C57
:101780002168096A21F03F01084321680862434942
:101790006068884214D8681E61684900B0FBF1F0A7
:1017A000401CC0F30B00042801D204203DE0681E59
:1017B00061684900B0FBF1F0401CC0F30B0034E05D
:1017C000A06838B9681E616801EB4101B0FBF1F017
:1017D000401C0AE0681E616801EBC10202EB0111C6
:1017E000B0FBF1F0401C40F48040C0F30B0008B99E
:1017F00001201AE0A06848B9681E616801EB410148
:10180000B0FBF1F0401CC0F30B000CE0681E6168F7
:1018100001EBC10202EB0111B0FBF1F0401CC0F37F
:101820000B0040F4804040F400402168C9694CF648
:10183000FF72914308432168C861D4E90701084356
:101840002168096821F0C001084321680860D4E9D3
:10185000031008432168896848F2FF329143084326
:1018600021688860D4E9050108432168C96821F02E
:10187000FF0108432168C8602068006840F001004B
:101880002168086000202064202084F83D000020AA
:10189000206384F83E0000BF24E70000A08601001A
:1018A00080841E0000093D0040420F0070477047D1
:1018B000704770477047000010B586B00446142189
:1018C00001A8FEF745FD23492068884240D100BFAA
:1018D000002000902048006840F002001E49086087
:1018E0000846006800F00200009000BF00BF4FF4FF
:1018F0004070019012200290012003900320049078
:101900000420059001A91548FFF78AFC00BF0020BC
:10191000009011481030006840F400100E4910315A
:1019200008600846006800F40010009000BF00BF87
:10193000002205211F2000F0BFF81F2000F0ACF8A6
:1019400000220521202000F0B7F8202000F0A4F8A4
:1019500006B010BD00540040303802400004024080
:1019600070477047034800680349097808440149F3
:10197000086070471C0000202400002010B50D48AE
:10198000006840F400700B4908600846006840F4A5
:10199000806008600846006840F48070086003209A
:1019A00000F0C8F8002000F007F800F04BF8002025
:1019B00010BD0000003C024070B588B00446002510
:1019C000002600222146362000F076F8362000F06E
:1019D00063F800BF002001901648006840F0100036
:1019E000144908600846006800F01000019000BF2C
:1019F00000BF02A903A800F0B9F900F0DFF9450023
:101A00000D48B5FBF0F0461E0C480D49086040F249
:101A1000E7310B48C160466000210161816000F040
:101A2000DAFE20B9064800F0F1FE08B070BD0120D2
:101A3000FBE700004038024040420F000010004029
:101A40009802002008B500BF0020009011480068EF
:101A500040F480400F4908600846006800F4804068
:101A6000009000BF00BF00BF00200090081F00686A
:101A700040F08050091F08600846006800F0805060
:101A8000009000BF00BF00220F21901E00F014F84C
:101A900008BD00004438024001460846002809DB22
:101AA00000F01F0301229A4043099B0003F1E02349
:101AB000C3F8002100BF70472DE9F05F80460D4656
:101AC0001646002702F094FD074639462A4633465B
:101AD00001F00700C0F1070ABAF1040F02D94FF074
:101AE000040A01E0C0F1070AD14600F1040ABAF184
:101AF000070F02D24FF0000A01E0A0F1030AD4461A
:101B00004FF0010A0AFA09FAAAF1010A0AEA020ADE
:101B10000AFA0CFA4FF0010B0BFA0CFBABF1010BBC
:101B20000BEA030B4AEA0B042146404602F068FD2B
:101B3000BDE8F09F00BF00F00702064B19684FF6A2
:101B4000FF031940044B0B4343EA0221014B196088
:101B500000BF70470CED00E00000FA0538B5002426
:101B600000BF002000901D48006840F080501B49D5
:101B700008600846006800F08050009000BF00BF79
:101B8000012017490864FFF753FC044607E0FFF7FC
:101B90004FFC001BB0F57A7F01D9032038BD1148F6
:101BA000406800F48030B0F5803FF0D101200C494E
:101BB0004864FFF73DFC044607E0FFF739FC001BD3
:101BC000B0F57A7F01D90320E8E70648406800F4C1
:101BD0000030B0F5003FF0D10020DFE74038024090
:101BE00000000E420070004070B504460D460CB96E
:101BF000012070BD5848006800F00F00A84209D2CB
:101C000055490D700846006800F00F00A84201D049
:101C10000120EEE7207800F0020002281DD1207894
:101C200000F00400042805D14C48006840F4E0505E
:101C30004A490860207800F00800082805D1474884
:101C4000006840F46040454908604448006820F05E
:101C5000F000A168084341490860207800F00100C5
:101C6000A8B36068012807D13C4808380068C0F371
:101C70004040B8B90120BCE76068022802D0606823
:101C8000032807D1354808380068C0F3406048B9D8
:101C90000120AEE7314808380068C0F3400008B9B9
:101CA0000120A6E72D48006820F003006168084382
:101CB0002A490860FFF7BCFB064609E0FFF7B8FBBE
:101CC000801B41F28831884202D9032091E707E066
:101CD0002248006800F00C006168B0EB810FEDD184
:101CE0001D48006800F00F00A84209D91A490D707C
:101CF0000846006800F00F00A84201D0012078E7F4
:101D0000207800F00400042807D11448006820F46B
:101D1000E050E168084311490860207800F00800AD
:101D2000082808D10D48006820F46040216940EA85
:101D3000C1000A49086000F061F808490968C1F368
:101D40000311074A515CC84006490860064800680C
:101D5000FFF732FE00204CE7003C0240083802400A
:101D60009868000828000020200000200F22026050
:101D70000D4A126802F0030242600B4A126802F038
:101D8000F0028260084A126802F4E052C260064A19
:101D9000126802F46042D2080261044A126802F03A
:101DA0000F020A607047000008380240003C024001
:101DB00001480068704700002800002000B5FFF7C8
:101DC000F7FF04490968C1F38221034A515CC84006
:101DD00000BD000008380240A868000800B5FFF701
:101DE000E7FF04490968C1F34231034A515CC84026
:101DF00000BD000008380240A86800082DE9F0473F
:101E0000002400250026A146A2463F48006800F0B5
:101E10000C0030B1042807D0082808D00C286BD15A
:101E200038E0DFF8E8A06AE0DFF8E4A067E03648D1
:101E3000001F006800F03F043348001F006800F4F2
:101E4000800078B132483049091F0968C1F3881110
:101E5000A0FB01700146224600233846FEF72EFA09
:101E600005460DE029482849091F0968C1F3881172
:101E7000A0FB0171224600233846FEF71FFA0546F3
:101E80002148001F0068C0F30140401C4600B5FB1C
:101E9000F6FA34E01C48001F006800F03F041A48BE
:101EA000001F006800F4800078B119481649091F26
:101EB0000968C1F38811A0FB017001462246002386
:101EC0003846FEF7FBF905460EE010480E49091F9B
:101ED0000968C1F38811A0FB017001462246002366
:101EE0003846FEF7EBF905460748001F0068C0F3C7
:101EF0000279B5FBF9FA02E0DFF810A000BF00BFDD
:101F00005046BDE8F0870000083802400024F40085
:101F100040787D01F8B504460025207800F00100E6
:101F200000286FD0FD48006800F00C0004281BD08A
:101F3000FA48006800F00C00082807D1F748001F95
:101F4000006800F48000B0F5800F0DD0F348006801
:101F500000F00C000C2813D1F048001F006800F4BA
:101F60008000B0F5800F0BD1EC4808380068C0F352
:101F70004040002859D06068002856D10120F8BDA3
:101F800000BF6068B0F5803F08D1E44808380068B9
:101F900040F48030E149083908601EE06068B0F51F
:101FA000A02F0DD1DD480838006840F48020DB49BF
:101FB000083908600846006840F4803008600CE08A
:101FC000D6480838006820F48030D44908390860C1
:101FD0000846006820F48020086000BF606890B167
:101FE000FFF726FA054606E0FFF722FA401B6428B1
:101FF00001D90320C3E7C94808380068C0F340404E
:102000000028F1D011E0FFF713FA054606E0FFF7CC
:102010000FFA401B642801D90320B0E7BF480838F5
:102020000068C0F340400028F1D1207800F00200A1
:1020300002286BD1B948006800F00C00B8B1B7486D
:10204000006800F00C00082805D1B448001F0068A3
:1020500000F4800058B1B148006800F00C000C2872
:102060001CD1AE48001F006800F48000B0B9AB4836
:1020700008380068C0F3400020B1E068012801D0B2
:1020800001207CE7A5480838006820F0F8002169A5
:1020900040EAC100A1490839086037E0E06800B3B0
:1020A00001209F490860FFF7C3F9054606E0FFF7E6
:1020B000BFF9401B022801D9032060E79748083880
:1020C0000068C0F340000028F1D094480838006848
:1020D00020F0F800216940EAC10090490839086001
:1020E00014E000208E490860FFF7A2F9054606E0DB
:1020F000FFF79EF9401B022801D903203FE78748DC
:1021000008380068C0F340000028F1D1207800F0C2
:10211000080008282CD16069A8B101208149086015
:10212000FFF786F9054606E0FFF782F9401B022813
:1021300001D9032023E779486C300068C0F34000E0
:102140000028F1D014E0002076490860FFF770F90C
:10215000054606E0FFF76CF9401B022801D9032071
:102160000DE76E486C300068C0F340000028F1D1E4
:10217000207800F00400042870D100266748383029
:10218000006800F0805090B900BF002000906348C4
:102190003830006840F080506049383108600846A7
:1021A000006800F08050009000BF00BF01265E482C
:1021B000006800F48070B0B95B48006840F480703B
:1021C00059490860FFF734F9054606E0FFF730F992
:1021D000401B022801D90320D1E65348006800F4CF
:1021E00080700028F2D000BFA068012808D14B48B9
:1021F0006830006840F001004849683108601DE01F
:10220000A06805280DD145486830006840F00400FA
:102210004249683108600846006840F001000860E3
:102220000CE03E486830006820F001003B4968310E
:1022300008600846006820F00400086000BFA0683D
:10224000A8B1FFF7F5F8054609E0FFF7F1F8401BE4
:1022500041F28831884202D9032090E626E02F48D7
:1022600068300068C0F340000028EED013E0FFF7AC
:10227000DFF8054608E0FFF7DBF8401B41F2883144
:10228000884201D903207AE6244868300068C0F308
:1022900040000028EFD1012E07D1204838300068D7
:1022A00020F080501D493831086000BFA069E8B3B4
:1022B0001A48006800F00C00082862D0A0690228C3
:1022C0004AD1002016490866FFF7B2F8054606E035
:1022D000FFF7AEF8401B022801D903204FE60F4854
:1022E00008380068C0F340600028F1D1D4E9070144
:1022F0000843616A40EA81110122A06AC2EB5000E2
:1023000041EA00412C20005D41EA00613020005D7F
:1023100041EA00700149091F086008E008380240DE
:1023200000004742800E4742007000402BE0012031
:1023300016490866FFF77CF8054606E0FFF778F8CF
:10234000401B022801D9032019E611480068C0F398
:1023500040600028F2D016E000200C490866FFF724
:1023600067F8054606E0FFF763F8401B022801D92D
:10237000032004E606480068C0F340600028F2D15C
:1023800001E00120FBE50020F9E5000000004742E4
:102390000038024070470000F8B5044620684668DF
:1023A00020688568C5F3801048B905F0010030B198
:1023B000C6F3801018B12046216C8847F8BDC5F3DC
:1023C000400030B1C6F3C01018B12046616C884798
:1023D000F4E7C5F3401030B9C5F3801018B9C5F360
:1023E000002000287CD0C6F3401000287DD0C5F323
:1023F0008010F0B194F8510003280ED0606D40F0C9
:102400000400606500BF002000902068C068009054
:1024100020688068009000BF0BE000BF00200090A3
:102420002068C068009020688068009000BF00BFEE
:10243000C4E7C5F3401088B1606D40F001006065ED
:1024400000BF00200090206880680090206800682D
:1024500020F040002168086000BF00BFC5F30020E5
:1024600058B1606D40F00800606500BF002000902A
:1024700020688068009000BF00BF606D78B320685E
:10248000406820F0E00021684860012084F8510095
:1024900006F00200022802D006F0010008B320680E
:1024A000406820F0030021684860E06C50B110489B
:1024B000E16C0865E06CFEF7BAFC18B1606D40F0A5
:1024C00040006065A06C50B10948A16C0865A06C23
:1024D000FEF7ADFC18B1606D40F04000606503E0B0
:1024E00003E02046FFF756FF68E700BF66E70000FD
:1024F000153C000810B504460CB9012010BD606AF7
:1025000000B900BF0021A16294F8510028B9002051
:1025100084F85000204600F033F8022084F851007F
:102520002068006820F0400021680860D4E90101BB
:102530000843E16808432169084361690843218B26
:1025400001F400710843E1690843216A0843A16A64
:102550000843216808600421A06901EA1040616A0B
:102560000843216848602068C06920F40060216841
:10257000C86100206065012084F851000020BDE79B
:1025800010B586B00446142101A8FDF7E1FE2449E8
:102590002068884241D100BF002000902148006897
:1025A00040F480401F4908600846006800F48040FD
:1025B000009000BF00BF00BF0020009019481038F5
:1025C000006840F0020017491039086008460068AA
:1025D00000F00200009000BF00BF4FF46040019087
:1025E0000220029000200390032004900520059013
:1025F00001A90D48FEF714FE4FF480500190012010
:10260000039001A90848FEF70BFE002205212420B3
:10261000FFF752FA2420FFF73FFA06B010BD000082
:102620000038004040380240000402402DE9F041EB
:1026300004460E461546002700BF94F850000128B6
:1026400002D10220BDE8F081012084F8500000BFD3
:1026500094F85100012801D0022752E006B10DB9CB
:1026600001274EE0032084F85100002060652663B6
:10267000A586E586A06360642064A087E087A068E3
:10268000B0F5004F05D12068006840F48040216813
:1026900008601F48A16C08641E48A16CC8631E48EE
:1026A000A16CC8640020A16C0865E38ED4F800C05A
:1026B0000CF10C02216BA06CFEF768FD40B1606D5F
:1026C00040F0100060650127012084F8510018E0F7
:1026D0002068006800F04000402805D020680068AD
:1026E00040F04000216808602068406840F0200009
:1026F000216848602068406840F002002168486016
:1027000000BF00BF002084F8500000BF384699E7A2
:10271000513C00085F3C0008293C000830B50346E6
:10272000002400BF93F85000012801D1022030BDE1
:10273000012083F8500000BF01B10AB9012435E03F
:1027400093F85100012801D002242FE0032083F8E0
:1027500051000020586519639A86DA869863988735
:10276000D8871864D86810B11448586401E0144838
:1027700058649868B0F5004F05D11868006840F4B7
:1027800080401D6828601868406840F0A0001D68FF
:1027900068601868006800F04000402805D018689C
:1027A000006840F040001D68286000BF00BF0020A6
:1027B00083F8500000BF2046B9E700004D3D0008F7
:1027C000713D00080021014A91717047020000200C
:1027D00070477047704710B504460CB9012010BD12
:1027E00094F83D0028B9002084F83C00204600F011
:1027F0000CF8022084F83D00211D206801F0C8FB80
:10280000012084F83D000020E9E770470146086890
:10281000C06840F001000B68D8600868806800F06C
:102820000702062A05D00868006840F001000B681E
:10283000186000207047704710B504462068006992
:10284000C0F34000D8B12068C068C0F34000B0B108
:102850006FF00200216808610120207720688069FC
:1028600000F0030018B12046FFF7E5FF05E0204621
:1028700000F0ADF8204600F0ABF80020207720688B
:102880000069C0F38000D8B12068C068C0F3800040
:10289000B0B16FF004002168086102202077206841
:1028A000806900F4407018B12046FFF7C4FF05E0CE
:1028B000204600F08CF8204600F08AF800202077AF
:1028C00020680069C0F3C000D8B12068C068C0F3B8
:1028D000C000B0B16FF008002168086104202077C3
:1028E0002068C06900F0030018B12046FFF7A3FF7D
:1028F00005E0204600F06BF8204600F069F8002063
:10290000207720680069C0F30010D8B12068C06843
:10291000C0F30010B0B16FF010002168086108200A
:1029200020772068C06900F4407018B12046FFF796
:1029300082FF05E0204600F04AF8204600F048F803
:10294000002020772068006900F0010058B120685D
:10295000C06800F0010030B16FF00100216808612B
:10296000204600F037F820680069C0F3C01058B165
:102970002068C068C0F3C01030B16FF080002168DB
:1029800008612046FFF725FF20680069C0F380102A
:1029900058B12068C068C0F3801030B16FF04000BB
:1029A00021680861204600F021F820680069C0F322
:1029B000401058B12068C068C0F3401030B16FF0CB
:1029C0002000216808612046FFF704FF10BD704712
:1029D0007047000010B5044603492068884201D1C1
:1029E000FEF7C0FF10BD00000010004070477047A8
:1029F0002DE9F0470446206805682068C66820680D
:102A000047694FF00008C14605F00F08B8F1000F04
:102A10000AD105F0200038B106F0200020B1204690
:102A200001F04CFBBDE8F087B8F1000F72D007F061
:102A3000010018B906F4907000286BD005F0010071
:102A400030B106F4807018B1E06B40F00100E06333
:102A500005F0040030B107F0010018B1E06B40F060
:102A60000200E06305F0020030B107F0010018B188
:102A7000E06B40F00400E06305F0080048B106F0A8
:102A8000200010B907F0010018B1E06B40F0080019
:102A9000E063E06B70B305F0200028B106F0200081
:102AA00010B1204601F00AFB20684069C0F380198C
:102AB000E06B00F0080010B9B9F1000F23D02046F8
:102AC00001F0DCFA2068406900F04000402816D18F
:102AD0002068406920F0400021684861606B50B177
:102AE0001748616B0865606BFEF7A1F910B1606B68
:102AF000016D88470CE02046FFF779FF08E020468B
:102B0000FFF775FF04E02046FFF771FF0020E06348
:102B100088E7FFE705F0800030B106F0800018B1CB
:102B2000204601F013FD7DE705F0400030B106F0CE
:102B3000400018B1204601F0B1FA73E700BF71E719
:102B40006940000810B504460CB9012010BDA06909
:102B500000B100E000BF94F8390028B9002084F8E3
:102B60003800204600F028F8242084F83900206836
:102B7000C06820F400502168C860204601F0F2FAD5
:102B80002068006920F4904021680861206840694D
:102B900020F02A00216848612068C06840F4005095
:102BA0002168C8600020E063202084F8390084F8A0
:102BB0003A000020CAE7000010B586B00446142190
:102BC00001A8FDF7C5FB1F492068884237D100BF27
:102BD000002000901C48006840F400301A4908604A
:102BE0000846006800F40030009000BF00BF00BF3E
:102BF0000020009014481038006840F0010012498D
:102C0000103908600846006800F00100009000BF1D
:102C100000BF0C20019002200290002003900320AE
:102C200004900720059001A90848FEF7F9FA002250
:102C300005212620FEF740FF2620FEF72DFF06B0D7
:102C400010BD000000440040403802400000024037
:102C5000704710B5034693F83900202823D101B1FD
:102C60000AB9012010BD00BF93F83800012801D136
:102C70000220F7E7012083F8380000BF19629A8428
:102C8000DA840020D863212083F8390000BF0020B7
:102C900083F8380000BF1868C06840F080001C68E6
:102CA000E0600020DEE70220DCE7704700BFFEE7BF
:102CB00010B50248FEF7C4FB10BD0000EC00002078
:102CC00010B50248FEF726FC10BD0000EC00002005
:102CD000C16AB1F52A0F02D10121C16205E0C16AC2
:102CE000B1F12A4F01D10821C162704770B5054684
:102CF000AC6B94F83D60606B10B10020616BC863F1
:102D0000A06B10B10020A16BC8632068006820F49C
:102D100080602168086000206085606B10B1002031
:102D2000616B0865A06B10B10020A16B086520687D
:102D3000006820F001002168086094F83D006028D8
:102D40000AD1202084F83D00002084F83E00206451
:102D50002046FEF773FB1EE006F02800282811D15C
:102D60002068006840F00100216808602068006861
:102D700040F480602168086000202063282084F8E7
:102D80003D0005E0202084F83D00002084F83E004E
:102D90002046FEF7A1FC70BD70B5044694F83D6076
:102DA00094F83E00102807D1222E05D12068006833
:102DB00020F400602168086006F02800282805D16A
:102DC00000202063282084F83D000FE02068406840
:102DD00000F40060B0F5006F04D0602E02D0202017
:102DE00084F83D000020206384F83E00206840689D
:102DF00000F40060B0F5006F40D12068406820F416
:102E0000006021684860606B90F83500012814D09C
:102E10004848616B0865606BFEF709F800285BD0D5
:102E20002068006820F0010021680860202084F8F4
:102E30003D00606B016D88474EE03E48A16B086520
:102E4000A06BFDF7F4FF002846D020684069C0F36E
:102E5000801030B120680069616A0870606A401CA7
:102E600060622068006820F001002168086020206E
:102E700084F83D00A06B016D88472DE094F83D007B
:102E800060281AD1202084F83D00002020642068AA
:102E90004069C0F3801030B120680069616A087031
:102EA000606A401C60622068006820F001002168B0
:102EB00008602046FEF7C2FA0EE020684069C0F3C1
:102EC000801030B120680069616A0870606A401C37
:102ED00060622046FEF700FC256C05F0010058B941
:102EE00005F00200022807D005F00400042803D0F2
:102EF00005F00800082805D12068406820F4E0604B
:102F00002168486094F83D60206C00F004000428BB
:102F10000ED1282E0CD10848E0620020206320202A
:102F200084F83D00002084F83E002046FEF7BEFCF9
:102F300070BD0000ED2C00080000FFFF70B50446D6
:102F4000E56A608D042810D12068406820F4806014
:102F50002168486020680069616A0870606A401CE6
:102F60006062608D401E60857AE0608D03281AD112
:102F70002068406820F4806021684860042D07D0F4
:102F8000022D05D02068006820F480602168086068
:102F900020680069616A0870606A401C6062608D28
:102FA000401E60855CE0608D02284FD1012D01D06C
:102FB000102D06D12068006820F480602168086028
:102FC00012E0042D01D0022D06D12068006840F4E3
:102FD00080602168086007E0102D05D02068006837
:102FE00040F400702168086020680069616A087018
:102FF000606A401C6062608D401E608520680069C8
:10300000616A0870606A401C6062608D401E608565
:103010002068406820F4407021684860202084F8CF
:103020003D0094F83E00402807D1002084F83E007F
:1030300020632046FEF73DFC12E0002084F83E00AD
:10304000122020632046FEF732FC09E02068006968
:10305000616A0870606A401C6062608D401E608515
:1030600070BD70B5044694F83D0022284AD1658DA4
:10307000032D13D920680069616A0870606A401CDA
:103080006062608D401E6085608D032839D12068A4
:10309000406820F480602168486032E0E06A0228DD
:1030A0002FD0012D00D01DBB2068006820F4806067
:1030B000216808602068406820F4E060216848606A
:1030C00020680069616A0870606A401C6062608DF7
:1030D000401E6085202084F83D0094F83E00402882
:1030E00007D1002084F83E0020632046FEF7E1FB74
:1030F00007E0002084F83E00122020632046FEF7FF
:10310000D6FB00BF70BD70B50446E56A94F83D007B
:10311000212848D1608D50B1606A0078216808612B
:10312000606A401C6062608D401E608542E0082D30
:1031300016D0202D14D015F5803F11D0206840689E
:1031400020F4E0602168486011202063002084F8AA
:103150003E00202084F83D002046FEF7A9FB29E030
:103160002068406820F4E0602168486020680068BA
:1031700040F400702168086000202063202084F85B
:103180003D0094F83E00402806D1002084F83E001F
:103190002046FEF78FFB0DE0002084F83E0020461D
:1031A000FEF786FB06E094F83E00402802D1204658
:1031B00000F005FA70BD2DE9F041044694F83D5049
:1031C00094F83E70E66A208DB0BB212D3CD1082ECC
:1031D00016D0202E14D016F5803F11D020684068FC
:1031E00020F4E0602168486011202063002084F80A
:1031F0003E00202084F83D002046FEF759FB44E0C5
:103200002068406820F4E060216848602068006819
:1032100040F400702168086000202063202084F8BA
:103220003D0094F83E00402807D1002084F83E007D
:103230002046FEF73FFB28E006E0002084F83E0031
:103240002046FEF735FB20E0212D03D0402F1CD176
:10325000222D1AD1608D30B92068406820F480603A
:103260002168486011E094F83E00402803D12046D0
:1032700000F0A5F909E0606A007821680861606AD9
:10328000401C6062608D401E6085BDE8F081416C2D
:10329000C9B202681161416B09B9816B59B1416BC7
:1032A000C96B11B9816BC96B29B10168496841F4D7
:1032B000006102685160704738B590F83E20C16ADD
:1032C000036B90F83D40222C73D1046D64B9402A01
:1032D0000AD100BF00240094046864690094046863
:1032E000A469009400BF1AE1046DC4B90469B4F57F
:1032F000404F14D100BF0024009404686469009416
:103300000468A469009400BF00BF0468246844F402
:10331000807405682C60046D641C0465FFE0448DB6
:103320008CB900BF002400940468646900940468A8
:10333000A469009400BF00BF0468246844F40074CA
:1033400005682C60DDE0448D012C72D111F5803FC1
:1033500030D10468246824F4806405682C60046813
:10336000646804F40064B4F5006F10D10468246844
:1033700024F4806405682C6000BF00240094046875
:10338000646900940468A469009400BFB9E000BFB8
:10339000002400940468646900940468A46900949B
:1033A00000BF00BF0468246844F4007405682C6002
:1033B000A7E0A9E0082923D0202921D0122B01D190
:1033C00001291DD104290AD0022908D0102906D0CC
:1033D0000468246824F4806405682C6005E00468AF
:1033E000246844F4806405682C6000BF00240094C5
:1033F0000468646900940468A469009400BF80E0D4
:103400000468246824F4806405682C6000BF0024EC
:1034100000940468646900940468A469009400BF7F
:1034200000BF0468246844F4007405682C6068E0F8
:10343000FFE7448D022C3BD1042910D002290ED085
:1034400010290CD00468246824F4806405682C607A
:103450000468246844F4006405682C6005E004688E
:10346000246844F4806405682C600468646804F48B
:103470000064B4F5006F10D111F5803F07D0012929
:1034800005D0082903D0102901D0202905D10468CE
:10349000646844F4805405686C6000BF00240094A4
:1034A0000468646900940468A469009400BF28E07B
:1034B0000468246844F4806405682C6004686468C7
:1034C00004F40064B4F5006F10D111F5803F07D00B
:1034D000012905D0082903D0102901D0202905D1C0
:1034E0000468646844F4805405686C6000BF00247C
:1034F00000940468646900940468A469009400BF9F
:1035000000BF002404650AE000BF002400940468A2
:10351000646900940468A469009400BF00BF38BDCA
:1035200090F83E1040290ED1016D29B9416C01F08F
:10353000FE010268116141E0416CC9B241F0010134
:10354000026811613AE00169B1F5804F20D190F82D
:103550003D10212905D1416C01F0FE010268116185
:1035600005E0416CC9B241F0010102681161416B93
:1035700011B1416BC96B21B9816BF9B1816BC96B19
:10358000E1B10168496841F400610268516015E0E9
:10359000016D41B9416C01F44071F02242EAE11140
:1035A000026811610AE0016D012907D1416C01F443
:1035B0004071F12242EAE111026811617047016D28
:1035C00099B9C16C012907D1816CC9B20268116136
:1035D000016D891C01652FE0816CC1F30721026830
:1035E0001161016D491C016526E0016D012907D1BA
:1035F000816CC9B202681161016D491C01651BE053
:10360000016D022918D190F83D10222906D10168D8
:10361000096841F48071026811600DE090F83D1076
:10362000212909D1416A097802681161416A491C5E
:103630004162418D491E41857047418D49B1016804
:103640000969426A1170416A491C4162418D491EF3
:103650004185704770B5044694F83D50608DD8B1EF
:1036600020680069616A0870606A401C6062608D51
:10367000401E6085608D78B92A2D0DD12068406884
:1036800020F480602168486022202063282084F88C
:103690003D002046FEF764F970BD418D49B1416A95
:1036A000097802681161416A491C4162418D491ED5
:1036B0004185704770B5044694F83D50608DD8B18F
:1036C000606A007821680861606A401C6062608DF1
:1036D000401E6085608D78B9292D0DD12068406825
:1036E00020F480602168486021202063282084F82D
:1036F0003D002046FEF735F970BD2DE9F041044646
:103700000D46002794F83D0000F0280028281CD121
:103710002068406820F4806021684860C5F380001C
:1037200000B90127C5F3C01010B9A08986B201E025
:10373000208B86B200BF002084F83C0000BF3246D8
:1037400039462046FDF77BFE08E06FF00200216855
:10375000486100BF002084F83C0000BFBDE8F08154
:1037600070B5044694F83D50E66A082E01D0202E2C
:103770001FD1282D1DD12148E0622068406820F427
:10378000E060216848606FF48060216848612068CB
:10379000006820F4806021680860002020632020F9
:1037A00084F83D00002084F83E002046FEF77EF8B5
:1037B00023E0212D1DD11148E0622120206320202B
:1037C00084F83D00002084F83E002068406820F422
:1037D000E060216848606FF480602168486120687B
:1037E000006820F48060216808602046FEF7B9F880
:1037F00003E06FF480602168486170BD0000FFFF46
:1038000038B5044694F83D502068406820F4E060E4
:103810002168486000BF0020009020684069009047
:103820002068006840F001002168086000BF00BF08
:103830002068006820F48060216808602068406883
:1038400000F40060B0F5006F42D1222D01D02A2D86
:103850001FD1A06B006840686085608D18B1206C36
:1038600040F0040020642068406820F40060216873
:103870004860A06BFDF7EFFA012829D04148A16B01
:103880000865A06BFDF7D3FA10B3A06B016D8847F4
:103890001EE0606B006840686085608D18B1206C28
:1038A00040F0040020642068406820F40060216833
:1038B0004860606BFDF7CFFA012809D03148616B91
:1038C0000865606BFDF7B3FA10B1606B016D884756
:1038D000608D18B320684069C0F3800048B120684B
:1038E0000069616A0870606A401C6062608D401EF9
:1038F000608520684069C0F3801048B12068006985
:10390000616A0870606A401C6062608D401E60855C
:10391000608D18B1206C40F004002064206C18B158
:103920002046FFF739FA2BE02A2D07D1002020632B
:10393000282084F83D002046FEF712F894F83D0058
:1039400028280DD11048E06200202063202084F850
:103950003D00002084F83E002046FDF7A7FF0FE061
:10396000206B222801D0222D0AD1002020632020A4
:1039700084F83D00002084F83E002046FDF7F0FF6B
:1039800038BD0000ED2C00080000FFFF1FB500202F
:1039900000900190029003901448154908604FF47C
:1039A000803048600021124881600161017680F812
:1039B0002010C1620F4981620021C1600121C161F3
:1039C00080F830104161FDF771F808B1FCF796FFFF
:1039D00000200090012001900520029069460448D3
:1039E000FCF78EFF08B1FCF789FF1FBD00200140E6
:1039F000A40000200100000F00B587B0142102A828
:103A0000FCF7A6FC00BF002001901F48006840F0B2
:103A100001001D4908600846006800F0010001909F
:103A200000BF00BF00BF002001900846006840F0C2
:103A3000040008600846006800F00400019000BF20
:103A400000BF00BF002001900846006840F002005F
:103A500008600846006800F00200019000BF00BF47
:103A600000224FF4F0710948FDF7DBFC4FF4F070D1
:103A700002900120039000200490059002A90348C1
:103A8000FDF7CEFB07B000BD303802400008024011
:103A900010B50B480B4908600B48486000210948E5
:103AA0008160C1604FF48041016100214161816109
:103AB000C1610162FDF712FE08B1FCF71FFF10BDE6
:103AC00000540040EC000020A086010010B5104812
:103AD000104908604FF4827048604FF400410D486F
:103AE00081600021C160016141614FF480218161E9
:103AF0001821C161002101624162816206480549C5
:103B000088640846FEF7F6FC08B1FCF7F7FE10BD26
:103B100000380040400100203802002010B50B485A
:103B20000B4908604FF461504860002108488160EB
:103B3000C16001610821416100218161C161FFF71C
:103B400001F808B1FCF7DAFE10BD000000440040A7
:103B50009801002000BFFEE7704700BF012000F081
:103B600077FEFBE710B50248FEF716FC10BD00001B
:103B7000400100207CB50446254800681821B0FBB0
:103B8000F1F04FF47A71B0FBF1F0642148430190F9
:103B9000FDF74EFC054600BF019820B9606D40F06E
:103BA0002000606508E00198401E01902068806850
:103BB00000F002000028EFD000BF2068406820F02D
:103BC000A000216848602A466421204600F088F859
:103BD00018B1606D40F020006065A06850B900BF6A
:103BE000002000902068C0680090206880680090E5
:103BF00000BF00BF012084F85100606D18B120465D
:103C0000FEF7C8FB02E02046FEF7DCFD7CBD0000AD
:103C10002800002070B50546AC6B0020E087E086E8
:103C20002046FEF7B7FB70BD70B50546AC6B20684B
:103C3000406820F0030021684860606D40F010008B
:103C40006065012084F851002046FEF7A3FB70BD9B
:103C500070B50446A56B2846FEF7BAFD70BDF8B5F1
:103C60000546AC6BFDF7E4FB06462868006800F4E7
:103C70008070B0F5807F2DD02068406820F0200053
:103C8000216848602068406820F002002168486090
:103C900032466421204600F023F818B1606D40F0F0
:103CA00020006065A06850B900BF00200090206827
:103CB000C068009020688068009000BF00BF0020AE
:103CC000E086012084F85100606D18B12046FEF7AF
:103CD00061FBF8BD2046FEF775FD00BFF9E7000067
:103CE0007CB504460D461646164800681821B0FB00
:103CF000F1F01549B0FBF1F04FF47A7148430190AF
:103D00006068B0F5827F0DD12B46002280212046CD
:103D1000009600F03FF898B1606D40F020006065BB
:103D200003207CBD00BF019800B908E00198401E47
:103D3000019020688068C0F3C0100028F3D100BF54
:103D40000020EEE72800002040420F0010B5044696
:103D5000206B00882168C860206B801C2063E08E87
:103D6000401EE086E08E10B92046FFF703FF10BD2D
:103D700010B50446206B007821680873206B401C46
:103D80002063E08E401EE086E08E10B92046FFF7EB
:103D9000F1FE10BD2DE9F04104460E4617461D46C2
:103DA000DDF818803EE0681CD8B3FDF741FBA0EBBE
:103DB0000800A84200D2A5BB2068406820F0E000BF
:103DC000216848606068B0F5827F0DD1A068B0F5C9
:103DD000004F03D0A068B0F5806F05D1206800685F
:103DE00020F0400021680860A06AB0F5005F0DD1A6
:103DF00000BF2068006820F4005021680860206837
:103E0000006840F400502168086000BF012084F879
:103E1000510000BF002084F8500000BF0320BDE81F
:103E2000F081FFE7206880683040B04201D1012076
:103E300000E00020B842B6D10020F0E700BF012327
:103E4000074A08490848FDF7A1F901220449074833
:103E5000FCF7A0FE4FF47A7000F0FAFCEFE70000E8
:103E6000000000204C200140D8010020A4000020C8
:103E700010B500BF502080F31188BFF34F8FBFF300
:103E80006F8F00BF02F07CFA18B14FF080500449E8
:103E9000086000BF002080F3118800BF10BD000043
:103EA00004ED00E000B593B0342106A8FCF750FA09
:103EB000142101A8FCF74CFA00BF0020009027480D
:103EC000006840F08050254908600846006800F00E
:103ED0008050009000BF00BF00BF0020009020482D
:103EE000006840F440401E4908600846006800F43D
:103EF0004040009000BF00BF0220069001200990C2
:103F000010200A9002200C9000210D9108210E91A2
:103F1000B4210F91022110911191129106A8FDF781
:103F2000F9FF08B1FCF7EAFCFDF718FE08B1FCF751
:103F3000E5FC0F20019003200290002003904FF435
:103F4000A05004904FF480500590052101A8FDF782
:103F50004BFE08B1FCF7D2FC13B000BD4038024064
:103F6000007000400548006840F470000349086094
:103F70004FF00060014980390860704788ED00E02B
:103F800010B50248FEF758FC10BD00009802002052
:103F900010B50268294B98420ED0B0F1804F0BD07B
:103FA000274B984208D0274B984205D0264B984281
:103FB00002D0264B984203D122F070024B681A437C
:103FC0001E4B984220D0B0F1804F1DD01C4B984220
:103FD0001AD01C4B984217D01B4B984214D01B4B45
:103FE000984211D01A4B98420ED01A4B98420BD0DF
:103FF000194B984208D0194B984205D0184B98425B
:1040000002D0184B984203D122F44072CB681A4375
:1040100022F080034C6943EA040202608B68C362A9
:104020000B688362054B984202D0084B984201D13D
:104030000B6903630123436110BD000000000140D0
:104040000004004000080040000C00400004014053
:104050000040014000440140004801400018004079
:10406000001C00400020004070B50546AC6B0020ED
:10407000E085E0842046FEF7BAFC70BD0168C9689F
:1040800021F490710268D1600168496921F0010151
:1040900002685161202180F83A10704710B504463B
:1040A0002068C06820F040002168C860202084F8A3
:1040B00039002046FEF7F9FD002010BD70B504461A
:1040C00094F83A0022284AD1A068B0F5805F13D155
:1040D000A56A206940B920684068C0F308002880BC
:1040E000A06A801CA06219E020684068C0B22880E5
:1040F000A06A401CA06211E0206938B920684068BD
:10410000C1B2A26A501CA062117007E0206840682A
:1041100000F07F01A26A501CA0621170E08D401E69
:1041200080B2E085C8B92068C06820F0200021680E
:10413000C8602068C06820F480702168C86020686A
:10414000406920F0010021684861202084F83A008D
:104150002046FEF77DFD002070BD0020FCE7022018
:10416000FAE700002DE9F84F04462068006920F4C2
:104170004050E1680843216808612169A06808434C
:1041800061690843E169084300902068C06849F20A
:104190000C618843009908432168C8602068406921
:1041A00020F44070A169084321684861E069B0F5D6
:1041B000004F75D1E3492068884203D0E249206866
:1041C00088426FD1FDF70AFE814602206168A0FB9C
:1041D00001510B461920A9FB00712A463846FCF70D
:1041E0006DF86421B0FBF1F04FEA001A022061681B
:1041F000A0FB01510B461920A9FB00712A46384645
:10420000FCF75CF8074602206168A0FB01510B46F1
:104210001920A9FB00B12A465846FCF74FF8642143
:10422000B0FBF1F000EBC00101EB0010A7EB800048
:10423000322101EBC0006421B0FBF1F000F0F80086
:104240000AEB400A02206168A0FB01510B461920CD
:10425000A9FB00712A463846FCF730F807460220D1
:104260006168A0FB01510B461920A9FB00B12A4649
:104270005846FCF723F86421B0FBF1F000EBC001D5
:1042800001EB0010A7EB8000322101EBC00064219C
:10429000B0FBF1F000F007005044216888604FE166
:1042A0006EE0FFE7FDF78AFD814602206168A0FB12
:1042B00001510B461920A9FB00712A463846FBF72D
:1042C000FDFF6421B0FBF1F04FEA001A02206168A3
:1042D000A0FB01510B461920A9FB00712A46384664
:1042E000FBF7ECFF074602206168A0FB01510B467B
:1042F0001920A9FB00B12A465846FBF7DFFF6421CD
:10430000B0FBF1F000EBC00101EB0010A7EB800067
:10431000322101EBC0006421B0FBF1F000F0F800A5
:104320000AEB400A02206168A0FB01510B461920EC
:10433000A9FB00712A463846FBF7C0FF074602205A
:104340006168A0FB015003461920A9FB00B12A4671
:104350005846FBF7B3FF6421B0FBF1F000EBC0015E
:1043600001EB0010A7EB8000322101EBC0006421BB
:10437000B0FBF1F000F00700504421688860DFE0F6
:1043800070492068884203D06F49206888426BD109
:10439000FDF724FD814604206168A0FB01510B4616
:1043A0001920A9FB00712A463846FBF787FF824691
:1043B00004206168A0FB01510B461920A9FB007184
:1043C0002A463846FBF77AFF6421B0FBF1F000EB98
:1043D000C00101EB0010AAEB8000322101EB0010BC
:1043E0006421B0FBF1F000F0F00A04206168A0FB4A
:1043F000015003461920A9FB00712A463846FBF7F5
:104400005DFF6421B0FBF1F00AEB001A0420616843
:10441000A0FB01510B461920A9FB00712A46384622
:10442000FBF74CFF074604206168A0FB01500346E0
:104430001920A9FB00B12A465846FBF73FFF64212B
:10444000B0FBF1F000EBC00101EB0010A7EB800026
:10445000322101EB00106421B0FBF1F000F00F00FD
:104460005044216888606BE0FDF7A8FC8146042079
:104470006168A0FB015003461920A9FB00712A4680
:104480003846FBF71BFF824604206168A0FB015001
:1044900003461920A9FB00712A463846FBF70EFF98
:1044A0006421B0FBF1F000EBC00101EB0010AAEBBE
:1044B0008000322101EB00106421B0FBF1F000F02C
:1044C000F00A04206168A0FB015003461920A9FBF3
:1044D00000712A463846FBF7F1FE6421B0FBF1F08B
:1044E0000AEB001A04206168A0FB01700346192042
:1044F000A9FB005001463A462846FBF7DFFE074677
:1045000004206168A0FB015003461920A9FB00B1FB
:104510002A465846FBF7D2FE6421B0FBF1F000EBCF
:10452000C00101EB0010A7EB8000322101EB00106D
:104530006421B0FBF1F000F00F0050442168886066
:10454000BDE8F88F0010014000140140014691F8C9
:10455000390021282CD18868B0F5805F0FD10A6A14
:104560001088C0F308000B685860086918B9086A19
:10457000801C086209E0086A401C086205E00B6ABA
:10458000581C086218780B685860C88C401E80B2AE
:10459000C88458B90868C06820F080000B68D860EB
:1045A0000868C06840F040000B68D8600020704781
:1045B0000220FCE710B50248FEF71AFA10BD000011
:1045C0009801002000BFFEE70FB4084B10B504A906
:1045D00002AA039800F040F8044602A9002000F067
:1045E000E5F8204610BC5DF814FB0000AD4700085C
:1045F00002480068C0F30220704700000CED00E0A4
:1046000010B5002804DB0A07130E054A135406E010
:104610000A07140E034A00F00F031B1FD45410BDE9
:1046200000E400E018ED00E0EFF311807047EFF3D5
:1046300005807047EFF31080704702E008C8121F32
:1046400008C1002AFAD170477047002001E001C17B
:10465000121F002AFBD170472DE9FF4F89B09B46FE
:104660000446002506E025280BD05A460B999047B2
:10467000641C6D1C20780028F5D10DB02846BDE8DB
:10468000F08F0027B8460122474900E0074314F89D
:10469000013F203B02FA03F00842F7D120782E2890
:1046A00019D114F8010F47F004072A280ED06FF033
:1046B0002F022078A0F1300109290CD808EB8801DD
:1046C00002EB410100EB0108641CF2E70A98641C4C
:1046D00050F8048B0A9020780028CED0642808D0A7
:1046E000692806D075281ED05A460B9990476D1C34
:1046F00058E00A994FF00A0901C90A91002802DA24
:1047000040422D2102E0390504D52B218DF82010DF
:10471000012103E0F90704D02021F7E78A4608AE1B
:104720000DE00021FAE70A994FF00A0901C90A9140
:10473000F7E74946FBF71EFE303106F8011D002859
:10474000F7D1ADEB060000F12009780701D44FF056
:104750000108C84502DDA8EB090000E00020804602
:10476000002706E008A85A46C05D0B9990476D1CCB
:104770007F1C5745F6DB04E030205A460B999047E2
:104780006D1CB8F10001A8F10108F5DC05E016F890
:10479000010B5A460B9990476D1CB9F10001A9F124
:1047A0000109F4DC641C65E7092801000A68531C50
:1047B0000B60107070470000FDF7E0F8FFF772FB28
:1047C000FFF71AF9FFF7AAF9FFF7E0F8FFF77EF90C
:1047D000FFF75EF9FBF758FFFBF7C2FF00F054F854
:1047E0000F4A00210F4800F093F80F4908600F4A64
:1047F00000210F4800F08CF80E4908600E4A002195
:104800000E4800F085F80E4908600E4A00210E4857
:1048100000F07EF80D49086000F056F800BFFEE792
:10482000006800085B3B00080C00002024680008BA
:104830000D06000810000020486800082506000842
:10484000140000206C6800083D3E0008180000209D
:1048500070B50546FFF7EBFE48B9FFF7EBFE10B960
:10486000FFF7E2FE30B107480068022802D16FF07E
:10487000050404E0002415B1284600F0F9FF2046A5
:1048800070BD00007C00002010B5FFF7D0FE48B9D5
:10489000FFF7D0FE10B9FFF7C7FE30B10948006836
:1048A000022802D16FF0050409E00648006820B92B
:1048B000012004490860002401E04FF0FF34204645
:1048C00010BD00007C00002010B5FFF7B0FE48B915
:1048D000FFF7B0FE10B9FFF7A7FE30B10B48006834
:1048E000022802D16FF005040EE008480068012894
:1048F00008D100BF00BF02200449086001F034F86D
:10490000002401E04FF0FF34204610BD7C00002061
:104910002DE9FF4780468946144600200390FFF7A3
:1049200086FE00285AD1FFF785FE10B9FFF77CFEFE
:1049300018B12B480068022850D0B8F1000F4DD0B4
:10494000802618254FF0000A4FF0FF3744B3206847
:1049500008B1D4F800A0A06900B1A5692DB1382D27
:1049600003D8207900F0010018B1002004B0BDE8A0
:10497000F087606908B160698608A06840B1E068A6
:104980005C2805D3206918B1606908B1012708E0E7
:10499000A06830B9E06820B9206910B9002700E0AC
:1049A0000027012F0CD12169A0684B463246CDE982
:1049B000005102905146404601F06EFC03900DE01C
:1049C00067B903A8B2B24B465146CDE90050404604
:1049D00001F030FC012801D0002003900398C5E7C6
:1049E0007C0000202DE9F04105460E461648076878
:1049F00016480068001D00F0BBFD681C38B936B1D0
:104A000012480168091D124800F008FE1AE07C19DE
:104A10000E4800684460BC4207D20C480168091D7A
:104A20000C48006800F0E0FD0CE008480168091D32
:104A30000948006800F0D8FD08480068844201D2A7
:104A400006480460BDE8F081400000202C000020F2
:104A5000C807002034000020300000205C00002047
:104A600010B5044600F0E6FD24480068401C2349C8
:104A700008602348006840B921480460084600687F
:104A800001280DD100F0FCF90AE01E48006838B991
:104A90001B480068C06AE16A884201D8184804606F
:104AA00019480068401C184908600846006860649E
:104AB0001649E06A0968884202D91449E06A086028
:104AC000E16A01EB8101124A02EB8100211D00F035
:104AD000A5FD00F0D9FD0B48006868B108480068E2
:104AE000C06AE16A884207D24FF0805009490860E5
:104AF000BFF34F8FBFF36F8F10BD00003C0000204D
:104B00002C00002048000020580000204400002015
:104B10001803002004ED00E008B500F08BFD1248FA
:104B20000068E8B9114800F04FFD114800F04CFD55
:104B30000E48104908600E480F49086000200F4BCE
:104B40000F4A102100900A2001F06EF80649086013
:104B50000846006820B10BA10348006800F04CFE35
:104B600000F092FD08BD000070000020DC0700206E
:104B7000F0070020680000206C00002004080020DE
:104B800054080020546D72510000000010B516E06A
:104B900000F050FD0C48C068C468201D00F0E8FC1F
:104BA0000A480068401E0949086009480068401E1C
:104BB0000749086000F068FD204600F05FF80448EF
:104BC00000680028E4D110BDB40700203C0000209C
:104BD0003800002070B504460D46206C70B1216C81
:104BE000E0680144E160D4E90210884201D3216801
:104BF000E1602846226CE168FBF791FB70BD2DE96E
:104C0000F04104460F4615464FF00008A66B206C95
:104C100048B9206800282CD1A06801F053FC8046D8
:104C20000020A06025E07DB93946226C6068FBF762
:104C300076FB216C606808446060D4E90101884219
:104C400017D32068606014E03946226CE068FBF7F7
:104C500066FB216CE068411AE1602168E0688842E7
:104C600003D2216CA068411AE160022D01D106B186
:104C7000761E701CA0634046BDE8F08110B5044666
:104C800094F8590030B9206B00F01CFD204600F06C
:104C900019FD1AE094F85900012803D1204600F0CC
:104CA00011FD12E094F85900022801D1012000E022
:104CB000002050B900BF502080F31188BFF34F8F00
:104CC000BFF36F8F00BF00BFFEE710BD0146084A6B
:104CD000126812680AB9012200E000220A600A681C
:104CE00022B9034A1268D268106800E000207047B9
:104CF0006800002030B54FF47053174800F00704E7
:104D00002CB1C01D20F00700134C041B1B1B0246D6
:104D1000124C22600024114D6C60D018083820F02D
:104D200007000F4C206000240D4D2D686C600C4D69
:104D30002D682C601146441A4C60094C24680C60A4
:104D4000084D4C682C60084D4C682C604FF00044B6
:104D5000064D2C6030BD0000AC0F0020800000200C
:104D600088000020900000208C000020940000208B
:104D700000BFFFF70BFF064800680128F9D94FF084
:104D8000805004490860BFF34F8FBFF36F8FF0E787
:104D90001803002004ED00E02DE9F04106460D4621
:104DA00017469846069C0DB9246000E02760E6632C
:104DB00025640121204600F0A7FF84F84C80BDE85F
:104DC000F0812DE9F05F82460E4690469B460A9F91
:104DD0000C9C4FEA8801A522206BFBF7B2FAA8F1E0
:104DE0000100216B01EB800929F0070909F0070098
:104DF00008B9012000E0002050B900BF502080F326
:104E00001188BFF34F8FBFF36F8F00BF00BFFEE766
:104E100086B1002507E0715D04F134004155705DF5
:104E200000B902E06D1C102DF5D300BF0021432016
:104E3000015502E0002084F83400382F00D33727D2
:104E4000E762E76400202065201D00F0CAFB04F142
:104E5000180000F0C6FB2461C7F13800A06164624D
:104E60000020606584F858005A465146484600F0D4
:104E700069FB20600B9808B10B980460BDE8F09FB7
:104E800010B5002407E004EB84010F4A02EB810017
:104E900000F09AFB641C382CF5D30C4800F094FB0E
:104EA0000B4800F091FB0B4800F08EFB0A4800F025
:104EB0008BFB0A4800F088FB044809490860044855
:104EC0000849086010BD0000180300207807002082
:104ED0008C070020A0070020B4070020C80700208E
:104EE000300000203400002010B50146164800E0D4
:104EF000006803688B42FBD30246436813448B422D
:104F000004D143684C682344436001460A464B6819
:104F100013440468A34211D10C4C03682468A342D3
:104F200008D04B680468646823444B6003681B68BE
:104F30000B6005E0054B1B680B6001E003680B602C
:104F4000884200D0016010BD800000208800002051
:104F50002DE9F04104460D4616461F464FF0000865
:104F600065602461B5420CD8F01BA169884202D368
:104F70004FF0010811E0211D0948006800F034FBE2
:104F80000BE0BE4204D2BD4202D34FF0010804E060
:104F9000211D0448006800F027FB4046BDE8F08171
:104FA0006C0000206800002070B5054600F042FB50
:104FB000A86B08B9012400E0002400F065FB20463E
:104FC00070BD70B5054600F035FBA86BE96B8842F3
:104FD00001D1012400E0002400F056FB204670BD02
:104FE000F8B505460F461A480068C068C468201D19
:104FF00000F0BEFA94F8280000F00400E8B1A069BF
:1050000041192B463A462046FFF7A2FFD8B10020AF
:1050100003462A4601460090204601F0AFFB0646B3
:1050200056B900BF502080F31188BFF34F8FBFF3F4
:105030006F8F00BF00BFFEE705E094F8280020F066
:10504000010084F828002046216A8847F8BD000046
:1050500068000020F0B587B0A0E00398002811DABE
:1050600004AE56B900BF502080F31188BFF34F8FB4
:10507000BFF36F8F00BF00BFFEE7D6E90020B16825
:10508000904700BF03980028E6DB059C606908B9DB
:10509000012000E0002010B9201D00F069FA02A8EC
:1050A00000F0DEF8054603980A2875D2DFE800F024
:1050B00009050739416306083A4200BF00BF00BF37
:1050C00000BF94F8280040F0010084F828000498FC
:1050D000A269811803462A462046FFF739FFF8B136
:1050E0002046216A884794F8280000F00400B8B1EF
:1050F000002000900498A169421800231946204618
:1051000001F03CFB074657B900BF502080F31188DF
:10511000BFF34F8FBFF36F8F00BF00BFFEE700BF2D
:105120003BE000BF94F8280020F0010084F828003C
:1051300033E000BF94F8280040F0010084F8280014
:105140000498A061A06908B1012000E0002050B9D6
:1051500000BF502080F31188BFF34F8FBFF36F8FD4
:1051600000BF00BFFEE7A06941192B462A46204632
:10517000FFF7EEFE11E094F8280000F0020018B9E5
:10518000204600F09FFA05E094F8280020F0010086
:1051900084F8280001E0FFE700BF00BF002203A958
:1051A0000448006800F04CFF00287FF456AF07B0B9
:1051B000F0BD000070000020F8B505460C4600F078
:1051C0002FFC684600F04CF80646009820BB44B916
:1051D000B54206D801F014FA31462846FFF700FF21
:1051E0001CE03CB10E480068006808B9012000E0EE
:1051F00000200446A91B22460A48006800F012FB62
:1052000001F0FEF950B94FF0805007490860BFF334
:105210004F8FBFF36F8F01E001F0F2F9F8BD00008E
:105220006C0000207000002004ED00E00A490968CD
:10523000096809B9012100E0002121B14FF0FF31D7
:10524000064A116006E004490968C968C868034A4B
:105250004168116070470000300000205C000020B1
:1052600070B5044601F086F8054607480068854297
:1052700004D200F00BF80120206001E00020206043
:1052800001480560284670BD780000202DE9F843EC
:1052900034E025480068C068056823480068C06895
:1052A000C468201D00F064F92046216A884794F8FC
:1052B000280000F0040008B3A0694619AE4207D9DF
:1052C00066602461211D1848006800F08DF915E022
:1052D000002003462A4601460090204601F04EFA7F
:1052E000074657B900BF502080F31188BFF34F8F96
:1052F000BFF36F8F00BF00BFFEE700BF0A48006822
:10530000006808B9012000E000200028C1D006484C
:10531000D0F8008005480068034908600348C0F8D9
:105320000080BDE8F8830000680000206C000020C9
:105330000E480068401C08B9012000E0002050B968
:1053400000BF502080F31188BFF34F8FBFF36F8FE2
:1053500000BF00BFFEE700BF502080F31188BFF3FD
:105360004F8FBFF36F8F00BF00BFFEE79800002094
:1053700008B500BF6846FFF7A9FC0446204600991F
:10538000FFF71AFFFFF766FEF4E770B5044600F07A
:1053900051F994F9455010E0606A08B9012000E025
:1053A000002038B904F1240001F0DEF818B100F053
:1053B00099FA00E003E0681E45B2002DECDC00BF66
:1053C000FF2084F8450000F05FF900F033F994F90C
:1053D000445010E0206908B9012000E0002048B9DD
:1053E00004F1100001F0C0F808B100F07BFA681E6B
:1053F00045B200E001E0002DECDC00BFFF2084F8A6
:10540000440000F041F970BD2DE9F04104464FF031
:10541000000800F005FB4648006808B9FFF76AFC81
:1054200044480068204000286BD1D4B1083404F00F
:105430000700B0B104F00700C0F10800044404F014
:10544000070008B9012000E0002050B900BF50203B
:1054500080F31188BFF34F8FBFF36F8F00BF00BF82
:10546000FEE7002C4DD034480068844249D8334EC2
:105470003046056801E02E462D686868A04202D2D9
:1054800028680028F7D12A480068854239D030685A
:1054900000F10808286830606868001B102819D9D6
:1054A0002F1907F0070008B9012000E0002050B9CB
:1054B00000BF502080F31188BFF34F8FBFF36F8F71
:1054C00000BF00BFFEE76868001B78606C6038466C
:1054D000FFF70AFD184968680968081A1649086044
:1054E0000846006816490968884203D212480068D5
:1054F000134908600F49686809680843686000201C
:10550000286001F07DF808F0070008B9012000E0EC
:10551000002050B900BF502080F31188BFF34F8F97
:10552000BFF36F8F00BF00BFFEE74046BDE8F081CC
:1055300088000020940000208C00002080000020C3
:1055400090000020001F4FF080730360001F21F0C7
:1055500001030360001F054B036014380260001F45
:105560006FF00203036020387047000031530008D9
:1055700001460A69D1E901309860D1E90103586018
:105580005068884201D18868506000200861106826
:10559000401E106010687047034B0360034B0B60A4
:1055A0008023136070470000F40800205009002099
:1055B000034B0360034B0B604FF480731360704721
:1055C000500B0020AC0B002000F1080141604FF0AF
:1055D000FF31816000F10801C160016100210160BB
:1055E000704700210161704710B502460B685C1CD2
:1055F0000CB9106907E002F1080000E04068446857
:1056000024689C42FAD944684C604C68A160886068
:1056100041600A611468641C146010BD42684A60ED
:1056200093688B60936859609160086103685B1CA4
:105630000360704700BF502080F31188BFF34F8F85
:10564000BFF36F8F00BF0E480068401C0C49086014
:1056500008460068012812D10A480068C0B208B99B
:10566000012000E0002050B900BF502080F31188D5
:10567000BFF34F8FBFF36F8F00BF00BFFEE77047D0
:105680009800002004ED00E00D48006850B900BF0C
:10569000502080F31188BFF34F8FBFF36F8F00BF8F
:1056A00000BFFEE706480068401E0549086008463E
:1056B000006820B9002080F3118800BF00BF704748
:1056C0009800002070B506463546002E3FD0083DB4
:1056D0002C461F4960680968084008B1012000E0B5
:1056E000002050B900BF502080F31188BFF34F8FC6
:1056F000BFF36F8F00BF00BFFEE7206808B901202D
:1057000000E0002050B900BF502080F31188BFF3A3
:105710004F8FBFF36F8F00BF00BFFEE70C4960687B
:105720000968084098B1206888B909496068096823
:105730008843606000F074F90649606809680844AD
:10574000044908602046FFF7CFFB00F059FF70BD09
:10575000940000208C00002000204FF0E021086120
:105760008861064800684FF47A71B0FBF1F0401E82
:105770004FF0E021486107200861704728000020B1
:1057800070B5FAF785FD0446102C16D304F1E0201D
:1057900090F8F05315480078854201DB012000E0C5
:1057A000002050B900BF502080F31188BFF34F8F05
:1057B000BFF36F8F00BF00BFFEE70D48006800F425
:1057C000E0600C490968884201D8012000E000200F
:1057D00050B900BF502080F31188BFF34F8FBFF343
:1057E0006F8F00BF00BFFEE770BD00009C0000206F
:1057F0000CED00E0A0000020024600200BE0084B6A
:1058000053F8303033B9064B43F8301003EBC00384
:105810005A6002E0401C0828F1D300BF7047000026
:10582000D80200202DE9F04105460E4617462C46C9
:10583000FFF700FF94F94400401C10B9002084F8E1
:10584000440094F94500401C10B9002084F845003C
:10585000FFF71AFFA06B28B93A46314604F124003D
:1058600000F062F82046FFF790FDBDE8F0810000EF
:1058700070B504460025D4B11248006808B901206B
:1058800000E0002050B900BF502080F31188BFF322
:105890004F8FBFF36F8F00BF00BFFEE700F0C0F86F
:1058A00000212046FFF79EF800F0AAFE05463DB90C
:1058B0004FF0805004490860BFF34F8FBFF36F8FE4
:1058C00070BD00006400002004ED00E00349096899
:1058D00001600349096841607047000054000020DE
:1058E000400000200120014908607047500000205E
:1058F00070B504460D4654B900BF502080F311889E
:10590000BFF34F8FBFF36F8F00BF00BFFEE70548A7
:10591000016818312046FFF767FE01212846FFF78E
:1059200061F870BD2C00002070B505460E46144687
:1059300055B900BF502080F31188BFF34F8FBFF3DC
:105940006F8F00BF00BFFEE7064801681831284688
:10595000FFF764FE0CB14FF0FF3621463046FFF7EB
:1059600041F870BD2C00002010B586B000200590D5
:10597000049003AA04A905A8FFF70EFE0022DDE9A2
:1059800004101346CDE9002102901EA11F48039A7E
:1059900000F082FC1E4908600846006808B1012436
:1059A00000E00024012C02D100F0ACFE0446012CE2
:1059B00015D100BF502080F31188BFF34F8FBFF384
:1059C0006F8F00BF4FF0FF3012490860012012496D
:1059D000086000201149086000F072F810E0601CB7
:1059E00008B1012000E0002050B900BF502080F332
:1059F0001188BFF34F8FBFF36F8F00BF00BFFEE76B
:105A000006B010BD49444C4500000000714D00082F
:105A1000600000205C0000204800002040000020C2
:105A200002480068401C014908607047640000207B
:105A30001E48006818B101201D49086034E00020AC
:105A40001B4908601B4801680CE051B900BF502099
:105A500080F31188BFF34F8FBFF36F8F00BF00BF7C
:105A6000FEE7491E01EB8100134A52F8200008B9F5
:105A7000012000E000200028E7D101EB81020E4B5D
:105A800003EB820042685268426000F108024368FA
:105A9000934202D14268526842604268D268074B22
:105AA0001A600448016000BF7047000064000020D5
:105AB0005000002044000020180300202C0000208B
:105AC0001CB5524800685249884201D0012000E0CC
:105AD000002050B900BF502080F31188BFF34F8FD2
