:020000040800F2
:100000002852002099020008A1410008AD2F0008E5
:100010009D41000819060008954F000800000000E7
:10002000000000000000000000000000D9010008EE
:100030001B090008000000003502000841480008C4
:10004000B3020008B3020008B3020008B3020008BC
:10005000B3020008B3020008B3020008B3020008AC
:10006000B3020008B3020008B3020008B30200089C
:10007000B3020008B3020008B30200081D0600081E
:10008000B3020008B3020008B3020008B30200087C
:10009000B3020008B3020008B3020008B30200086C
:1000A000B3020008B3020008B3020008B30200085C
:1000B000B3020008B3020008B3020008C12F000811
:1000C000B12F0008B3020008B3020008B302000811
:1000D0006D420008B3020008854F0008B302000813
:1000E0001D090008B3020008B3020008B3020008AB
:1000F000B3020008B3020008B3020008B30200080C
:10010000B3020008B3020008B3020008B3020008FB
:10011000B3020008B302000851490008B302000806
:1001200079070008B3020008B3020008B302000810
:10013000B30200080000000000000000B302000845
:10014000B3020008B3020008B3020008B3020008BB
:10015000B3020008B3020008B3020008B3020008AB
:10016000B3020008B3020008B3020008B30200089B
:10017000B3020008B3020008B30200080000000048
:1001800000000000B30200080000000000000000B2
:10019000B30200080000000000000000B3020008E5
:1001A000000000000000000000000000B302000892
:1001B000B3020008B3020008B3020008B30200084B
:1001C000B3020008DFF80CD000F00AF9004800473D
:1001D00089510008285200202C4B19680868B0E8A3
:1001E000F04F80F30988BFF36F8F4FF0000080F36A
:1001F000118870470000000008480068006880F31C
:1002000008884FF0000080F3148862B661B6BFF32F
:100210004F8FBFF36F8F00DF00BF00BF08ED00E01E
:10022000DFF80C00016841F470010160704700BF05
:1002300088ED00E0EFF30980BFF36F8F134B1A686E
:100240001EF0100F08BF20ED108A20E9F04F10605B
:1002500009B44FF0500080F31188BFF34F8FBFF304
:100260006F8F06F007F94FF0000080F3118809BC8A
:1002700019680868B0E8F04F1EF0100F08BFB0EC26
:10028000108A80F30988BFF36F8F70473000002019
:10029000EFF3058070470000064880470648004796
:1002A000FEE7FEE7FEE7FEE7FEE7FEE7FEE7FEE726
:1002B000FEE7FEE735490008C50100082DE9F05FBB
:1002C0000546002092469B468846064681464024C5
:1002D0001BE0284641464746224600F070F8534648
:1002E0005A46C01A914110D311461846224600F0D2
:1002F00057F82D1A67EB01084F46224601200021CE
:1003000000F04EF817EB00094E41201EA4F1010445
:10031000DFDC484631462A464346BDE8F09F40EAC6
:1003200001039B0703D009E008C9121F08C0042A73
:10033000FAD203E011F8013B00F8013B521EF9D25A
:100340007047D2B201E000F8012B491EFBD2704782
:100350000022F6E710B513460A4604461946FFF791
:10036000F0FF204610BD421C10F8011B0029FBD1F4
:10037000801A704730B50B46014600202022012428
:1003800009E021FA02F59D4205D303FA02F5491B63
:1003900004FA02F52844151EA2F10102F1DC30BD79
:1003A000202A04DB203A00FA02F100207047914035
:1003B000C2F1200320FA03F3194390407047202A2A
:1003C00004DB203A21FA02F00021704721FA02F3FF
:1003D000D040C2F120029140084319467047000006
:1003E000064C074D06E0E06840F0010394E8070082
:1003F00098471034AC42F6D3FFF7E8FEE09B0008C4
:10040000009C000870B50546AC6B206C00F05000F5
:1004100050BB206C40F4007020642068806800F0BD
:100420004050E8B9207ED8B92068C06A00F4700056
:1004300020B12068806800F4806088B92068406836
:1004400020F0200021684860206C20F48070206437
:10045000206C00F4805018B9206C40F0010020643A
:10046000204600F041FB0BE0206C00F0100018B1BA
:10047000204600F03BFB03E0A06BC16C2846884798
:1004800070BD70B50546AC6B40202064606C40F0D8
:1004900004006064204600F029FB70BD70B504467E
:1004A000A56B284600F021FB70BD000055494A6845
:1004B00022F440324A604A6843681A434A6002683C
:1004C000526822F4807203685A60026853680269B5
:1004D00043EA022203685A600268526822F04072BE
:1004E00003685A600268526883681A4303685A6056
:1004F0000268926822F4006203689A600268926857
:10050000C3681A4303689A603F4B826A9A4218D0C4
:100510000268926822F0706203689A6002689268CA
:10052000836A1A4303689A600268926822F0405214
:1005300003689A6002689268C36A1A4303689A6003
:100540000BE00268926822F0706203689A600268A9
:10055000926822F0405203689A600268926822F022
:10056000020203689A6002689368027E43EA4202CC
:1005700003689A602022125CA2B10268526842F4B9
:10058000006203685A600268526822F4604203689D
:100590005A6002685368426A521E43EA4232036854
:1005A0005A6005E00268526822F4006203685A60EB
:1005B0000268D26A22F470020368DA620268D36ABF
:1005C000828B521E43EA02520368DA620268926822
:1005D00022F4007203689A600268936890F83020F1
:1005E00043EA422203689A600268926822F48062B9
:1005F00003689A6002689368426943EA822203684A
:100600009A607047002301400100000F00BF4FF4C3
:100610007A7004F00DFEFAE700BFFEE710B502485D
:1006200000F04AFC10BD00005402002008B500BFD5
:10063000002000901A48006840F400101849086033
:100640000846006800F40010009000BF00BF154885
:10065000154908600020486040211348816000214E
:10066000C161C1604FF4806101610021C162016319
:100670004162816141614FF4403101620B480A4996
:100680008863084600F038FD08B100F059F90022EF
:1006900005210F2001F00EFB0F2001F0FBFA08BD31
:1006A0003038024070600240540200205C0100209B
:1006B00008B500BF002000901A48006840F4001000
:1006C000184908600846006800F40010009000BF58
:1006D00000BF1548154908604FF000704860402180
:1006E000124881600021C161C1604FF480610161E5
:1006F0000021C162016341624FF400518161416197
:100700004FF44031016200F0F7FC08B100F018F935
:1007100000220521112001F0CDFA112001F0BAFAD2
:1007200008BD000030380240A0600240B402002042
:1007300030B58DB005460A4800F01AFB09484388D9
:10074000028809A1684604F027FC6846FFF70BFE03
:1007500084B222466946074802F0FBFB0DB030BD6B
:10076000C00000200000002025692C2025690D0A0A
:1007700000000000B401002010B5024800F09CFB0E
:1007800010BD0000F401002008B500BF002000905B
:100790001A48006840F4800018490860084600685C
:1007A00000F48000009000BF00BF154815490860A4
:1007B00000204860002113488160C161C16001616F
:1007C000C162016341624FF400518161891041614E
:1007D000490101620C480B49C8630C48886308460C
:1007E00000F08AFC08B100F0ABF8002205213820A7
:1007F00001F060FA382001F04DFA08BD30380240AF
:1008000010640240F401002031070008C0000020FD
:100810000146087810381823B0FBF3F20848805CD2
:10082000C865032A05D908686FF30900001D8865AB
:1008300003E008686FF309008865886D7047000061
:1008400072730008014600208A6A8B69CBB932B105
:10085000012A0DD0022A03D0032A10D10EE000BFD6
:10086000CB6A03F08073B3F1807F00D1012007E0F1
:10087000CB6AB3F1C07F00D1012001E000E000BFEE
:1008800034E08B69B3F5005F1AD132B1012A07D089
:10089000022A03D0032A11D10AE000BF01200EE092
:1008A000CB6A03F08073B3F1807F00D1012006E0B2
:1008B000CB6AB3F1C07F00D1012000E000BF15E09A
:1008C00032B1012A05D0022A04D0032A0CD103E058
:1008D00000BF00BF012008E0CB6A03F08073B3F1D2
:1008E000807F00D1012000E000BF00BF704730B51D
:1008F0000468246824F4802405682C60046863601C
:100900008468402C04D10468A2600468E16003E0BC
:100910000468A1600468E26030BD704710B5C8206B
:1009200000F0AAFC0548006800F4005008B103F08C
:1009300057FF4FF4005000F0B5FC10BD143C0140CF
:100940007047000038B502460020009000BF92F8C2
:100950003C00012801D1022038BD012082F83C0072
:1009600000BF0868092816D91068C0680C780A3CCE
:1009700004EB44050724AC40A0431468E0600C7805
:100980000A3C04EB44048868A0401468E4682043EF
:100990001468E06013E0106800690C7804EB44050B
:1009A0000724AC40A043146820610C7804EB440495
:1009B0008868A0401468246920431468206148684E
:1009C000072817D21068406B0C79641E04EB84056D
:1009D0001F24AC40A04314686063088880B20C797F
:1009E000641E04EB8404A0401468646B2043146804
:1009F000606331E048680D2817D21068006B0C79ED
:100A0000E41F04EB84051F24AC40A043146820635A
:100A1000088880B20C79E41F04EB8404A0401468B9
:100A2000246B20431468206316E01068C06A0C79B8
:100A30000D3C04EB84051F24AC40A0431468E06225
:100A4000088880B20C790D3C04EB8404A040146843
:100A5000E46A20431468E0621E4B1F4C1068A042F9
:100A60000AD10868122807D1586820F4000058609D
:100A7000586840F480005860174C1068A04222D19A
:100A8000164C0868A04202D0086811281BD158688B
:100A900020F480005860586840F4000058600F4C03
:100AA0000868A0420FD10E4800680E4CB0FBF4F06D
:100AB00000EB80004000009002E00098401E009093
:100AC00000980028F9D100BF002082F83C0000BF48
:100AD00000BF41E700230140002001401200001048
:100AE0002C00002040420F00704770477047000004
:100AF00070B5044600250CB9012070BD1549A06AE7
:100B0000884200D000BF206C30B9204600F024F8A5
:100B10000020606484F83C00206C00F0100088B96C
:100B2000206C20F4885040F0020020642046FFF73B
:100B3000BDFC00206064206C20F0020040F0010049
:100B4000206400E0012500BF002084F83C0000BFC5
:100B50002846D2E70100000F10B586B004461421E4
:100B600001A8FFF7F5FB1E492068884235D100BF78
:100B7000002000901B48006840F48070194908600C
:100B80000846006800F48070009000BF00BF00BFFE
:100B90000020009013481438006840F0010011490B
:100BA000143908600846006800F00100009000BF9A
:100BB00000BF01200190032002900020039001A9B2
:100BC000094800F07DFB02200190032002900020E4
:100BD000039001A9044800F073FB06B010BD0000AB
:100BE000002001404438024000000240F8B50446AD
:100BF0000D4616460020009000BF94F83C000128E6
:100C000001D10220F8BD012084F83C0000BF20681B
:100C1000806800F00100A0B92068806840F0010001
:100C200021688860494800684949B0FBF1F000EB51
:100C30004000009002E00098401E009000980028BC
:100C4000F9D12068806800F0010000287CD0206C79
:100C500040F20161884340F480702064206840685D
:100C600000F4806028B1206C20F4005040F48050E3
:100C70002064206C00F48050B0F5805F04D1606C7B
:100C800020F00600606401E00020606400BF0020E6
:100C900084F83C0000BF2F4F2F48A16BC8632F483A
:100CA000A16B08642E48A16BC8646FF02200216814
:100CB00008602068406840F08060216848602068D3
:100CC000806840F4807021688860226802F14C01DD
:100CD00033462A46A06B00F085FA786800F01F00C2
:100CE00018BB20492068884213D01F4920688842D9
:100CF00004D1381D006800F01F0050B11B49206866
:100D0000884221D11348001D006800F01F00102800
:100D10001AD22068806800F0405028B920688068A6
:100D200040F08040216888600EE00E4920688842CB
:100D30000AD12068806800F0405028B92068806897
:100D400040F080402168886000205BE72C00002094
:100D500040420F0000230140050400089D040008E4
:100D600083040008002001400021014000220140CE
:100D700070B50446002500BF94F83C00012801D15D
:100D8000022070BD012084F83C0000BF206880680C
:100D900020F00100216888602068806800F0010070
:100DA000A8B92068806820F4807021688860A06BF2
:100DB00000F014F805462068406820F08060216843
:100DC0004860206C20F4885040F00100206400BF8F
:100DD000002084F83C0000BF2846D2E770B50446E6
:100DE000A56D00F06BFB064694F83500022808D08C
:100DF0008020606500BF002084F8340000BF01201F
:100E000070BD2068006820F0160021680860206826
:100E1000406920F0800021684861206C08B9A06C0E
:100E200028B12068006820F0080021680860206868
:100E3000006820F00100216808600FE000F03EFB30
:100E4000801B05280AD92020606500BF002084F897
:100E5000340000BF032084F83500D1E72068006823
:100E600000F001000028E9D194F85C103F20884090
:100E7000A86000BF002084F8340000BF012084F87F
:100E800035000020BCE7014691F83500022803D068
:100E90008020486501207047052081F835000868EA
:100EA000006820F001000A6810600020F3E70146A6
:100EB00091F8350070470000F8B504460020009016
:100EC0008C4800684FF41651B0FBF1F7A56D2E6801
:100ED00094F85C1008208840304098B12068006881
:100EE00000F0040070B12068006820F00400216860
:100EF000086094F85C1008208840A860606D40F09D
:100F00000100606594F85C1001208840304068B1B1
:100F10002068406900F0800040B194F85C10012026
:100F20008840A860606D40F00200606594F85C1035
:100F300004208840304068B12068006800F002005A
:100F400040B194F85C1004208840A860606D40F0C7
:100F50000400606594F85C1010208840304078B33D
:100F60002068006800F0080050B394F85C1010206E
:100F70008840A8602068006800F4802080B1206864
:100F8000006800F4002028B9206CC8B12046216C0C
:100F9000884715E0A06C98B12046A16C88470FE007
:100FA0002068006800F4807028B92068006820F08C
:100FB000080021680860206C10B12046216C884729
:100FC00094F85C10202088403040002865D02068CC
:100FD000006800F0100000285FD094F85C1020201A
:100FE0008840A86094F83500052828D1206800685A
:100FF00020F01600216808602068406920F0800019
:1010000021684861206C08B9A06C28B1206800688C
:1010100020F008002168086094F85C103F208840A8
:10102000A86000BF002084F8340000BF012084F8CD
:101030003500206D10B12046216D8847F8BD20682D
:10104000006800F4802080B12068006800F400206F
:1010500028B9606C10B12046616C88471DE0E06BD8
:10106000D8B12046E16B884717E02068006800F49B
:10107000807068B92068006820F01000216808605E
:1010800000BF002084F8340000BF012084F8350040
:10109000E06B10B12046E16B8847606D38B3606D3E
:1010A00000F00100F0B1052084F8350020680068E8
:1010B00020F001002168086000BF0098401C0090EB
:1010C000B84200D905E02068006800F0010000285F
:1010D000F3D100BF00BF002084F8340000BF01201E
:1010E00084F83500E06C10B12046E16C884700BF01
:1010F000A4E700002C0000202DE9F0410446002563
:1011000000F0DCF9074614B90120BDE8F081606AFF
:1011100000B100BF00BF002084F8340000BF0220EF
:1011200084F835002068006820F00100216808601C
:101130000AE000F0C3F9C01B052805D9202060652E
:10114000032084F83500E0E72068006800F0010023
:101150000028EED12068056821480540D4E9010146
:101160000843E16808432169084361690843A169AC
:101170000843E1690843216A08430543606A04287B
:1011800003D1D4E90B0108430543206805602068BA
:10119000456925F00705606A0543606A04280DD19A
:1011A000A06A0543E06A48B12046FFF74BFB28B12F
:1011B00040206065012084F83500A6E7206845617D
:1011C0002046FFF725FB064694F85C103F20884038
:1011D000B06000206065012084F83500002094E7AD
:1011E0003F8010F02DE9F04704460D4616461F4695
:1011F0004FF00008D4F8589000BF94F8340001284C
:1012000002D10220BDE8F087012084F8340000BF3D
:1012100094F83500012825D1022084F835000020FB
:1012200060653B46324629462046FFF760FB94F84E
:101230005C103F208840C9F808002068006840F032
:10124000160021680860206C28B12068006840F012
:101250000800216808602068006840F001002168EB
:10126000086006E000BF002084F8340000BF4FF0A3
:1012700002084046C6E7000070B5044600F01EF9BB
:1012800006462546681C10B104480078054400BF96
:1012900000F014F9801BA842FAD370BD280000208A
:1012A0007047000010B5044604480068204020B193
:1012B000024804602046FFF7F3FF10BD143C0140D4
:1012C000F8B502460B460025002400200021D7E097
:1012D000012606FA01F51E6806EA0504AC4273D140
:1012E0005E68012E08D05E68022E05D05E68112E61
:1012F00002D05E68122E13D190684F000326BE40C4
:10130000B0434F00DE68BE40304390605068012615
:101310008E40B0431E79C6F300168E4030435060B5
:10132000D0684F000326BE40B0434F009E68BE40C9
:101330003043D0605E68022E02D05E68122E13D158
:10134000CF0802F1200656F827004E07F70E0F26A9
:10135000BE40B0434F07FF0E1E69BE403043CF086A
:1013600002F1200646F8270010684F000326BE4011
:10137000B0431E7906F003064F00BE4030431060B4
:101380005E6806F08056B6F1805F78D100BF002617
:1013900000963D4E366846F480463B4F3E603E46E2
:1013A000366806F48046009600BF00BF374E8F08AF
:1013B00056F827008E07370F0F26BE40B043344E35
:1013C000B24202D100261FE059E0324EB24201D1B2
:1013D000012619E0304EB24201D1022614E02F4E10
:1013E000B24201D103260FE02D4EB24201D10426B4
:1013F0000AE02C4EB24201D1052605E02A4EB24247
:1014000001D1062600E007268F073F0FBE4030437C
:101410001E4E8F0846F82700244E3068A0435E68B1
:1014200006F48036B6F5803F00D120431F4E306071
:10143000361D3068A0435E6806F40036B6F5003FFE
:1014400000D12043194E361D3060361D3068A04350
:101450005E6806F48016B6F5801F00D12043134E57
:1014600008363060361D3068A0435E6806F400160A
:10147000B6F5001F00D120430C4E0C363060491CDD
:101480001029FFF425AFF8BD443802400838014068
:10149000000002400004024000080240000C02402C
:1014A000001002400014024000180240003C0140BD
:1014B0000AB1816101E00B04836170470148006853
:1014C0007047000020000020704770472DE9F84F5A
:1014D0000446206847692068D0F80480002594F805
:1014E0003E90C7F3002040B1C8F3002028B145F07A
:1014F00001056FF4807021684861C7F3402040B156
:10150000C8F3002028B145F002056FF4007021688F
:101510004861C7F3802070B3C8F3002058B3CA46AF
:10152000B4F82AB094F83D60206B0090BAF1200F17
:101530000FD1BBF1000F0CD1212E06D0292E04D0E3
:10154000282E06D10098212803D1204602F006FB60
:1015500011E06FF480602168486145F00405B9F13D
:10156000100F02D0B9F1400F05D12068006840F497
:10157000007021680860C7F3C02040B1C8F30020A4
:1015800028B145F008056FF40060216848612DB16D
:10159000206C28432064204601F07EFDBDE8F88FD2
:1015A0002DE9F0470546002728684668D5F82C80C5
:1015B00095F83E9095F83DA0B9F1100F02D0B9F121
:1015C000400F78D1286887692868446904F00100D1
:1015D00060B9B8F52A0F02D0B8F12A4F01D1012025
:1015E00000E00020012801D1BDE8F08704F00100EF
:1015F00048B1C6F3402030B1284601F0E9FC284646
:1016000002F08BF9ACE0C4F3C00030B1C6F3402067
:1016100018B1284602F038F8A2E0C4F3400030B117
:10162000C6F3402018B1284602F043F898E0C7F30B
:101630008000F8B12868406800F40060B0F5006FE1
:10164000E0D0C4F3C01048B1C6F3802030B1C4F379
:10165000800018B9284601F0ABFF81E0C4F3800098
:1016600000287DD0C6F34020002879D0284601F01C
:1016700047FF75E02868406800F40060B0F5006F2F
:101680006ED0C4F3801048B1C6F3802030B1C4F3EB
:10169000800018B9284601F083FE61E0C4F38000A1
:1016A00000285DD0C6F34020002859D0284601F01C
:1016B000E4FD55E0FFE7286C10B12868446903E0B9
:1016C0002868876928684469C4F3400058B1C6F3A4
:1016D000402040B1286C08B12868876939462846FF
:1016E00002F008FA3CE0C4F3001030B1C6F3402029
:1016F00018B1284602F082FA32E0BAF1210F02D086
:10170000BAF1290F16D1C4F3C01048B1C6F3802036
:1017100030B1C4F3800018B9284602F0C8F91FE0C0
:10172000C4F38000E0B1C6F34020C8B1284602F0FF
:10173000B1F915E0C4F3801048B1C6F3802030B190
:10174000C4F3800018B9284602F081F908E0C4F318
:10175000800028B1C6F3402010B1284602F06AF993
:1017600000BF41E77047000070B504460CB9012086
:1017700070BD94F83D0028B9002084F83C00204654
:1017800000F098F9242084F83D002068006820F0DB
:101790000100216808602068006840F4004021686A
:1017A00008602068006820F400402168086000F0AC
:1017B00003FC05465C496068884206D85B48854260
:1017C00001D2012007E0002005E05948854201D2FE
:1017D000012000E00020012800D1C9E75548B5FBF1
:1017E000F0F62068406820F03F00304321684860F0
:1017F0004D496068884201D8701C07E04FF496702C
:1018000070434FF47A71B0FBF1F0401C2168096A13
:1018100021F03F010843216808624349606888421B
:1018200014D8681E61684900B0FBF1F0401CC0F399
:101830000B00042801D204203DE0681E61684900C5
:10184000B0FBF1F0401CC0F30B0034E0A06838B9E5
:10185000681E616801EB4101B0FBF1F0401C0AE039
:10186000681E616801EBC10202EB0111B0FBF1F0EF
:10187000401C40F48040C0F30B0008B901201AE07E
:10188000A06848B9681E616801EB4101B0FBF1F046
:10189000401CC0F30B000CE0681E616801EBC10244
:1018A00002EB0111B0FBF1F0401CC0F30B0040F45F
:1018B000804040F400402168C9694CF6FF729143B2
:1018C00008432168C861D4E9070108432168096811
:1018D00021F0C001084321680860D4E903100843DF
:1018E0002168896848F2FF32914308432168886083
:1018F000D4E9050108432168C96821F0FF010843C4
:101900002168C8602068006840F001002168086014
:1019100000202064202084F83D000020206384F80B
:101920003E0000BF24E70000A086010080841E0066
:1019300000093D0040420F007047704770470000AB
:101940002DE9F8430446894616461F46DDF82080F7
:10195000FFF7B4FD054694F83D0020287ED11923F9
:10196000012251492046009502F03CFA10B10220B4
:10197000BDE8F88300BF94F83C00012801D10220A3
:10198000F6E7012084F83C0000BF2068006800F002
:10199000010028B92068006840F001002168086053
:1019A0002068006820F4006021680860212084F825
:1019B0003D00102084F83E000020206466626785A8
:1019C000608D20853948E0622B46424649462046D4
:1019D00001F038FD08B10120CAE700BF00200090E7
:1019E00020684069009020688069009000BF00BFB7
:1019F00044E02A464146204602F099FA50B1206C54
:101A0000042805D12068006840F40070216808604F
:101A10000120ADE7606A007821680861606A401CB7
:101A20006062608D401E6085208D401E208520688C
:101A30004069C0F3800070B1208D60B1606A0078A9
:101A400021680861606A401C6062608D401E60858C
:101A5000208D401E20852A46414600E022E0204697
:101A600002F092F950B1206C042805D1206800687A
:101A700040F4007021680860012079E7208D00287B
:101A8000B7D12068006840F4007021680860202009
:101A900084F83D00002084F83E0000BF84F83C003C
:101AA00000BF65E7022063E7020010000000FFFFAF
:101AB0007047704710B586B00446142101A8FEF7A0
:101AC00047FC23492068884240D100BF0020009095
:101AD0002048006840F002001E490860084600687F
:101AE00000F00200009000BF00BF4FF44070019072
:101AF00012200290012003900320049004200590FE
:101B000001A91548FFF7DCFB00BF00200090114839
:101B10001030006840F400100E491031086008468B
:101B2000006800F40010009000BF00BF00220521F3
:101B30001F2000F0BFF81F2000F0ACF800220521A4
:101B4000202000F0B7F8202000F0A4F806B010BD67
:101B50000054004030380240000402407047704793
:101B60000348006803490978084401490860704740
:101B7000200000202800002010B50D48006840F427
:101B800000700B4908600846006840F480600860F7
:101B90000846006840F480700860032000F0C8F830
:101BA000002000F007F800F04BF8002010BD000006
:101BB000003C024070B588B0044600250026002293
:101BC0002146362000F076F8362000F063F800BF9A
:101BD000002001901648006840F010001449086089
:101BE0000846006800F01000019000BF00BF02A985
:101BF00003A800F0B9F900F0DFF945000D48B5FB86
:101C0000F0F0461E0C480D49086040F2E7310B48E1
:101C1000C160466000210161816000F05CFF20B975
:101C2000064800F073FF08B070BD0120FBE700001C
:101C30004038024040420F000010004014030020D2
:101C400008B500BF002000901148006840F48040B3
:101C50000F4908600846006800F48040009000BF0B
:101C600000BF00BF00200090081F006840F08050B7
:101C7000091F08600846006800F08050009000BF0F
:101C800000BF00220F21901E00F014F808BD0000D4
:101C90004438024001460846002809DB00F01F03D3
:101CA00001229A4043099B0003F1E023C3F800217D
:101CB00000BF70472DE9F05F80460D4616460027AD
:101CC00003F07EF9074639462A46334601F00700FD
:101CD000C0F1070ABAF1040F02D94FF0040A01E07B
:101CE000C0F1070AD14600F1040ABAF1070F02D287
:101CF0004FF0000A01E0A0F1030AD4464FF0010AB8
:101D00000AFA09FAAAF1010A0AEA020A0AFA0CFA1C
:101D10004FF0010B0BFA0CFBABF1010B0BEA030BC1
:101D20004AEA0B042146404603F052F9BDE8F09F11
:101D300000BF00F00702064B19684FF6FF03194079
:101D4000044B0B4343EA0221014B196000BF70476B
:101D50000CED00E00000FA0538B5002400BF0020BB
:101D600000901D48006840F080501B4908600846FC
:101D7000006800F08050009000BF00BF01201749AC
:101D80000864FFF79BFB044607E0FFF797FB001B87
:101D9000B0F57A7F01D9032038BD1148406800F4BE
:101DA0008030B0F5803FF0D101200C494864FFF746
:101DB00085FB044607E0FFF781FB001BB0F57A7F47
:101DC00001D90320E8E70648406800F40030B0F588
:101DD000003FF0D10020DFE74038024000000E4213
:101DE0000070004070B504460D460CB9012070BD6E
:101DF0005848006800F00F00A84209D255490D70FC
:101E00000846006800F00F00A84201D00120EEE76C
:101E1000207800F0020002281DD1207800F0040094
:101E2000042805D14C48006840F4E0504A49086055
:101E3000207800F00800082805D14748006840F4E1
:101E40006040454908604448006820F0F000A168FF
:101E5000084341490860207800F00100A8B3606899
:101E6000012807D13C4808380068C0F34040B8B9A1
:101E70000120BCE76068022802D06068032807D10F
:101E8000354808380068C0F3406048B90120AEE723
:101E9000314808380068C0F3400008B90120A6E7BF
:101EA0002D48006820F00300616808432A49086053
:101EB000FFF704FB064609E0FFF700FB801B41F239
:101EC0008831884202D9032091E707E02248006860
:101ED00000F00C006168B0EB810FEDD11D48006887
:101EE00000F00F00A84209D91A490D700846006891
:101EF00000F00F00A84201D0012078E7207800F020
:101F00000400042807D11448006820F4E050E16878
:101F1000084311490860207800F00800082808D11B
:101F20000D48006820F46040216940EAC1000A4978
:101F3000086000F061F808490968C1F30311074A15
:101F4000515CC8400649086006480068FFF732FE49
:101F500000204CE7003C0240083802407A73000839
:101F60002C000020240000200F2202600D4A12687D
:101F700002F0030242600B4A126802F0F002826033
:101F8000084A126802F4E052C260064A126802F47B
:101F90006042D2080261044A126802F00F020A602D
:101FA0007047000008380240003C024001480068C9
:101FB000704700002C00002000B5FFF7F7FF044930
:101FC0000968C1F38221034A515CC84000BD00008A
:101FD000083802408A73000800B5FFF7E7FF04499C
:101FE0000968C1F34231034A515CC84000BD00009A
:101FF000083802408A7300082DE9F04700240025C4
:102000000026A146A2463F48006800F00C0030B10F
:10201000042807D0082808D00C286BD138E0DFF856
:10202000E8A06AE0DFF8E4A067E03648001F006837
:1020300000F03F043348001F006800F4800078B1CE
:1020400032483049091F0968C1F38811A0FB0170AB
:102050000146224600233846FEF730F905460DE0DA
:1020600029482849091F0968C1F38811A0FB01719B
:10207000224600233846FEF721F905462148001F75
:102080000068C0F30140401C4600B5FBF6FA34E09E
:102090001C48001F006800F03F041A48001F006839
:1020A00000F4800078B119481649091F0968C1F386
:1020B0008811A0FB01700146224600233846FEF736
:1020C000FDF805460EE010480E49091F0968C1F3E6
:1020D0008811A0FB01700146224600233846FEF716
:1020E000EDF805460748001F0068C0F30279B5FB0C
:1020F000F9FA02E0DFF810A000BF00BF5046BDE8CB
:10210000F0870000083802400024F40040787D0188
:10211000F8B504460025207800F0010000286FD0B3
:10212000FD48006800F00C0004281BD0FA48006845
:1021300000F00C00082807D1F748001F006800F4E1
:102140008000B0F5800F0DD0F348006800F00C005F
:102150000C2813D1F048001F006800F48000B0F58F
:10216000800F0BD1EC4808380068C0F340400028CD
:1021700059D06068002856D10120F8BD00BF6068C2
:10218000B0F5803F08D1E4480838006840F480305A
:10219000E149083908601EE06068B0F5A02F0DD154
:1021A000DD480838006840F48020DB4908390860C1
:1021B0000846006840F4803008600CE0D6480838D3
:1021C000006820F48030D449083908600846006867
:1021D00020F48020086000BF606890B1FFF76EF9BE
:1021E000054606E0FFF76AF9401B642801D9032081
:1021F000C3E7C94808380068C0F340400028F1D060
:1022000011E0FFF75BF9054606E0FFF757F9401BC1
:10221000642801D90320B0E7BF4808380068C0F33C
:1022200040400028F1D1207800F0020002286BD154
:10223000B948006800F00C00B8B1B748006800F079
:102240000C00082805D1B448001F006800F4800085
:1022500058B1B148006800F00C000C281CD1AE4801
:10226000001F006800F48000B0B9AB48083800686F
:10227000C0F3400020B1E068012801D001207CE7D4
:10228000A5480838006820F0F800216940EAC1003C
:10229000A1490839086037E0E06800B301209F4990
:1022A0000860FFF70BF9054606E0FFF707F9401B4A
:1022B000022801D9032060E7974808380068C0F376
:1022C00040000028F1D094480838006820F0F80059
:1022D000216940EAC10090490839086014E00020F3
:1022E0008E490860FFF7EAF8054606E0FFF7E6F8D2
:1022F000401B022801D903203FE7874808380068BF
:10230000C0F340000028F1D1207800F00800082830
:102310002CD16069A8B1012081490860FFF7CEF88F
:10232000054606E0FFF7CAF8401B022801D9032042
:1023300023E779486C300068C0F340000028F1D0F2
:1023400014E0002076490860FFF7B8F8054606E07B
:10235000FFF7B4F8401B022801D903200DE76E48AF
:102360006C300068C0F340000028F1D1207800F004
:102370000400042870D1002667483830006800F057
:10238000805090B900BF002000906348383000684A
:1023900040F080506049383108600846006800F01D
:1023A0008050009000BF00BF01265E48006800F426
:1023B0008070B0B95B48006840F48070594908608B
:1023C000FFF77CF8054606E0FFF778F8401B022887
:1023D00001D90320D1E65348006800F4807000283A
:1023E000F2D000BFA068012808D14B4868300068CF
:1023F00040F001004849683108601DE0A0680528E8
:102400000DD145486830006840F004004249683109
:1024100008600846006840F0010008600CE03E4893
:102420006830006820F001003B49683108600846C8
:10243000006820F00400086000BFA068A8B1FFF7A2
:102440003DF8054609E0FFF739F8401B41F28831B5
:10245000884202D9032090E626E02F4868300068C1
:10246000C0F340000028EED013E0FFF727F8054640
:1024700008E0FFF723F8401B41F28831884201D978
:1024800003207AE6244868300068C0F34000002842
:10249000EFD1012E07D120483830006820F080505D
:1024A0001D493831086000BFA069E8B31A480068C8
:1024B00000F00C00082862D0A06902284AD1002050
:1024C00016490866FEF7FAFF054606E0FEF7F6FF36
:1024D000401B022801D903204FE60F480838006846
:1024E000C0F340600028F1D1D4E907010843616AD4
:1024F00040EA81110122A06AC2EB500041EA00418A
:102500002C20005D41EA00613020005D41EA00704E
:102510000149091F086008E00838024000004742EE
:10252000800E4742007000402BE0012016490866EB
:10253000FEF7C4FF054606E0FEF7C0FF401B022879
:1025400001D9032019E611480068C0F34060002853
:10255000F2D016E000200C490866FEF7AFFF0546F2
:1025600006E0FEF7ABFF401B022801D9032004E67A
:1025700006480068C0F340600028F2D101E0012065
:10258000FBE50020F9E5000000004742003802406A
:102590007047014691F8510070470000F8B50446B5
:1025A0002068466820688568C5F3801048B905F042
:1025B000010030B1C6F3801018B12046216C884765
:1025C000F8BDC5F3400030B1C6F3C01018B12046C5
:1025D000616C8847F4E7C5F3401030B9C5F380104B
:1025E00018B9C5F3002000287CD0C6F3401000289D
:1025F0007DD0C5F38010F0B194F8510003280ED0BF
:10260000606D40F00400606500BF0020009020680D
:10261000C068009020688068009000BF0BE000BF99
:10262000002000902068C0680090206880680090BA
:1026300000BF00BFC4E7C5F3401088B1606D40F033
:102640000100606500BF0020009020688068009055
:102650002068006820F040002168086000BF00BFCB
:10266000C5F3002058B1606D40F00800606500BF00
:102670000020009020688068009000BF00BF606D5F
:1026800078B32068406820F0E000216848600120AD
:1026900084F8510006F00200022802D006F0010082
:1026A00008B32068406820F0030021684860E06CAF
:1026B00050B11048E16C0865E06CFEF7E4FB18B11E
:1026C000606D40F040006065A06C50B10948A16C9D
:1026D0000865A06CFEF7D7FB18B1606D40F04000B4
:1026E000606503E003E02046FFF752FF68E700BFA4
:1026F00066E700007D42000810B504460CB90120D1
:1027000010BD606A00B900BF0021A16294F85100B9
:1027100028B9002084F85000204600F033F8022049
:1027200084F851002068006820F0400021680860AB
:10273000D4E901010843E16808432169084361695C
:102740000843218B01F400710843E1690843216AC1
:102750000843A16A0843216808600421A06901EACE
:102760001040616A0843216848602068C06920F40D
:1027700000602168C86100206065012084F8510074
:102780000020BDE710B586B00446142101A8FDF76E
:10279000DFFD24492068884241D100BF002000901D
:1027A0002148006840F480401F49086008460068DE
:1027B00000F48040009000BF00BF00BF00200090E8
:1027C00019481038006840F00200174910390860B5
:1027D0000846006800F00200009000BF00BF4FF400
:1027E000604001900220029000200390032004909A
:1027F0000520059001A90D48FEF762FD4FF48050B9
:1028000001900120039001A90848FEF759FD00221C
:1028100005212420FFF74EFA2420FFF73BFA06B0EB
:1028200010BD000000380040403802400004024063
:102830002DE9F84F0446884616461D464FF0000A1B
:1028400000BF94F85000012802D10220BDE8F88FA3
:10285000012084F8500000BFFEF730FE0746B14665
:1028600094F85100012802D04FF0020AA7E0B8F115
:10287000000F00D016B94FF0010AA0E0032084F841
:10288000510000206065C4F83080A686E686A0630B
:10289000A087E08760642064A068B0F5004F05D190
:1028A0002068006840F48040216808602068006863
:1028B00000F04000402805D02068006840F040004B
:1028C00021680860E068B0F5006F2FD1606810B132
:1028D000B9F1010F09D1206B00882168C860206B15
:1028E000801C2063E08E401EE0861BE0206880682C
:1028F00000F0020002280AD1206B00882168C8601D
:10290000206B801C2063E08E401EE0860AE0FEF70C
:10291000D5FDC01BA84201D3681C00B915B94FF002
:10292000030A4CE0E08E0028E0D12EE0606810B190
:10293000B9F1010F09D1206B007821680873206B71
:10294000401C2063E08E401EE0861BE0206880680B
:1029500000F0020002280AD1206B00782168087379
:10296000206B401C2063E08E401EE0860AE0FEF7EC
:10297000A5FDC01BA84201D3681C00B915B94FF0D2
:10298000030A1CE0E08E0028E0D13A4629462046A2
:1029900001F0DAFC08B120206065A06850B900BFE2
:1029A000002000902068C068009020688068009037
:1029B00000BF00BF606D08B14FF0010A00BF0120E9
:1029C00084F8510000BF002084F8500000BF50463A
:1029D0003CE700002DE9F04104460E46154600276D
:1029E00000BF94F85000012802D10220BDE8F08118
:1029F000012084F8500000BF94F85100012801D054
:102A0000022752E006B10DB901274EE0032084F8F9
:102A10005100002060652663A586E586A06360649A
:102A20002064A087E087A068B0F5004F05D120683A
:102A3000006840F48040216808601F48A16C086469
:102A40001E48A16CC8631E48A16CC8640020A16C1C
:102A50000865E38ED4F800C00CF10C02216BA06C69
:102A6000FEF7C0FB40B1606D40F0100060650127CB
:102A7000012084F8510018E02068006800F0400050
:102A8000402805D02068006840F0400021680860B8
:102A90002068406840F02000216848602068406855
:102AA00040F002002168486000BF00BF002084F8A9
:102AB000500000BF384699E7B9420008C7420008F5
:102AC000914200080021014A9171704704000020E2
:102AD00070477047704710B504460CB9012010BD0F
:102AE00094F83D0028B9002084F83C00204600F00E
:102AF0000CF8022084F83D00211D206801F030FF11
:102B0000012084F83D000020E9E77047014608688D
:102B1000C06840F001000B68D8600868806800F069
:102B20000702062A05D00868006840F001000B681B
:102B3000186000207047704710B50446206800698F
:102B4000C0F34000D8B12068C068C0F34000B0B105
:102B50006FF00200216808610120207720688069F9
:102B600000F0030018B12046FFF7E5FF05E020461E
:102B700000F0ADF8204600F0ABF800202077206888
:102B80000069C0F38000D8B12068C068C0F380003D
:102B9000B0B16FF00400216808610220207720683E
:102BA000806900F4407018B12046FFF7C4FF05E0CB
:102BB000204600F08CF8204600F08AF800202077AC
:102BC00020680069C0F3C000D8B12068C068C0F3B5
:102BD000C000B0B16FF008002168086104202077C0
:102BE0002068C06900F0030018B12046FFF7A3FF7A
:102BF00005E0204600F06BF8204600F069F8002060
:102C0000207720680069C0F30010D8B12068C06840
:102C1000C0F30010B0B16FF0100021680861082007
:102C200020772068C06900F4407018B12046FFF793
:102C300082FF05E0204600F04AF8204600F048F800
:102C4000002020772068006900F0010058B120685A
:102C5000C06800F0010030B16FF001002168086128
:102C6000204600F037F820680069C0F3C01058B162
:102C70002068C068C0F3C01030B16FF080002168D8
:102C800008612046FFF725FF20680069C0F3801027
:102C900058B12068C068C0F3801030B16FF04000B8
:102CA00021680861204600F021F820680069C0F31F
:102CB000401058B12068C068C0F3401030B16FF0C8
:102CC0002000216808612046FFF704FF10BD70470F
:102CD0007047000010B5044603492068884201D1BE
:102CE000FEF73EFF10BD0000001000407047704727
:102CF0002DE9F0470446206805682068C66820680A
:102D000047694FF00008C14605F00F08B8F1000F01
:102D10000AD105F0200038B106F0200020B120468D
:102D200001F0B4FEBDE8F087B8F1000F72D007F0F3
:102D3000010018B906F4907000286BD005F001006E
:102D400030B106F4807018B1E06B40F00100E06330
:102D500005F0040030B107F0010018B1E06B40F05D
:102D60000200E06305F0020030B107F0010018B185
:102D7000E06B40F00400E06305F0080048B106F0A5
:102D8000200010B907F0010018B1E06B40F0080016
:102D9000E063E06B70B305F0200028B106F020007E
:102DA00010B1204601F072FE20684069C0F380191E
:102DB000E06B00F0080010B9B9F1000F23D02046F5
:102DC00001F044FE2068406900F04000402816D120
:102DD0002068406920F0400021684861606B50B174
:102DE0001748616B0865606BFEF74DF810B1606BBA
:102DF000016D88470CE02046FFF779FF08E0204688
:102E0000FFF775FF04E02046FFF771FF0020E06345
:102E100088E7FFE705F0800030B106F0800018B1C8
:102E2000204602F07BF87DE705F0400030B106F067
:102E3000400018B1204601F019FE73E700BF71E7AA
:102E4000394A000810B504460CB9012010BDA0692C
:102E500000B100E000BF94F8390028B9002084F8E0
:102E60003800204600F028F8242084F83900206833
:102E7000C06820F400502168C860204601F05AFE66
:102E80002068006920F4904021680861206840694A
:102E900020F02A00216848612068C06840F4005092
:102EA0002168C8600020E063202084F8390084F89D
:102EB0003A000020CAE7000010B586B0044614218D
:102EC00001A8FDF745FA1F492068884237D100BFA5
:102ED000002000901C48006840F400301A49086047
:102EE0000846006800F40030009000BF00BF00BF3B
:102EF0000020009014481038006840F0010012498A
:102F0000103908600846006800F00100009000BF1A
:102F100000BF0C20019002200290002003900320AB
:102F200004900720059001A90848FEF7C9F900227E
:102F300005212620FEF7BEFE2620FEF7ABFE06B0DA
:102F400010BD000000440040403802400000024034
:102F5000704710B5034693F83900202823D101B1FA
:102F60000AB9012010BD00BF93F83800012801D133
:102F70000220F7E7012083F8380000BF19629A8425
:102F8000DA840020D863212083F8390000BF0020B4
:102F900083F8380000BF1868C06840F080001C68E3
:102FA000E0600020DEE70220DCE7704700BFFEE7BC
:102FB00010B50248FEF78AFA10BD00000801002093
:102FC00010B50248FEF7ECFA10BD00000801002021
:102FD000C16AB1F52A0F02D10121C16205E0C16ABF
:102FE000B1F12A4F01D10821C162704770B5054681
:102FF000AC6B94F83D60606B10B10020616BC863EE
:10300000A06B10B10020A16BC8632068006820F499
:1030100080602168086000206085606B10B100202E
:10302000616B0865A06B10B10020A16B086520687A
:10303000006820F001002168086094F83D006028D5
:103040000AD1202084F83D00002084F83E0020644E
:103050002046FEF739FA1EE006F02800282811D194
:103060002068006840F0010021680860206800685E
:1030700040F480602168086000202063282084F8E4
:103080003D0005E0202084F83D00002084F83E004B
:103090002046FEF767FB70BD70B5044694F83D60AE
:1030A00094F83E00102807D1222E05D12068006830
:1030B00020F400602168086006F02800282805D167
:1030C00000202063282084F83D000FE0206840683D
:1030D00000F40060B0F5006F04D0602E02D0202014
:1030E00084F83D000020206384F83E00206840689A
:1030F00000F40060B0F5006F40D12068406820F413
:10310000006021684860606B90F83500012814D099
:103110004848616B0865606BFDF7B5FE00285BD021
:103120002068006820F0010021680860202084F8F1
:103130003D00606B016D88474EE03E48A16B08651D
:10314000A06BFDF7A0FE002846D020684069C0F3C0
:10315000801030B120680069616A0870606A401CA4
:1031600060622068006820F001002168086020206B
:1031700084F83D00A06B016D88472DE094F83D0078
:1031800060281AD1202084F83D00002020642068A7
:103190004069C0F3801030B120680069616A08702E
:1031A000606A401C60622068006820F001002168AD
:1031B00008602046FEF788F90EE020684069C0F3F9
:1031C000801030B120680069616A0870606A401C34
:1031D00060622046FEF7C6FA256C05F0010058B97A
:1031E00005F00200022807D005F00400042803D0EF
:1031F00005F00800082805D12068406820F4E06048
:103200002168486094F83D60206C00F004000428B8
:103210000ED1282E0CD10848E06200202063202027
:1032200084F83D00002084F83E002046FEF784FB31
:1032300070BD0000ED2F00080000FFFF0146086888
:103240004069C0F38020B0B16FF480600A685061BB
:1032500000200863202081F83D00002081F83E0016
:10326000086C40F00400086400BF002081F83C00B6
:1032700000BF012070470020FCE770B50446E56AF6
:10328000608D042810D12068406820F48060216897
:10329000486020680069616A0870606A401C60626A
:1032A000608D401E60857AE0608D03281AD1206809
:1032B000406820F4806021684860042D07D0022D0A
:1032C00005D02068006820F48060216808602068CC
:1032D0000069616A0870606A401C6062608D401E0F
:1032E00060855CE0608D02284FD1012D01D0102D4A
:1032F00006D12068006820F480602168086012E030
:10330000042D01D0022D06D12068006840F48060B1
:103310002168086007E0102D05D02068006840F49F
:1033200000702168086020680069616A0870606A3E
:10333000401C6062608D401E608520680069616A83
:103340000870606A401C6062608D401E6085206865
:10335000406820F4407021684860202084F83D00D7
:1033600094F83E00402807D1002084F83E002063F6
:103370002046FEF79DFB12E0002084F83E0012205C
:1033800020632046FEF7D9FA09E020680069616AE7
:103390000870606A401C6062608D401E608570BD70
:1033A00070B5044694F83D0022284AD1658D032D5E
:1033B00013D920680069616A0870606A401C606205
:1033C000608D401E6085608D032839D1206840687B
:1033D00020F480602168486032E0E06A02282FD043
:1033E000012D00D01DBB2068006820F4806021689A
:1033F00008602068406820F4E06021684860206828
:103400000069616A0870606A401C6062608D401EDD
:103410006085202084F83D0094F83E00402807D1C4
:10342000002084F83E0020632046FEF741FB07E0C1
:10343000002084F83E00122020632046FEF77DFA2B
:1034400000BF70BD2DE9F84304460D461746984667
:10345000E66A082E04D0012E02D016F5803F06D170
:103460002068006840F480702168086008E0206BE4
:10347000122805D12068006840F480702168086037
:103480003B4600224FF001112046CDF8008000F0AD
:10349000A9FC50B12068006800F4807010B14FF4AE
:1034A000007020640320BDE8F8832069B0F5804FE8
:1034B00004D105F0FE002168086112E005F44070B7
:1034C000F02141EAE0102168086143463A460B4981
:1034D000204600F0CAFC08B10120E4E7E8B2216808
:1034E000086143463A460549891F204600F0BDFC65
:1034F00008B10120D7E70020D5E70000080001004F
:1035000070B50446E56A94F83D00212848D1608DE5
:1035100050B1606A007821680861606A401C60628E
:10352000608D401E608542E0082D16D0202D14D0FD
:1035300015F5803F11D02068406820F4E0602168D4
:10354000486011202063002084F83E00202084F889
:103550003D002046FEF7F2F929E02068406820F49B
:10356000E060216848602068006840F400702168CD
:10357000086000202063202084F83D0094F83E007D
:10358000402806D1002084F83E002046FEF791FA3C
:103590000DE0002084F83E002046FEF7CFF906E05B
:1035A00094F83E00402802D1204600F005FA70BD94
:1035B0002DE9F041044694F83D5094F83E70E66AD7
:1035C000208DB0BB212D3CD1082E16D0202E14D03A
:1035D00016F5803F11D02068406820F4E060216833
:1035E000486011202063002084F83E00202084F8E9
:1035F0003D002046FEF7A2F944E02068406820F430
:10360000E060216848602068006840F4007021682C
:10361000086000202063202084F83D0094F83E00DC
:10362000402807D1002084F83E002046FEF741FAEA
:1036300028E006E0002084F83E002046FEF77EF9F0
:1036400020E0212D03D0402F1CD1222D1AD1608DD6
:1036500030B92068406820F480602168486011E03B
:1036600094F83E00402803D1204600F0A5F909E077
:10367000606A007821680861606A401C6062608D41
:10368000401E6085BDE8F081416CC9B202681161DD
:10369000416B09B9816B59B1416BC96B11B9816B30
:1036A000C96B29B10168496841F400610268516041
:1036B000704738B590F83E20C16A036B90F83D40E2
:1036C000222C73D1046D64B9402A0AD100BF0024B2
:1036D00000940468646900940468A469009400BFBD
:1036E0001AE1046DC4B90469B4F5404F14D100BFA8
:1036F000002400940468646900940468A469009438
:1037000000BF00BF0468246844F4807405682C601E
:10371000046D641C0465FFE0448D8CB900BF002477
:1037200000940468646900940468A469009400BF6C
:1037300000BF0468246844F4007405682C60DDE070
:10374000448D012C72D111F5803F30D1046824687A
:1037500024F4806405682C600468646804F40064E0
:10376000B4F5006F10D10468246824F480640568FF
:103770002C6000BF0024009404686469009404680D
:10378000A469009400BFB9E000BF0024009404685D
:10379000646900940468A469009400BF00BF0468D1
:1037A000246844F4007405682C60A7E0A9E00829A7
:1037B00023D0202921D0122B01D101291DD1042988
:1037C0000AD0022908D0102906D00468246824F4FD
:1037D000806405682C6005E00468246844F4806413
:1037E00005682C6000BF002400940468646900949C
:1037F0000468A469009400BF80E00468246824F48D
:10380000806405682C6000BF00240094046864692B
:1038100000940468A469009400BF00BF0468246891
:1038200044F4007405682C6068E0FFE7448D022CC6
:103830003BD1042910D002290ED010290CD00468E5
:10384000246824F4806405682C600468246844F4C7
:10385000006405682C6005E00468246844F4806412
:1038600005682C600468646804F40064B4F5006FB3
:1038700010D111F5803F07D0012905D0082903D0C8
:10388000102901D0202905D10468646844F48054CB
:1038900005686C6000BF00240094046864690094AB
:1038A0000468A469009400BF28E00468246844F414
:1038B000806405682C600468646804F40064B4F5EE
:1038C000006F10D111F5803F07D0012905D00829DC
:1038D00003D0102901D0202905D10468646844F47C
:1038E000805405686C6000BF00240094046864691B
:1038F00000940468A469009400BF00BF002404651C
:103900000AE000BF0024009404686469009404681D
:10391000A469009400BF00BF38BD90F83E10402954
:103920000ED1016D29B9416C01F0FE0102681161EF
:1039300041E0416CC9B241F00101026811613AE015
:103940000169B1F5804F20D190F83D10212905D1B2
:10395000416C01F0FE010268116105E0416CC9B2E1
:1039600041F0010102681161416B11B1416BC96BFA
:1039700021B9816BF9B1816BC96BE1B1016849680B
:1039800041F400610268516015E0016D41B9416C7C
:1039900001F44071F02242EAE111026811610AE08B
:1039A000016D012907D1416C01F44071F12242EA15
:1039B000E111026811617047016D99B9C16C01296B
:1039C00007D1816CC9B202681161016D891C016562
:1039D0002FE0816CC1F3072102681161016D491C60
:1039E000016526E0016D012907D1816CC9B2026829
:1039F0001161016D491C01651BE0016D022918D19F
:103A000090F83D10222906D10168096841F48071BF
:103A1000026811600DE090F83D10212909D1416A3A
:103A2000097802681161416A491C4162418D491E51
:103A300041857047418D49B101680969426A117039
:103A4000416A491C4162418D491E4185704770B5EC
:103A5000044694F83D50608DD8B120680069616AD1
:103A60000870606A401C6062608D401E6085608DD9
:103A700078B92A2D0DD12068406820F48060216833
:103A8000486022202063282084F83D002046FEF76D
:103A900065F870BD418D49B1416A097802681161CC
:103AA000416A491C4162418D491E4185704770B58C
:103AB000044694F83D50608DD8B1606A0078216862
:103AC0000861606A401C6062608D401E6085608D88
:103AD00078B9292D0DD12068406820F480602168D4
:103AE000486021202063282084F83D002046FEF70E
:103AF00036F870BD2DE9F04104460D46002794F8D4
:103B00003D0000F0280028281CD12068406820F4DF
:103B1000806021684860C5F3800000B90127C5F3C3
:103B2000C01010B9A08986B201E0208B86B200BF18
:103B3000002084F83C0000BF324639462046FDF79D
:103B4000C4FC08E06FF002002168486100BF00205B
:103B500084F83C0000BFBDE8F081000070B5044669
:103B600094F83D50E66A082E01D0202E1FD1282D52
:103B70001DD12148E0622068406820F4E06021689F
:103B800048606FF48060216848612068006820F414
:103B900080602168086000202063202084F83D00B8
:103BA000002084F83E002046FDF7C6FE23E0212DCC
:103BB0001DD11148E06221202063202084F83D00BF
:103BC000002084F83E002068406820F4E06021680E
:103BD00048606FF48060216848612068006820F4C4
:103BE0008060216808602046FDF7B9FF03E06FF4AC
:103BF00080602168486170BD0000FFFF38B5044651
:103C000094F83D502068406820F4E06021684860E6
:103C100000BF002000902068406900902068006884
:103C200040F001002168086000BF00BF2068006804
:103C300020F48060216808602068406800F400601B
:103C4000B0F5006F42D1222D01D02A2D1FD1A06BDB
:103C5000006840686085608D18B1206C40F00400F9
:103C600020642068406820F4006021684860A06BF0
:103C7000FDF71DF9012829D04148A16B0865A06B0B
:103C8000FDF701F910B3A06B016D88471EE0606B72
:103C9000006840686085608D18B1206C40F00400B9
:103CA00020642068406820F4006021684860606BF0
:103CB000FDF7FDF8012809D03148616B0865606B9C
:103CC000FDF7E1F810B1606B016D8847608D18B3A6
:103CD00020684069C0F3800048B120680069616ACB
:103CE0000870606A401C6062608D401E60852068BC
:103CF0004069C0F3801048B120680069616A0870AB
:103D0000606A401C6062608D401E6085608D18B1E5
:103D1000206C40F004002064206C18B12046FFF7AE
:103D2000BBF92BE02A2D07D100202063282084F83E
:103D30003D002046FDF712FF94F83D0028280DD1E4
:103D40001048E06200202063202084F83D0000201D
:103D500084F83E002046FDF7EFFD0FE0206B22289F
:103D600001D0222D0AD100202063202084F83D00BC
:103D7000002084F83E002046FDF7F0FE38BD00002C
:103D8000ED2F00080000FFFF70B504460D461646F3
:103D900020E02046FFF752FA08B1012070BD681CF0
:103DA000C0B1FDF78BFB801BA84200D895B900205D
:103DB0002063202084F83D00002084F83E00206C21
:103DC00040F02000206400BF002084F83C0000BFC9
:103DD0000120E3E720684069C0F380000028D8D0C4
:103DE0000020DBE72DE9F04104460D4617461E464C
:103DF000DDF818801CE0701CD0B1FDF75FFBA0EB74
:103E00000800B04200D89EB900202063202084F82A
:103E10003D00002084F83E00206C40F0200020642B
:103E200000BF002084F83C0000BF0120BDE8F08105
:103E3000C5F3074001280AD120684069A9B20840AB
:103E4000A9B2884201D101200BE0002009E02068DE
:103E50008069A9B20840A9B2884201D1012000E0DE
:103E60000020B842C7D00020E0E72DE9F041044629
:103E70000D4616461F463DE020684069C0F380208D
:103E8000E8B12068006840F40070216808606FF4B1
:103E900080602168486100202063202084F83D0074
:103EA000002084F83E00206C40F00400206400BF35
:103EB000002084F83C0000BF0120BDE8F081701CA8
:103EC000C0B1FDF7FBFAC01BB04200D896B9002084
:103ED0002063202084F83D00002084F83E00206C00
:103EE00040F02000206400BF002084F83C0000BFA8
:103EF0000120E2E7C5F3074001280AD120684069A4
:103F0000A9B20840A9B2884201D101200BE00020EB
:103F100009E020688069A9B20840A9B2884201D1AD
:103F2000012000E000200028A6D00020C5E770B5E1
:103F300004460D46164620E02046FFF77FF908B1FB
:103F4000012070BD681CC0B1FDF7B8FA801BA84203
:103F500000D895B900202063202084F83D0000207F
:103F600084F83E00206C40F02000206400BF002058
:103F700084F83C0000BF0120E3E720684069C0F3FB
:103F8000C0100028D8D00020DBE700001FB50020BB
:103F900000900190029003901B481C4908604FF468
:103FA000803048600021194881600161017680F805
:103FB0002010C162164981620021C1600221C161E5
:103FC000012180F830104161FCF792FD08B1FCF747
:103FD000B7FC002000900120019005200290694666
:103FE0000A48FCF7AFFC08B1FCF7AAFC01200090DE
:103FF000022001900520029069460448FCF7A2FCCB
:1040000008B1FCF79DFC1FBD00200140C00000204E
:104010000100000F00B587B0142102A8FCF798F941
:1040200000BF002001902948006840F001002749A6
:1040300008600846006800F00100019000BF00BF62
:1040400000BF002001900846006840F004000860AE
:104050000846006800F00400019000BF00BF00BFE8
:10406000002001900846006840F002000860084601
:10407000006800F00200019000BF00BF00224FF472
:10408000F0711348FDF714FA4FF4F070029001201C
:10409000039000200490059002A90D48FDF710F947
:1040A0004FF4005002900B480390002004900590BC
:1040B00002A90748FDF704F9002205212820FDF791
:1040C000F9FD2820FDF7E6FD07B000BD30380240BD
:1040D000000802400000211010B50B480B49086091
:1040E0000B484860002109488160C1604FF480415D
:1040F0000161002141618161C1610162FDF734FB11
:1041000008B1FCF71DFC10BD005400400801002060
:10411000A086010010B51048104908604FF4827065
:1041200048604FF400410D4881600021C160016189
:1041300041614FF4802181611021C1610021016240
:10414000416281620648054988640846FEF7D4FA50
:1041500008B1FCF7F5FB10BD003800405C01002001
:104160005402002010B50B480B4908604FF4615011
:104170004860002108488160C160016108214161F7
:1041800000218161C161FEF75DFE08B1FCF7D8FB3B
:1041900010BD000000440040B401002000BFFEE755
:1041A000704700001CB500BF002000F013FA01208A
:1041B00020210B46174ACDE900100021084600F0E7
:1041C0007BF9154908780978491C134B19700A21A5
:1041D00000F010FA0122114911A000F0D9FA0E499D
:1041E00008780978491C0C4B1970152100F002FA67
:1041F00001220A490CA000F0CBFA00F0FDFA0648B3
:1042000000787F2802DB002003490870322001F08B
:104210000FF8C9E7447200081C000020A800002025
:1042200048656C6C6F000000526168756C0000009E
:104230008AB000BF20220B4902A8FCF770F802A840
:10424000FCF791F884B24FF47A70234602AA6821F1
:1042500000900548FDF774FB4FF47A7000F0E8FF1A
:10426000E8E70000547300080801002010B5024878
:10427000FEF794F910BD00005C01002070B5054602
:10428000AC6B0020E087E0862046FEF781F970BD28
:1042900070B50546AC6B2068406820F003002168CB
:1042A0004860606D40F010006065012084F85100A6
:1042B0002046FEF76DF970BD70B50446A56B284623
:1042C000FEF706FC70BDF8B50546AC6BFDF7F6F8D9
:1042D00006462868006800F48070B0F5807F2DD015
:1042E0002068406820F0200021684860206840680D
:1042F00020F002002168486032466421204600F028
:1043000023F818B1606D40F020006065A06850B9D6
:1043100000BF002000902068C0680090206880687E
:10432000009000BF00BF0020E086012084F851000B
:10433000606D18B12046FEF72BF9F8BD2046FEF758
:10434000C1FB00BFF9E700007CB504460D461646E8
:10435000164800681821B0FBF1F01549B0FBF1F0E8
:104360004FF47A71484301906068B0F5827F0DD1B7
:104370002B46002280212046009600F01BF898B1C1
:10438000606D40F02000606503207CBD00BF019897
:1043900000B908E00198401E019020688068C0F3D1
:1043A000C0100028F3D100BF0020EEE72C00002051
:1043B00040420F002DE9F04104460E4617461D46C7
:1043C000DDF818803EE0681CD8B3FDF777F8A0EB65
:1043D0000800A84200D2A5BB2068406820F0E00099
:1043E000216848606068B0F5827F0DD1A068B0F5A3
:1043F000004F03D0A068B0F5806F05D12068006839
:1044000020F0400021680860A06AB0F5005F0DD17F
:1044100000BF2068006820F4005021680860206810
:10442000006840F400502168086000BF012084F853
:10443000510000BF002084F8500000BF0320BDE8F9
:10444000F081FFE7206880683040B04201D1012050
:1044500000E00020B842B6D10020F0E710B50020FF
:1044600000F0B8F800F0C8F910BD000010B5104811
:10447000407908B9002010BD00224FF480710D482A
:10448000FDF716F8AE2001F063FD01224021094836
:10449000FDF70EF86420FCF7EFFE0122202105480D
:1044A000FDF706F80020024948710120E3E700000B
:1044B00004000020000802402DE9F84F80460D4618
:1044C00091461E46DDF828B0F01DC11700EB517172
:1044D000C91009B200914FF0000A002725E000241E
:1044E0001DE004F0070020B14FEA4A604FEA106A6D
:1044F00009E02046E11704EB5171CA10009907FB4F
:10450000012119F801A00AF0800030B1A9B208EB2E
:10451000040290B20B9A00F00DF8601C04B2B44291
:10452000DFDB781C07B2681C05B25F45D7DBBDE84E
:10453000F88F0000F0B503461446802B01DA2029DD
:1045400000DBF0BD2148007920B10CB9012000E06A
:1045500000200446012C1CD1CD1701EB5575ED1040
:1045600003EBC5151A4E755D0A46CE1701EB56765C
:10457000F610A1EBC6070126BE403543EEB2084651
:10458000CD1701EB5575ED1003EBC515104F7E559A
:104590001AE0CD1701EB5575ED1003EBC5150C4E68
:1045A000755D0A46CE1701EB5676F610A1EBC607ED
:1045B0000126BE40B5430846CE1701EB5676F610ED
:1045C00003EBC616024FBD5500BFBAE7040000203A
:1045D000284C002010B504460CB9002000E0FF2054
:1045E00002464FF400710248FBF7ABFE10BD00001D
:1045F000284C0020014A10805180704704000020A0
:1046000010B53648FDF7C5FF012801D0002010BDC8
:1046100000224FF480713248FCF74AFF002220212B
:104620002F48FCF745FF0A20FCF726FEAE2001F0DC
:104630008FFC00F0C3F88D2001F08AFC142001F0FB
:1046400087FCD92001F084FCF12001F081FCFFF708
:1046500005FF002240212248FCF72AFF6420FCF7D6
:104660000BFED52001F074FCF02001F071FC8120DC
:1046700001F06EFC0F2001F06BFCA82001F068FC3B
:104680003F2001F065FC202001F062FC002001F0D9
:104690005FFCA12001F05CFCC82001F059FCDA208D
:1046A00001F056FC202001F053FCA62001F050FC44
:1046B0002E2001F04DFCAF2001F04AFC00200949FA
:1046C00008804880012048710020887100BF05489B
:1046D00080790028FBD1012099E700005C010020CF
:1046E00000080240040000202DE9F04307460C4674
:1046F00090462648008821780844802805DA234817
:10470000408861780844202802DB0020BDE8F0835F
:10471000002530E0A7F12000617800FB01506168BE
:1047200031F81090002622E009FA06F000F400406B
:1047300058B1164A52882A4491B2144A1288324417
:1047400090B24246FFF7F6FE10E0B8F1000F01D13B
:10475000012300E000231A460C4B5B882B4499B2DE
:104760000A4B1B88334498B2FFF7E4FE761C20788E
:10477000B042D9D86D1C6078A842CBD803480088D5
:1047800021780844014908803846BFE7040000202A
:1047900070B504460D4616460AE020783246294692
:1047A000FFF7A2FF2178884201D0207870BD641CF9
:1047B00020780028F1D12078F8E7000010B5002219
:1047C00040210648FCF774FE0120FCF755FD01224C
:1047D00080210248FCF76CFE10BD0000000802407A
:1047E00010B50448407910B1FFF740FE01E0FFF733
:1047F00007FF10BD0400002010B500BF024801F003
:10480000BBFB0028FAD110BD284C002000BF0223BA
:10481000074A08490848FCF7E5FC02220449074812
:10482000FCF7E4F94FF47A7000F002FDEFE70000C6
:10483000000000204C200140F4010020C0000020B6
:1048400010B500BF502080F31188BFF34F8FBFF326
:104850006F8F00BF02F0B6FA18B14FF080500449D4
:10486000086000BF002080F3118800BF10BD000069
:1048700004ED00E000B593B0342106A8FBF768FD15
:10488000142101A8FBF764FD00BF00200090274819
:10489000006840F08050254908600846006800F034
:1048A0008050009000BF00BF00BF00200090204853
:1048B000006840F440401E4908600846006800F463
:1048C0004040009000BF00BF0220069001200990E8
:1048D00010200A9002200C9000210D9108210E91C9
:1048E000B4210F91022110911191129106A8FDF7A8
:1048F0000FFC08B1FCF724F8FDF72EFA08B1FCF71D
:104900001FF80F20019003200290002003904FF425
:10491000A05004904FF480500590052101A8FDF7A8
:1049200061FA08B1FCF70CF813B000BD4038024042
:10493000007000400548006840F4700003490860BA
:104940004FF00060014980390860704788ED00E051
:1049500010B50248FEF7F0F810BD00001403002067
:1049600010B50268294B98420ED0B0F1804F0BD0A1
:10497000274B984208D0274B984205D0264B9842A7
:1049800002D0264B984203D122F070024B681A43A2
:104990001E4B984220D0B0F1804F1DD01C4B984246
:1049A0001AD01C4B984217D01B4B984214D01B4B6B
:1049B000984211D01A4B98420ED01A4B98420BD005
:1049C000194B984208D0194B984205D0184B984281
:1049D00002D0184B984203D122F44072CB681A439C
:1049E00022F080034C6943EA040202608B68C362D0
:1049F0000B688362054B984202D0084B984201D164
:104A00000B6903630123436110BD000000000140F6
:104A10000004004000080040000C00400004014079
:104A2000004001400044014000480140001800409F
:104A3000001C00400020004070B50546AC6B002013
:104A4000E085E0842046FEF752F970BD0168C96830
:104A500021F490710268D1600168496921F0010177
:104A600002685161202180F83A10704710B5044661
:104A70002068C06820F040002168C860202084F8C9
:104A800039002046FEF791FA002010BD70B50446AB
:104A900094F83A0022284AD1A068B0F5805F13D17B
:104AA000A56A206940B920684068C0F308002880E2
:104AB000A06A801CA06219E020684068C0B228800B
:104AC000A06A401CA06211E0206938B920684068E3
:104AD000C1B2A26A501CA062117007E02068406851
:104AE00000F07F01A26A501CA0621170E08D401E90
:104AF00080B2E085C8B92068C06820F02000216835
:104B0000C8602068C06820F480702168C860206890
:104B1000406920F0010021684861202084F83A00B3
:104B20002046FEF715FA002070BD0020FCE70220A9
:104B3000FAE700002DE9F84F04462068006920F4E8
:104B40004050E1680843216808612169A068084372
:104B500061690843E169084300902068C06849F230
:104B60000C618843009908432168C8602068406947
:104B700020F44070A169084321684861E069B0F5FC
:104B8000004F75D1E3492068884203D0E24920688C
:104B900088426FD1FDF720FA814602206168A0FBB0
:104BA00001510B461920A9FB00712A463846FBF734
:104BB00085FB6421B0FBF1F04FEA001A0220616826
:104BC000A0FB01510B461920A9FB00712A4638466B
:104BD000FBF774FB074602206168A0FB01510B46FE
:104BE0001920A9FB00B12A465846FBF767FB642150
:104BF000B0FBF1F000EBC00101EB0010A7EB80006F
:104C0000322101EBC0006421B0FBF1F000F0F800AC
:104C10000AEB400A02206168A0FB01510B461920F3
:104C2000A9FB00712A463846FBF748FB07460220DD
:104C30006168A0FB01510B461920A9FB00B12A466F
:104C40005846FBF73BFB6421B0FBF1F000EBC001E1
:104C500001EB0010A7EB8000322101EBC0006421C2
:104C6000B0FBF1F000F007005044216888604FE18C
:104C70006EE0FFE7FDF7A0F9814602206168A0FB26
:104C800001510B461920A9FB00712A463846FBF753
:104C900015FB6421B0FBF1F04FEA001A02206168B5
:104CA000A0FB01510B461920A9FB00712A4638468A
:104CB000FBF704FB074602206168A0FB01510B468D
:104CC0001920A9FB00B12A465846FBF7F7FA6421E0
:104CD000B0FBF1F000EBC00101EB0010A7EB80008E
:104CE000322101EBC0006421B0FBF1F000F0F800CC
:104CF0000AEB400A02206168A0FB01510B46192013
:104D0000A9FB00712A463846FBF7D8FA074602206D
:104D10006168A0FB015003461920A9FB00B12A4697
:104D20005846FBF7CBFA6421B0FBF1F000EBC00171
:104D300001EB0010A7EB8000322101EBC0006421E1
:104D4000B0FBF1F000F00700504421688860DFE01C
:104D500070492068884203D06F49206888426BD12F
:104D6000FDF73AF9814604206168A0FB01510B462A
:104D70001920A9FB00712A463846FBF79FFA8246A4
:104D800004206168A0FB01510B461920A9FB0071AA
:104D90002A463846FBF792FA6421B0FBF1F000EBAB
:104DA000C00101EB0010AAEB8000322101EB0010E2
:104DB0006421B0FBF1F000F0F00A04206168A0FB70
:104DC000015003461920A9FB00712A463846FBF71B
:104DD00075FA6421B0FBF1F00AEB001A0420616857
:104DE000A0FB01510B461920A9FB00712A46384649
:104DF000FBF764FA074604206168A0FB01500346F4
:104E00001920A9FB00B12A465846FBF757FA64213E
:104E1000B0FBF1F000EBC00101EB0010A7EB80004C
:104E2000322101EB00106421B0FBF1F000F00F0023
:104E30005044216888606BE0FDF7BEF8814604208D
:104E40006168A0FB015003461920A9FB00712A46A6
:104E50003846FBF733FA824604206168A0FB015014
:104E600003461920A9FB00712A463846FBF726FAAB
:104E70006421B0FBF1F000EBC00101EB0010AAEBE4
:104E80008000322101EB00106421B0FBF1F000F052
:104E9000F00A04206168A0FB015003461920A9FB19
:104EA00000712A463846FBF709FA6421B0FBF1F09D
:104EB0000AEB001A04206168A0FB01700346192068
:104EC000A9FB005001463A462846FBF7F7F907468A
:104ED00004206168A0FB015003461920A9FB00B122
:104EE0002A465846FBF7EAF96421B0FBF1F000EBE3
:104EF000C00101EB0010A7EB8000322101EB001094
:104F00006421B0FBF1F000F00F005044216888608C
:104F1000BDE8F88F0010014000140140014691F8EF
:104F2000390021282CD18868B0F5805F0FD10A6A3A
:104F30001088C0F308000B685860086918B9086A3F
:104F4000801C086209E0086A401C086205E00B6AE0
:104F5000581C086218780B685860C88C401E80B2D4
:104F6000C88458B90868C06820F080000B68D86011
:104F70000868C06840F040000B68D86000207047A7
:104F80000220FCE710B50248FDF7B2FE10BD00009C
:104F9000B401002000BFFEE70FB4084B10B504A910
:104FA00002AA039800F040F8044602A9002000F08D
:104FB000E5F8204610BC5DF814FB00007D510008A8
:104FC00002480068C0F30220704700000CED00E0CA
:104FD00010B5002804DB0A07130E054A135406E037
:104FE0000A07140E034A00F00F031B1FD45410BD10
:104FF00000E400E018ED00E0EFF311807047EFF3FC
:1050000005807047EFF31080704702E008C8121F58
:1050100008C1002AFAD170477047002001E001C1A1
:10502000121F002AFBD170472DE9FF4F89B09B4624
:105030000446002506E025280BD05A460B999047D8
:10504000641C6D1C20780028F5D10DB02846BDE801
:10505000F08F0027B8460122474900E0074314F8C3
:10506000013F203B02FA03F00842F7D120782E28B6
:1050700019D114F8010F47F004072A280ED06FF059
:105080002F022078A0F1300109290CD808EB880103
:1050900002EB410100EB0108641CF2E70A98641C72
:1050A00050F8048B0A9020780028CED0642808D0CD
:1050B000692806D075281ED05A460B9990476D1C5A
:1050C00058E00A994FF00A0901C90A91002802DA4A
:1050D00040422D2102E0390504D52B218DF8201006
:1050E000012103E0F90704D02021F7E78A4608AE42
:1050F0000DE00021FAE70A994FF00A0901C90A9167
:10510000F7E74946FBF736F9303106F8011D00286C
:10511000F7D1ADEB060000F12009780701D44FF07C
:105120000108C84502DDA8EB090000E00020804628
:10513000002706E008A85A46C05D0B9990476D1CF1
:105140007F1C5745F6DB04E030205A460B99904708
:105150006D1CB8F10001A8F10108F5DC05E016F8B6
:10516000010B5A460B9990476D1CB9F10001A9F14A
:105170000109F4DC641C65E7092801000A68531C76
:105180000B60107070470000FCF7F6FCFFF772FB35
:10519000FEF740FFFEF7E6FFFEF7F8FEFEF7BAFF68
:1051A000FEF79AFFFBF742FAFBF782FAFBF7ECFAFD
:1051B000FFF726FA012801D0FBF7C2FB00F054F8F4
:1051C0000F4A00210F4800F093F80F4908600F4A7A
:1051D00000210F4800F08CF80E4908600E4A0021AB
:1051E0000E4800F085F80E4908600E4A00210E486E
:1051F00000F07EF80D49086000F056F800BFFEE7A9
:10520000C4720008A54100080C000020E8720008E4
:1052100031420008100000200C7300080D06000841
:1052200014000020307300080D480008180000200A
:1052300070B50546FFF7E3FE48B9FFF7E3FE10B986
:10524000FFF7DAFE30B107480068022802D16FF09C
:10525000050404E0002415B1284601F02BF820468F
:1052600070BD00008000002010B5FFF7C8FE48B9EF
:10527000FFF7C8FE10B9FFF7BFFE30B1094800685C
:10528000022802D16FF0050409E00648006820B941
:10529000012004490860002401E04FF0FF3420465B
:1052A00010BD00008000002010B5FFF7A8FE48B92F
:1052B000FFF7A8FE10B9FFF79FFE30B10B4800685A
:1052C000022802D16FF005040EE0084800680128AA
:1052D00008D100BF00BF02200449086001F066F851
:1052E000002401E04FF0FF34204610BD8000002074
:1052F0002DE9FF4780468946144600200390FFF7BA
:105300007EFE00285AD1FFF77DFE10B9FFF774FE2C
:1053100018B12B480068022850D0B8F1000F4DD0CA
:10532000802618254FF0000A4FF0FF3744B320685D
:1053300008B1D4F800A0A06900B1A5692DB1382D3D
:1053400003D8207900F0010018B1002004B0BDE8B6
:10535000F087606908B160698608A06840B1E068BC
:105360005C2805D3206918B1606908B1012708E0FD
:10537000A06830B9E06820B9206910B9002700E0C2
:105380000027012F0CD12169A0684B463246CDE998
:10539000005102905146404601F0A0FC03900DE000
:1053A00067B903A8B2B24B465146CDE9005040461A
:1053B00001F062FC012801D0002003900398C5E7AA
:1053C000800000202DE9F04105460E46164807688A
:1053D00016480068001D00F0EDFD681C38B936B1B4
:1053E00012480168091D124800F03AFE1AE07C19C3
:1053F0000E4800684460BC4207D20C480168091D91
:105400000C48006800F012FE0CE008480168091D15
:105410000948006800F00AFE08480068844201D28A
:1054200006480460BDE8F081440000203000002000
:1054300044080020380000203400002060000020D4
:1054400010B5044600F018FE24480068401C2349AB
:1054500008602348006840B9214804600846006895
:1054600001280DD100F0FCF90AE01E48006838B9A7
:105470001B480068C06AE16A884201D81848046085
:1054800019480068401C18490860084600686064B4
:105490001649E06A0968884202D91449E06A08603E
:1054A000E16A01EB8101124A02EB8100211D00F04B
:1054B000D7FD00F00BFE0B48006868B10848006893
:1054C000C06AE16A884207D24FF0805009490860FB
:1054D000BFF34F8FBFF36F8F10BD0000400000205F
:1054E000300000204C0000205C000020480000201C
:1054F0009403002004ED00E008B500F0BDFD124863
:105500000068E8B9114800F081FD114800F07EFD07
:105510000E48104908600E480F49086000200F4BE4
:105520000F4A102100900A2001F0A0F806490860F7
:105530000846006820B10BA10348006800F07EFE19
:1055400000F0C4FD08BD00007400002058080020D1
:105550006C0800206C0000207000002080080020F3
:10556000D0080020546D72510000000010B516E004
:1055700000F082FD0C48C068C468201D00F01AFDD0
:105580000A480068401E0949086009480068401E32
:105590000749086000F09AFD204600F05FF80448D3
:1055A00000680028E4D110BD300800204000002031
:1055B0003C00002070B504460D46206C70B1216C93
:1055C000E0680144E160D4E90210884201D3216817
:1055D000E1602846226CE168FAF7A1FE70BD2DE972
:1055E000F04104460F4615464FF00008A66B206CAC
:1055F00048B9206800282CD1A06801F085FC8046BD
:105600000020A06025E07DB93946226C6068FAF779
:1056100086FE216C606808446060D4E9010188421C
:1056200017D32068606014E03946226CE068FAF70E
:1056300076FE216CE068411AE1602168E0688842EA
:1056400003D2216CA068411AE160022D01D106B19C
:10565000761E701CA0634046BDE8F08110B504467C
:1056600094F8590030B9206B00F04EFD204600F050
:105670004BFD1AE094F85900012803D1204600F0B0
:1056800043FD12E094F85900022801D1012000E006
:10569000002050B900BF502080F31188BFF34F8F16
:1056A000BFF36F8F00BF00BFFEE710BD0146084A81
:1056B000126812680AB9012200E000220A600A6832
:1056C00022B9034A1268D268106800E000207047CF
:1056D0006C00002030B54FF47053174800F00704F9
:1056E0002CB1C01D20F00700134C041B1B1B0246ED
:1056F000124C22600024114D6C60D018083820F044
:1057000007000F4C206000240D4D2D686C600C4D7F
:105710002D682C601146441A4C60094C24680C60BA
:10572000084D4C682C60084D4C682C604FF00044CC
:10573000064D2C6030BD00002810002084000020A1
:105740008C00002094000020900000209800002091
:1057500000BFFFF70BFF064800680128F9D94FF09A
:10576000805004490860BFF34F8FBFF36F8FF0E79D
:105770009403002004ED00E02DE9F04106460D46BB
:1057800017469846069C0DB9246000E02760E66342
:1057900025640121204600F0D9FF84F84C80BDE843
:1057A000F0812DE9F05F82460E4690469B460A9FA7
:1057B0000C9C4FEA8801A522206BFAF7C2FDA8F1E4
:1057C0000100216B01EB800929F0070909F00700AE
:1057D00008B9012000E0002050B900BF502080F33C
:1057E0001188BFF34F8FBFF36F8F00BF00BFFEE77D
:1057F00086B1002507E0715D04F134004155705D0C
:1058000000B902E06D1C102DF5D300BF002143202C
:10581000015502E0002084F83400382F00D33727E8
:10582000E762E76400202065201D00F0FCFB04F126
:10583000180000F0F8FB2461C7F13800A061646231
:105840000020606584F858005A465146484600F0EA
:1058500069FB20600B9808B10B980460BDE8F09FCD
:1058600010B5002407E004EB84010F4A02EB81002D
:1058700000F0CCFB641C382CF5D30C4800F0C6FBC0
:105880000B4800F0C3FB0B4800F0C0FB0A4800F0D7
:10589000BDFB0A4800F0BAFB044809490860044807
:1058A0000849086010BD000094030020F4070020A0
:1058B000080800201C0800203008002044080020B0
:1058C000340000203800002010B50146164800E0E2
:1058D000006803688B42FBD30246436813448B4243
:1058E00004D143684C682344436001460A464B6830
:1058F00013440468A34211D10C4C03682468A342EA
:1059000008D04B680468646823444B6003681B68D4
:105910000B6005E0054B1B680B6001E003680B6042
:10592000884200D0016010BD840000208C0000205F
:105930002DE9F04104460D4616461F464FF000087B
:1059400065602461B5420CD8F01BA169884202D37E
:105950004FF0010811E0211D0948006800F066FBC6
:105960000BE0BE4204D2BD4202D34FF0010804E076
:10597000211D0448006800F059FB4046BDE8F08155
:10598000700000206C00002070B5054600F074FB2C
:10599000A86B08B9012400E0002400F097FB204622
:1059A00070BD70B5054600F067FBA86BE96B8842D7
:1059B00001D1012400E0002400F088FB204670BDE6
:1059C000F8B505460F461A480068C068C468201D2F
:1059D00000F0F0FA94F8280000F00400E8B1A069A3
:1059E00041192B463A462046FFF7A2FFD8B10020C6
:1059F00003462A4601460090204601F0E1FB064698
:105A000056B900BF502080F31188BFF34F8FBFF30A
:105A10006F8F00BF00BFFEE705E094F8280020F07C
:105A2000010084F828002046216A8847F8BD00005C
:105A30006C000020F0B587B0A0E00398002811DAD0
:105A400004AE56B900BF502080F31188BFF34F8FCA
:105A5000BFF36F8F00BF00BFFEE7D6E90020B1683B
:105A6000904700BF03980028E6DB059C606908B9F1
:105A7000012000E0002010B9201D00F09BFA02A8D0
:105A800000F0DEF8054603980A2875D2DFE800F03A
:105A900009050739416306083A4200BF00BF00BF4D
:105AA00000BF94F8280040F0010084F82800049812
:105AB000A269811803462A462046FFF739FFF8B14C
:105AC0002046216A884794F8280000F00400B8B105
:105AD000002000900498A16942180023194620462E
